{
  "_format": "hh-sol-artifact-1",
  "contractName": "P2PMarketplace",
  "sourceName": "contracts/marketplace/P2PMarketplace.sol",
  "abi": [
    {
      "inputs": [
        {
          "internalType": "address",
          "name": "_feeCollector",
          "type": "address"
        },
        {
          "internalType": "address",
          "name": "_krmTokenAddress",
          "type": "address"
        }
      ],
      "stateMutability": "nonpayable",
      "type": "constructor"
    },
    {
      "anonymous": false,
      "inputs": [
        {
          "indexed": false,
          "internalType": "uint256",
          "name": "newFee",
          "type": "uint256"
        }
      ],
      "name": "FeeUpdated",
      "type": "event"
    },
    {
      "anonymous": false,
      "inputs": [
        {
          "indexed": true,
          "internalType": "uint256",
          "name": "orderId",
          "type": "uint256"
        }
      ],
      "name": "OrderAccepted",
      "type": "event"
    },
    {
      "anonymous": false,
      "inputs": [
        {
          "indexed": true,
          "internalType": "uint256",
          "name": "orderId",
          "type": "uint256"
        }
      ],
      "name": "OrderCancelled",
      "type": "event"
    },
    {
      "anonymous": false,
      "inputs": [
        {
          "indexed": true,
          "internalType": "uint256",
          "name": "orderId",
          "type": "uint256"
        }
      ],
      "name": "OrderCompleted",
      "type": "event"
    },
    {
      "anonymous": false,
      "inputs": [
        {
          "indexed": true,
          "internalType": "uint256",
          "name": "orderId",
          "type": "uint256"
        },
        {
          "indexed": true,
          "internalType": "uint256",
          "name": "serviceId",
          "type": "uint256"
        },
        {
          "indexed": true,
          "internalType": "address",
          "name": "client",
          "type": "address"
        }
      ],
      "name": "OrderCreated",
      "type": "event"
    },
    {
      "anonymous": false,
      "inputs": [
        {
          "indexed": true,
          "internalType": "uint256",
          "name": "orderId",
          "type": "uint256"
        }
      ],
      "name": "OrderDisputed",
      "type": "event"
    },
    {
      "anonymous": false,
      "inputs": [
        {
          "indexed": false,
          "internalType": "address",
          "name": "account",
          "type": "address"
        }
      ],
      "name": "Paused",
      "type": "event"
    },
    {
      "anonymous": false,
      "inputs": [
        {
          "indexed": true,
          "internalType": "bytes32",
          "name": "role",
          "type": "bytes32"
        },
        {
          "indexed": true,
          "internalType": "bytes32",
          "name": "previousAdminRole",
          "type": "bytes32"
        },
        {
          "indexed": true,
          "internalType": "bytes32",
          "name": "newAdminRole",
          "type": "bytes32"
        }
      ],
      "name": "RoleAdminChanged",
      "type": "event"
    },
    {
      "anonymous": false,
      "inputs": [
        {
          "indexed": true,
          "internalType": "bytes32",
          "name": "role",
          "type": "bytes32"
        },
        {
          "indexed": true,
          "internalType": "address",
          "name": "account",
          "type": "address"
        },
        {
          "indexed": true,
          "internalType": "address",
          "name": "sender",
          "type": "address"
        }
      ],
      "name": "RoleGranted",
      "type": "event"
    },
    {
      "anonymous": false,
      "inputs": [
        {
          "indexed": true,
          "internalType": "bytes32",
          "name": "role",
          "type": "bytes32"
        },
        {
          "indexed": true,
          "internalType": "address",
          "name": "account",
          "type": "address"
        },
        {
          "indexed": true,
          "internalType": "address",
          "name": "sender",
          "type": "address"
        }
      ],
      "name": "RoleRevoked",
      "type": "event"
    },
    {
      "anonymous": false,
      "inputs": [
        {
          "indexed": true,
          "internalType": "uint256",
          "name": "serviceId",
          "type": "uint256"
        },
        {
          "indexed": true,
          "internalType": "address",
          "name": "provider",
          "type": "address"
        }
      ],
      "name": "ServiceCreated",
      "type": "event"
    },
    {
      "anonymous": false,
      "inputs": [
        {
          "indexed": true,
          "internalType": "uint256",
          "name": "serviceId",
          "type": "uint256"
        },
        {
          "indexed": false,
          "internalType": "enum P2PMarketplace.ServiceStatus",
          "name": "status",
          "type": "uint8"
        }
      ],
      "name": "ServiceStatusChanged",
      "type": "event"
    },
    {
      "anonymous": false,
      "inputs": [
        {
          "indexed": true,
          "internalType": "uint256",
          "name": "serviceId",
          "type": "uint256"
        }
      ],
      "name": "ServiceUpdated",
      "type": "event"
    },
    {
      "anonymous": false,
      "inputs": [
        {
          "indexed": false,
          "internalType": "address",
          "name": "account",
          "type": "address"
        }
      ],
      "name": "Unpaused",
      "type": "event"
    },
    {
      "inputs": [],
      "name": "ADMIN_ROLE",
      "outputs": [
        {
          "internalType": "bytes32",
          "name": "",
          "type": "bytes32"
        }
      ],
      "stateMutability": "view",
      "type": "function"
    },
    {
      "inputs": [],
      "name": "DEFAULT_ADMIN_ROLE",
      "outputs": [
        {
          "internalType": "bytes32",
          "name": "",
          "type": "bytes32"
        }
      ],
      "stateMutability": "view",
      "type": "function"
    },
    {
      "inputs": [],
      "name": "FEE_MANAGER_ROLE",
      "outputs": [
        {
          "internalType": "bytes32",
          "name": "",
          "type": "bytes32"
        }
      ],
      "stateMutability": "view",
      "type": "function"
    },
    {
      "inputs": [
        {
          "internalType": "uint256",
          "name": "orderId",
          "type": "uint256"
        }
      ],
      "name": "acceptOrder",
      "outputs": [],
      "stateMutability": "nonpayable",
      "type": "function"
    },
    {
      "inputs": [
        {
          "internalType": "uint256",
          "name": "orderId",
          "type": "uint256"
        }
      ],
      "name": "cancelOrder",
      "outputs": [],
      "stateMutability": "nonpayable",
      "type": "function"
    },
    {
      "inputs": [
        {
          "internalType": "uint256",
          "name": "serviceId",
          "type": "uint256"
        },
        {
          "internalType": "enum P2PMarketplace.ServiceStatus",
          "name": "status",
          "type": "uint8"
        }
      ],
      "name": "changeServiceStatus",
      "outputs": [],
      "stateMutability": "nonpayable",
      "type": "function"
    },
    {
      "inputs": [
        {
          "internalType": "address",
          "name": "",
          "type": "address"
        },
        {
          "internalType": "uint256",
          "name": "",
          "type": "uint256"
        }
      ],
      "name": "clientOrders",
      "outputs": [
        {
          "internalType": "uint256",
          "name": "",
          "type": "uint256"
        }
      ],
      "stateMutability": "view",
      "type": "function"
    },
    {
      "inputs": [
        {
          "internalType": "uint256",
          "name": "orderId",
          "type": "uint256"
        }
      ],
      "name": "completeOrder",
      "outputs": [],
      "stateMutability": "nonpayable",
      "type": "function"
    },
    {
      "inputs": [
        {
          "internalType": "uint256",
          "name": "serviceId",
          "type": "uint256"
        },
        {
          "internalType": "uint256",
          "name": "numHours",
          "type": "uint256"
        },
        {
          "internalType": "string",
          "name": "details",
          "type": "string"
        }
      ],
      "name": "createOrder",
      "outputs": [],
      "stateMutability": "nonpayable",
      "type": "function"
    },
    {
      "inputs": [
        {
          "internalType": "string",
          "name": "title",
          "type": "string"
        },
        {
          "internalType": "string",
          "name": "description",
          "type": "string"
        },
        {
          "internalType": "uint256",
          "name": "pricePerHour",
          "type": "uint256"
        },
        {
          "internalType": "uint256[]",
          "name": "skillIds",
          "type": "uint256[]"
        }
      ],
      "name": "createService",
      "outputs": [],
      "stateMutability": "nonpayable",
      "type": "function"
    },
    {
      "inputs": [
        {
          "internalType": "uint256",
          "name": "orderId",
          "type": "uint256"
        }
      ],
      "name": "disputeOrder",
      "outputs": [],
      "stateMutability": "nonpayable",
      "type": "function"
    },
    {
      "inputs": [],
      "name": "feeCollector",
      "outputs": [
        {
          "internalType": "address",
          "name": "",
          "type": "address"
        }
      ],
      "stateMutability": "view",
      "type": "function"
    },
    {
      "inputs": [
        {
          "internalType": "address",
          "name": "client",
          "type": "address"
        }
      ],
      "name": "getClientOrders",
      "outputs": [
        {
          "internalType": "uint256[]",
          "name": "",
          "type": "uint256[]"
        }
      ],
      "stateMutability": "view",
      "type": "function"
    },
    {
      "inputs": [
        {
          "internalType": "address",
          "name": "provider",
          "type": "address"
        }
      ],
      "name": "getProviderOrders",
      "outputs": [
        {
          "internalType": "uint256[]",
          "name": "",
          "type": "uint256[]"
        }
      ],
      "stateMutability": "view",
      "type": "function"
    },
    {
      "inputs": [
        {
          "internalType": "address",
          "name": "provider",
          "type": "address"
        }
      ],
      "name": "getProviderServices",
      "outputs": [
        {
          "internalType": "uint256[]",
          "name": "",
          "type": "uint256[]"
        }
      ],
      "stateMutability": "view",
      "type": "function"
    },
    {
      "inputs": [
        {
          "internalType": "bytes32",
          "name": "role",
          "type": "bytes32"
        }
      ],
      "name": "getRoleAdmin",
      "outputs": [
        {
          "internalType": "bytes32",
          "name": "",
          "type": "bytes32"
        }
      ],
      "stateMutability": "view",
      "type": "function"
    },
    {
      "inputs": [
        {
          "internalType": "bytes32",
          "name": "role",
          "type": "bytes32"
        },
        {
          "internalType": "address",
          "name": "account",
          "type": "address"
        }
      ],
      "name": "grantRole",
      "outputs": [],
      "stateMutability": "nonpayable",
      "type": "function"
    },
    {
      "inputs": [
        {
          "internalType": "bytes32",
          "name": "role",
          "type": "bytes32"
        },
        {
          "internalType": "address",
          "name": "account",
          "type": "address"
        }
      ],
      "name": "hasRole",
      "outputs": [
        {
          "internalType": "bool",
          "name": "",
          "type": "bool"
        }
      ],
      "stateMutability": "view",
      "type": "function"
    },
    {
      "inputs": [],
      "name": "krmTokenAddress",
      "outputs": [
        {
          "internalType": "address",
          "name": "",
          "type": "address"
        }
      ],
      "stateMutability": "view",
      "type": "function"
    },
    {
      "inputs": [
        {
          "internalType": "uint256",
          "name": "",
          "type": "uint256"
        }
      ],
      "name": "orders",
      "outputs": [
        {
          "internalType": "uint256",
          "name": "id",
          "type": "uint256"
        },
        {
          "internalType": "uint256",
          "name": "serviceId",
          "type": "uint256"
        },
        {
          "internalType": "address",
          "name": "client",
          "type": "address"
        },
        {
          "internalType": "address",
          "name": "provider",
          "type": "address"
        },
        {
          "internalType": "uint256",
          "name": "totalPrice",
          "type": "uint256"
        },
        {
          "internalType": "uint256",
          "name": "numHours",
          "type": "uint256"
        },
        {
          "internalType": "string",
          "name": "details",
          "type": "string"
        },
        {
          "internalType": "enum P2PMarketplace.OrderStatus",
          "name": "status",
          "type": "uint8"
        },
        {
          "internalType": "uint256",
          "name": "createdAt",
          "type": "uint256"
        },
        {
          "internalType": "uint256",
          "name": "completedAt",
          "type": "uint256"
        }
      ],
      "stateMutability": "view",
      "type": "function"
    },
    {
      "inputs": [],
      "name": "pause",
      "outputs": [],
      "stateMutability": "nonpayable",
      "type": "function"
    },
    {
      "inputs": [],
      "name": "paused",
      "outputs": [
        {
          "internalType": "bool",
          "name": "",
          "type": "bool"
        }
      ],
      "stateMutability": "view",
      "type": "function"
    },
    {
      "inputs": [],
      "name": "platformFee",
      "outputs": [
        {
          "internalType": "uint256",
          "name": "",
          "type": "uint256"
        }
      ],
      "stateMutability": "view",
      "type": "function"
    },
    {
      "inputs": [
        {
          "internalType": "address",
          "name": "",
          "type": "address"
        },
        {
          "internalType": "uint256",
          "name": "",
          "type": "uint256"
        }
      ],
      "name": "providerOrders",
      "outputs": [
        {
          "internalType": "uint256",
          "name": "",
          "type": "uint256"
        }
      ],
      "stateMutability": "view",
      "type": "function"
    },
    {
      "inputs": [
        {
          "internalType": "address",
          "name": "",
          "type": "address"
        },
        {
          "internalType": "uint256",
          "name": "",
          "type": "uint256"
        }
      ],
      "name": "providerServices",
      "outputs": [
        {
          "internalType": "uint256",
          "name": "",
          "type": "uint256"
        }
      ],
      "stateMutability": "view",
      "type": "function"
    },
    {
      "inputs": [
        {
          "internalType": "bytes32",
          "name": "role",
          "type": "bytes32"
        },
        {
          "internalType": "address",
          "name": "account",
          "type": "address"
        }
      ],
      "name": "renounceRole",
      "outputs": [],
      "stateMutability": "nonpayable",
      "type": "function"
    },
    {
      "inputs": [
        {
          "internalType": "bytes32",
          "name": "role",
          "type": "bytes32"
        },
        {
          "internalType": "address",
          "name": "account",
          "type": "address"
        }
      ],
      "name": "revokeRole",
      "outputs": [],
      "stateMutability": "nonpayable",
      "type": "function"
    },
    {
      "inputs": [
        {
          "internalType": "uint256",
          "name": "",
          "type": "uint256"
        }
      ],
      "name": "services",
      "outputs": [
        {
          "internalType": "uint256",
          "name": "id",
          "type": "uint256"
        },
        {
          "internalType": "address",
          "name": "provider",
          "type": "address"
        },
        {
          "internalType": "string",
          "name": "title",
          "type": "string"
        },
        {
          "internalType": "string",
          "name": "description",
          "type": "string"
        },
        {
          "internalType": "uint256",
          "name": "pricePerHour",
          "type": "uint256"
        },
        {
          "internalType": "enum P2PMarketplace.ServiceStatus",
          "name": "status",
          "type": "uint8"
        },
        {
          "internalType": "uint256",
          "name": "createdAt",
          "type": "uint256"
        },
        {
          "internalType": "uint256",
          "name": "updatedAt",
          "type": "uint256"
        }
      ],
      "stateMutability": "view",
      "type": "function"
    },
    {
      "inputs": [
        {
          "internalType": "bytes4",
          "name": "interfaceId",
          "type": "bytes4"
        }
      ],
      "name": "supportsInterface",
      "outputs": [
        {
          "internalType": "bool",
          "name": "",
          "type": "bool"
        }
      ],
      "stateMutability": "view",
      "type": "function"
    },
    {
      "inputs": [],
      "name": "unpause",
      "outputs": [],
      "stateMutability": "nonpayable",
      "type": "function"
    },
    {
      "inputs": [
        {
          "internalType": "address",
          "name": "newFeeCollector",
          "type": "address"
        }
      ],
      "name": "updateFeeCollector",
      "outputs": [],
      "stateMutability": "nonpayable",
      "type": "function"
    },
    {
      "inputs": [
        {
          "internalType": "uint256",
          "name": "newFee",
          "type": "uint256"
        }
      ],
      "name": "updatePlatformFee",
      "outputs": [],
      "stateMutability": "nonpayable",
      "type": "function"
    },
    {
      "inputs": [
        {
          "internalType": "uint256",
          "name": "serviceId",
          "type": "uint256"
        },
        {
          "internalType": "string",
          "name": "title",
          "type": "string"
        },
        {
          "internalType": "string",
          "name": "description",
          "type": "string"
        },
        {
          "internalType": "uint256",
          "name": "pricePerHour",
          "type": "uint256"
        },
        {
          "internalType": "uint256[]",
          "name": "skillIds",
          "type": "uint256[]"
        }
      ],
      "name": "updateService",
      "outputs": [],
      "stateMutability": "nonpayable",
      "type": "function"
    }
  ],
  "bytecode": "0x6080604052606460045534801561001557600080fd5b506040516148d33803806148d3833981810160405281019061003791906103bd565b6000600160006101000a81548160ff021916908315150217905550600073ffffffffffffffffffffffffffffffffffffffff168273ffffffffffffffffffffffffffffffffffffffff16036100c1576040517f08c379a00000000000000000000000000000000000000000000000000000000081526004016100b890610480565b60405180910390fd5b600073ffffffffffffffffffffffffffffffffffffffff168173ffffffffffffffffffffffffffffffffffffffff1603610130576040517f08c379a000000000000000000000000000000000000000000000000000000000815260040161012790610512565b60405180910390fd5b6101436000801b336101fc60201b60201c565b6101737f6c0757dc3e6b28b2580c03fd9e96c274acf4f99d91fbec9b418fa1d70604ff1c336101fc60201b60201c565b81600560006101000a81548173ffffffffffffffffffffffffffffffffffffffff021916908373ffffffffffffffffffffffffffffffffffffffff16021790555080600660006101000a81548173ffffffffffffffffffffffffffffffffffffffff021916908373ffffffffffffffffffffffffffffffffffffffff1602179055505050610532565b61020c82826102e860201b60201c565b6102e457600160008084815260200190815260200160002060000160008373ffffffffffffffffffffffffffffffffffffffff1673ffffffffffffffffffffffffffffffffffffffff16815260200190815260200160002060006101000a81548160ff02191690831515021790555061028961035260201b60201c565b73ffffffffffffffffffffffffffffffffffffffff168173ffffffffffffffffffffffffffffffffffffffff16837f2f8788117e7eff1d82e926ec794901d17c78024a50270940304540a733656f0d60405160405180910390a45b5050565b600080600084815260200190815260200160002060000160008373ffffffffffffffffffffffffffffffffffffffff1673ffffffffffffffffffffffffffffffffffffffff16815260200190815260200160002060009054906101000a900460ff16905092915050565b600033905090565b600080fd5b600073ffffffffffffffffffffffffffffffffffffffff82169050919050565b600061038a8261035f565b9050919050565b61039a8161037f565b81146103a557600080fd5b50565b6000815190506103b781610391565b92915050565b600080604083850312156103d4576103d361035a565b5b60006103e2858286016103a8565b92505060206103f3858286016103a8565b9150509250929050565b600082825260208201905092915050565b7f46656520636f6c6c6563746f722063616e6e6f74206265207a65726f2061646460008201527f7265737300000000000000000000000000000000000000000000000000000000602082015250565b600061046a6024836103fd565b91506104758261040e565b604082019050919050565b600060208201905081810360008301526104998161045d565b9050919050565b7f4b524d20746f6b656e20616464726573732063616e6e6f74206265207a65726f60008201527f2061646472657373000000000000000000000000000000000000000000000000602082015250565b60006104fc6028836103fd565b9150610507826104a0565b604082019050919050565b6000602082019050818103600083015261052b816104ef565b9050919050565b614392806105416000396000f3fe608060405234801561001057600080fd5b50600436106101fb5760003560e01c806375b238fc1161011a578063a85c38ef116100ad578063c22c4f431161007c578063c22c4f43146105c9578063c415b95c14610600578063d2c35ce81461061e578063d547741f1461063a578063ef18e9ed14610656576101fb565b8063a85c38ef1461053c578063aa0b598814610575578063ae3a93e114610591578063b6adaaff146105ad576101fb565b80639747ac5f116100e95780639747ac5f146104b45780639c30ce4d146104e4578063a09970b214610502578063a217fddf1461051e576101fb565b806375b238fc1461042c5780638456cb591461044a578063911eeb911461045457806391d1485414610484576101fb565b806336568abe116101925780634e585810116101615780634e585810146103a6578063514fcac7146103d65780635c975abb146103f25780636061f75414610410576101fb565b806336568abe146103345780633f4ba83a1461035057806344f5ffdf1461035a578063480b22df14610376576101fb565b80632615457b116101ce5780632615457b146102ae57806326232a2e146102de5780632f2ff15d146102fc57806333b089fb14610318576101fb565b806301ffc9a71461020057806303731b9e1461023057806305db2f4114610260578063248a9ca31461027e575b600080fd5b61021a60048036038101906102159190612b93565b610672565b6040516102279190612bdb565b60405180910390f35b61024a60048036038101906102459190612c8a565b6106ec565b6040516102579190612cd9565b60405180910390f35b61026861071d565b6040516102759190612d0d565b60405180910390f35b61029860048036038101906102939190612d54565b610741565b6040516102a59190612d0d565b60405180910390f35b6102c860048036038101906102c39190612d81565b610760565b6040516102d59190612e6c565b60405180910390f35b6102e66107f7565b6040516102f39190612cd9565b60405180910390f35b61031660048036038101906103119190612e8e565b6107fd565b005b610332600480360381019061032d9190612f89565b61081e565b005b61034e60048036038101906103499190612e8e565b610bac565b005b610358610c2f565b005b610374600480360381019061036f9190613052565b610c64565b005b610390600480360381019061038b9190612d81565b610e9b565b60405161039d9190612e6c565b60405180910390f35b6103c060048036038101906103bb9190612c8a565b610f32565b6040516103cd9190612cd9565b60405180910390f35b6103f060048036038101906103eb919061312e565b610f63565b005b6103fa611184565b6040516104079190612bdb565b60405180910390f35b61042a6004803603810190610425919061315b565b61119b565b005b610434611687565b6040516104419190612d0d565b60405180910390f35b6104526116ab565b005b61046e60048036038101906104699190612c8a565b6116e0565b60405161047b9190612cd9565b60405180910390f35b61049e60048036038101906104999190612e8e565b611711565b6040516104ab9190612bdb565b60405180910390f35b6104ce60048036038101906104c99190612d81565b61177b565b6040516104db9190612e6c565b60405180910390f35b6104ec611812565b6040516104f991906131de565b60405180910390f35b61051c6004803603810190610517919061312e565b611838565b005b610526611a5b565b6040516105339190612d0d565b60405180910390f35b6105566004803603810190610551919061312e565b611a62565b60405161056c9a99989796959493929190613300565b60405180910390f35b61058f600480360381019061058a919061312e565b611b8b565b005b6105ab60048036038101906105a691906133c8565b611c3c565b005b6105c760048036038101906105c2919061312e565b611e08565b005b6105e360048036038101906105de919061312e565b611f98565b6040516105f7989796959493929190613450565b60405180910390f35b61060861211d565b60405161061591906131de565b60405180910390f35b61063860048036038101906106339190612d81565b612143565b005b610654600480360381019061064f9190612e8e565b612221565b005b610670600480360381019061066b919061312e565b612242565b005b60007f7965db0b000000000000000000000000000000000000000000000000000000007bffffffffffffffffffffffffffffffffffffffffffffffffffffffff1916827bffffffffffffffffffffffffffffffffffffffffffffffffffffffff191614806106e557506106e4826123c9565b5b9050919050565b6008602052816000526040600020818154811061070857600080fd5b90600052602060002001600091509150505481565b7f6c0757dc3e6b28b2580c03fd9e96c274acf4f99d91fbec9b418fa1d70604ff1c81565b6000806000838152602001908152602001600020600101549050919050565b6060600b60008373ffffffffffffffffffffffffffffffffffffffff1673ffffffffffffffffffffffffffffffffffffffff1681526020019081526020016000208054806020026020016040519081016040528092919081815260200182805480156107eb57602002820191906000526020600020905b8154815260200190600101908083116107d7575b50505050509050919050565b60045481565b61080682610741565b61080f81612433565b6108198383612447565b505050565b610826612527565b6000878790501161086c576040517f08c379a000000000000000000000000000000000000000000000000000000000815260040161086390613528565b60405180910390fd5b600083116108af576040517f08c379a00000000000000000000000000000000000000000000000000000000081526004016108a690613594565b60405180910390fd5b60006108bb6002612571565b90506108c7600261257f565b6040518061012001604052808281526020013373ffffffffffffffffffffffffffffffffffffffff16815260200189898080601f016020809104026020016040519081016040528093929190818152602001838380828437600081840152601f19601f82011690508083019250505050505050815260200187878080601f016020809104026020016040519081016040528093929190818152602001838380828437600081840152601f19601f820116905080830192505050505050508152602001858152602001848480806020026020016040519081016040528093929190818152602001838360200280828437600081840152601f19601f820116905080830192505050505050508152602001600060028111156109ea576109e9613289565b5b815260200142815260200142815250600760008381526020019081526020016000206000820151816000015560208201518160010160006101000a81548173ffffffffffffffffffffffffffffffffffffffff021916908373ffffffffffffffffffffffffffffffffffffffff1602179055506040820151816002019081610a7291906137ef565b506060820151816003019081610a8891906137ef565b506080820151816004015560a0820151816005019080519060200190610aaf929190612a7a565b5060c08201518160060160006101000a81548160ff02191690836002811115610adb57610ada613289565b5b021790555060e082015181600701556101008201518160080155905050600860003373ffffffffffffffffffffffffffffffffffffffff1673ffffffffffffffffffffffffffffffffffffffff1681526020019081526020016000208190806001815401808255809150506001900390600052602060002001600090919091909150553373ffffffffffffffffffffffffffffffffffffffff16817fbd35e14c4b1c0b9dd372599300bd4ffabf5274ccc48b22f93c8199d7dfb6ab2360405160405180910390a35050505050505050565b610bb4612595565b73ffffffffffffffffffffffffffffffffffffffff168173ffffffffffffffffffffffffffffffffffffffff1614610c21576040517f08c379a0000000000000000000000000000000000000000000000000000000008152600401610c1890613933565b60405180910390fd5b610c2b828261259d565b5050565b7fa49807205ce4d355092ef5a8a18f56e8913cf4a201fbe287825b095693c21775610c5981612433565b610c6161267e565b50565b610c6c612527565b6000600760008a815260200190815260200160002090503373ffffffffffffffffffffffffffffffffffffffff168160010160009054906101000a900473ffffffffffffffffffffffffffffffffffffffff1673ffffffffffffffffffffffffffffffffffffffff1614610d15576040517f08c379a0000000000000000000000000000000000000000000000000000000008152600401610d0c9061399f565b60405180910390fd5b600280811115610d2857610d27613289565b5b8160060160009054906101000a900460ff166002811115610d4c57610d4b613289565b5b03610d8c576040517f08c379a0000000000000000000000000000000000000000000000000000000008152600401610d8390613a0b565b60405180910390fd5b60008888905011610dd2576040517f08c379a0000000000000000000000000000000000000000000000000000000008152600401610dc990613528565b60405180910390fd5b60008411610e15576040517f08c379a0000000000000000000000000000000000000000000000000000000008152600401610e0c90613594565b60405180910390fd5b8787826002019182610e28929190613a36565b508585826003019182610e3c929190613a36565b508381600401819055508282826005019190610e59929190612ac7565b50428160080181905550887fc2ca9dc9756fe247d63eccf7fd58ba998796794fc9257ad195d188766c0bf96160405160405180910390a2505050505050505050565b6060600a60008373ffffffffffffffffffffffffffffffffffffffff1673ffffffffffffffffffffffffffffffffffffffff168152602001908152602001600020805480602002602001604051908101604052809291908181526020018280548015610f2657602002820191906000526020600020905b815481526020019060010190808311610f12575b50505050509050919050565b600b6020528160005260406000208181548110610f4e57600080fd5b90600052602060002001600091509150505481565b610f6b612527565b60006009600083815260200190815260200160002090503373ffffffffffffffffffffffffffffffffffffffff168160020160009054906101000a900473ffffffffffffffffffffffffffffffffffffffff1673ffffffffffffffffffffffffffffffffffffffff16148061102f57503373ffffffffffffffffffffffffffffffffffffffff168160030160009054906101000a900473ffffffffffffffffffffffffffffffffffffffff1673ffffffffffffffffffffffffffffffffffffffff16145b61106e576040517f08c379a000000000000000000000000000000000000000000000000000000000815260040161106590613b52565b60405180910390fd5b6000600481111561108257611081613289565b5b8160070160009054906101000a900460ff1660048111156110a6576110a5613289565b5b14806110e75750600160048111156110c1576110c0613289565b5b8160070160009054906101000a900460ff1660048111156110e5576110e4613289565b5b145b611126576040517f08c379a000000000000000000000000000000000000000000000000000000000815260040161111d90613bbe565b60405180910390fd5b60038160070160006101000a81548160ff0219169083600481111561114e5761114d613289565b5b0217905550817f61b9399f2f0f32ca39ce8d7be32caed5ec22fe07a6daba3a467ed479ec60658260405160405180910390a25050565b6000600160009054906101000a900460ff16905090565b6111a3612527565b6000600760008681526020019081526020016000209050600060028111156111ce576111cd613289565b5b8160060160009054906101000a900460ff1660028111156111f2576111f1613289565b5b14611232576040517f08c379a000000000000000000000000000000000000000000000000000000000815260040161122990613c2a565b60405180910390fd5b3373ffffffffffffffffffffffffffffffffffffffff168160010160009054906101000a900473ffffffffffffffffffffffffffffffffffffffff1673ffffffffffffffffffffffffffffffffffffffff16036112c4576040517f08c379a00000000000000000000000000000000000000000000000000000000081526004016112bb90613c96565b60405180910390fd5b60008411611307576040517f08c379a00000000000000000000000000000000000000000000000000000000081526004016112fe90613d02565b60405180910390fd5b60008482600401546113199190613d51565b905060006113276003612571565b9050611333600361257f565b6040518061014001604052808281526020018881526020013373ffffffffffffffffffffffffffffffffffffffff1681526020018460010160009054906101000a900473ffffffffffffffffffffffffffffffffffffffff1673ffffffffffffffffffffffffffffffffffffffff16815260200183815260200187815260200186868080601f016020809104026020016040519081016040528093929190818152602001838380828437600081840152601f19601f8201169050808301925050505050505081526020016000600481111561141157611410613289565b5b8152602001428152602001600081525060096000838152602001908152602001600020600082015181600001556020820151816001015560408201518160020160006101000a81548173ffffffffffffffffffffffffffffffffffffffff021916908373ffffffffffffffffffffffffffffffffffffffff16021790555060608201518160030160006101000a81548173ffffffffffffffffffffffffffffffffffffffff021916908373ffffffffffffffffffffffffffffffffffffffff1602179055506080820151816004015560a0820151816005015560c08201518160060190816114ff91906137ef565b5060e08201518160070160006101000a81548160ff0219169083600481111561152b5761152a613289565b5b021790555061010082015181600801556101208201518160090155905050600a60003373ffffffffffffffffffffffffffffffffffffffff1673ffffffffffffffffffffffffffffffffffffffff168152602001908152602001600020819080600181540180825580915050600190039060005260206000200160009091909190915055600b60008460010160009054906101000a900473ffffffffffffffffffffffffffffffffffffffff1673ffffffffffffffffffffffffffffffffffffffff1673ffffffffffffffffffffffffffffffffffffffff1681526020019081526020016000208190806001815401808255809150506001900390600052602060002001600090919091909150553373ffffffffffffffffffffffffffffffffffffffff1687827f049ba4138a42e7ec9accc4e9139592fa0f1b7a9e4e1aefe2848fd13394dad8dc60405160405180910390a450505050505050565b7fa49807205ce4d355092ef5a8a18f56e8913cf4a201fbe287825b095693c2177581565b7fa49807205ce4d355092ef5a8a18f56e8913cf4a201fbe287825b095693c217756116d581612433565b6116dd6126e1565b50565b600a60205281600052604060002081815481106116fc57600080fd5b90600052602060002001600091509150505481565b600080600084815260200190815260200160002060000160008373ffffffffffffffffffffffffffffffffffffffff1673ffffffffffffffffffffffffffffffffffffffff16815260200190815260200160002060009054906101000a900460ff16905092915050565b6060600860008373ffffffffffffffffffffffffffffffffffffffff1673ffffffffffffffffffffffffffffffffffffffff16815260200190815260200160002080548060200260200160405190810160405280929190818152602001828054801561180657602002820191906000526020600020905b8154815260200190600101908083116117f2575b50505050509050919050565b600660009054906101000a900473ffffffffffffffffffffffffffffffffffffffff1681565b611840612527565b60006009600083815260200190815260200160002090503373ffffffffffffffffffffffffffffffffffffffff168160020160009054906101000a900473ffffffffffffffffffffffffffffffffffffffff1673ffffffffffffffffffffffffffffffffffffffff16148061190457503373ffffffffffffffffffffffffffffffffffffffff168160030160009054906101000a900473ffffffffffffffffffffffffffffffffffffffff1673ffffffffffffffffffffffffffffffffffffffff16145b611943576040517f08c379a000000000000000000000000000000000000000000000000000000000815260040161193a90613b52565b60405180910390fd5b6003600481111561195757611956613289565b5b8160070160009054906101000a900460ff16600481111561197b5761197a613289565b5b141580156119be575060048081111561199757611996613289565b5b8160070160009054906101000a900460ff1660048111156119bb576119ba613289565b5b14155b6119fd576040517f08c379a00000000000000000000000000000000000000000000000000000000081526004016119f490613ddf565b60405180910390fd5b60048160070160006101000a81548160ff02191690836004811115611a2557611a24613289565b5b0217905550817fcc71d13ec179647ba6991025098e2d3f0dc223962c4052028bfb067e394e22b060405160405180910390a25050565b6000801b81565b60096020528060005260406000206000915090508060000154908060010154908060020160009054906101000a900473ffffffffffffffffffffffffffffffffffffffff16908060030160009054906101000a900473ffffffffffffffffffffffffffffffffffffffff1690806004015490806005015490806006018054611ae990613612565b80601f0160208091040260200160405190810160405280929190818152602001828054611b1590613612565b8015611b625780601f10611b3757610100808354040283529160200191611b62565b820191906000526020600020905b815481529060010190602001808311611b4557829003601f168201915b5050505050908060070160009054906101000a900460ff1690806008015490806009015490508a565b7f6c0757dc3e6b28b2580c03fd9e96c274acf4f99d91fbec9b418fa1d70604ff1c611bb581612433565b6103e8821115611bfa576040517f08c379a0000000000000000000000000000000000000000000000000000000008152600401611bf190613e4b565b60405180910390fd5b816004819055507f8c4d35e54a3f2ef1134138fd8ea3daee6a3c89e10d2665996babdf70261e2c7682604051611c309190612cd9565b60405180910390a15050565b611c44612527565b60006007600084815260200190815260200160002090503373ffffffffffffffffffffffffffffffffffffffff168160010160009054906101000a900473ffffffffffffffffffffffffffffffffffffffff1673ffffffffffffffffffffffffffffffffffffffff1614611ced576040517f08c379a0000000000000000000000000000000000000000000000000000000008152600401611ce49061399f565b60405180910390fd5b600280811115611d0057611cff613289565b5b8160060160009054906101000a900460ff166002811115611d2457611d23613289565b5b141580611d575750611d567fa49807205ce4d355092ef5a8a18f56e8913cf4a201fbe287825b095693c2177533611711565b5b611d96576040517f08c379a0000000000000000000000000000000000000000000000000000000008152600401611d8d90613a0b565b60405180910390fd5b818160060160006101000a81548160ff02191690836002811115611dbd57611dbc613289565b5b0217905550428160080181905550827f73470480f13514e35624ac2c306df51074c12280b3281f2813826c7783e1153e83604051611dfb9190613e6b565b60405180910390a2505050565b611e10612527565b60006009600083815260200190815260200160002090503373ffffffffffffffffffffffffffffffffffffffff168160020160009054906101000a900473ffffffffffffffffffffffffffffffffffffffff1673ffffffffffffffffffffffffffffffffffffffff1614611eb9576040517f08c379a0000000000000000000000000000000000000000000000000000000008152600401611eb090613ed2565b60405180910390fd5b60016004811115611ecd57611ecc613289565b5b8160070160009054906101000a900460ff166004811115611ef157611ef0613289565b5b14611f31576040517f08c379a0000000000000000000000000000000000000000000000000000000008152600401611f2890613f3e565b60405180910390fd5b60028160070160006101000a81548160ff02191690836004811115611f5957611f58613289565b5b0217905550428160090181905550817f02a7d4d9472af7118644884b9a0ee443540c0027e938dd0aa35be8ecbe946c0a60405160405180910390a25050565b60076020528060005260406000206000915090508060000154908060010160009054906101000a900473ffffffffffffffffffffffffffffffffffffffff1690806002018054611fe790613612565b80601f016020809104026020016040519081016040528092919081815260200182805461201390613612565b80156120605780601f1061203557610100808354040283529160200191612060565b820191906000526020600020905b81548152906001019060200180831161204357829003601f168201915b50505050509080600301805461207590613612565b80601f01602080910402602001604051908101604052809291908181526020018280546120a190613612565b80156120ee5780601f106120c3576101008083540402835291602001916120ee565b820191906000526020600020905b8154815290600101906020018083116120d157829003601f168201915b5050505050908060040154908060060160009054906101000a900460ff16908060070154908060080154905088565b600560009054906101000a900473ffffffffffffffffffffffffffffffffffffffff1681565b7fa49807205ce4d355092ef5a8a18f56e8913cf4a201fbe287825b095693c2177561216d81612433565b600073ffffffffffffffffffffffffffffffffffffffff168273ffffffffffffffffffffffffffffffffffffffff16036121dc576040517f08c379a00000000000000000000000000000000000000000000000000000000081526004016121d390613fd0565b60405180910390fd5b81600560006101000a81548173ffffffffffffffffffffffffffffffffffffffff021916908373ffffffffffffffffffffffffffffffffffffffff1602179055505050565b61222a82610741565b61223381612433565b61223d838361259d565b505050565b61224a612527565b60006009600083815260200190815260200160002090503373ffffffffffffffffffffffffffffffffffffffff168160030160009054906101000a900473ffffffffffffffffffffffffffffffffffffffff1673ffffffffffffffffffffffffffffffffffffffff16146122f3576040517f08c379a00000000000000000000000000000000000000000000000000000000081526004016122ea9061399f565b60405180910390fd5b6000600481111561230757612306613289565b5b8160070160009054906101000a900460ff16600481111561232b5761232a613289565b5b1461236b576040517f08c379a00000000000000000000000000000000000000000000000000000000081526004016123629061403c565b60405180910390fd5b60018160070160006101000a81548160ff0219169083600481111561239357612392613289565b5b0217905550817f262f7ad1922bdcf27203585ef3238620589ce6f74721d45bff6897a19e4f94a160405160405180910390a25050565b60007f01ffc9a7000000000000000000000000000000000000000000000000000000007bffffffffffffffffffffffffffffffffffffffffffffffffffffffff1916827bffffffffffffffffffffffffffffffffffffffffffffffffffffffff1916149050919050565b6124448161243f612595565b612743565b50565b6124518282611711565b61252357600160008084815260200190815260200160002060000160008373ffffffffffffffffffffffffffffffffffffffff1673ffffffffffffffffffffffffffffffffffffffff16815260200190815260200160002060006101000a81548160ff0219169083151502179055506124c8612595565b73ffffffffffffffffffffffffffffffffffffffff168173ffffffffffffffffffffffffffffffffffffffff16837f2f8788117e7eff1d82e926ec794901d17c78024a50270940304540a733656f0d60405160405180910390a45b5050565b61252f611184565b1561256f576040517f08c379a0000000000000000000000000000000000000000000000000000000008152600401612566906140a8565b60405180910390fd5b565b600081600001549050919050565b6001816000016000828254019250508190555050565b600033905090565b6125a78282611711565b1561267a57600080600084815260200190815260200160002060000160008373ffffffffffffffffffffffffffffffffffffffff1673ffffffffffffffffffffffffffffffffffffffff16815260200190815260200160002060006101000a81548160ff02191690831515021790555061261f612595565b73ffffffffffffffffffffffffffffffffffffffff168173ffffffffffffffffffffffffffffffffffffffff16837ff6391f5c32d9c69d2a47ea670b442974b53935d1edc7fd64eb21e047a839171b60405160405180910390a45b5050565b6126866127c8565b6000600160006101000a81548160ff0219169083151502179055507f5db9ee0a495bf2e6ff9c91a7834c1ba4fdd244a5e8aa4e537bd38aeae4b073aa6126ca612595565b6040516126d791906131de565b60405180910390a1565b6126e9612527565b60018060006101000a81548160ff0219169083151502179055507f62e78cea01bee320cd4e420270b5ea74000d11b0c9f74754ebdbfc544b05a25861272c612595565b60405161273991906131de565b60405180910390a1565b61274d8282611711565b6127c45761275a81612811565b6127688360001c602061283e565b60405160200161277992919061419c565b6040516020818303038152906040526040517f08c379a00000000000000000000000000000000000000000000000000000000081526004016127bb91906141d6565b60405180910390fd5b5050565b6127d0611184565b61280f576040517f08c379a000000000000000000000000000000000000000000000000000000000815260040161280690614244565b60405180910390fd5b565b60606128378273ffffffffffffffffffffffffffffffffffffffff16601460ff1661283e565b9050919050565b6060600060028360026128519190613d51565b61285b9190614264565b67ffffffffffffffff811115612874576128736135b4565b5b6040519080825280601f01601f1916602001820160405280156128a65781602001600182028036833780820191505090505b5090507f3000000000000000000000000000000000000000000000000000000000000000816000815181106128de576128dd614298565b5b60200101907effffffffffffffffffffffffffffffffffffffffffffffffffffffffffffff1916908160001a9053507f78000000000000000000000000000000000000000000000000000000000000008160018151811061294257612941614298565b5b60200101907effffffffffffffffffffffffffffffffffffffffffffffffffffffffffffff1916908160001a905350600060018460026129829190613d51565b61298c9190614264565b90505b6001811115612a2c577f3031323334353637383961626364656600000000000000000000000000000000600f8616601081106129ce576129cd614298565b5b1a60f81b8282815181106129e5576129e4614298565b5b60200101907effffffffffffffffffffffffffffffffffffffffffffffffffffffffffffff1916908160001a905350600485901c945080612a25906142c7565b905061298f565b5060008414612a70576040517f08c379a0000000000000000000000000000000000000000000000000000000008152600401612a679061433c565b60405180910390fd5b8091505092915050565b828054828255906000526020600020908101928215612ab6579160200282015b82811115612ab5578251825591602001919060010190612a9a565b5b509050612ac39190612b14565b5090565b828054828255906000526020600020908101928215612b03579160200282015b82811115612b02578235825591602001919060010190612ae7565b5b509050612b109190612b14565b5090565b5b80821115612b2d576000816000905550600101612b15565b5090565b600080fd5b600080fd5b60007fffffffff0000000000000000000000000000000000000000000000000000000082169050919050565b612b7081612b3b565b8114612b7b57600080fd5b50565b600081359050612b8d81612b67565b92915050565b600060208284031215612ba957612ba8612b31565b5b6000612bb784828501612b7e565b91505092915050565b60008115159050919050565b612bd581612bc0565b82525050565b6000602082019050612bf06000830184612bcc565b92915050565b600073ffffffffffffffffffffffffffffffffffffffff82169050919050565b6000612c2182612bf6565b9050919050565b612c3181612c16565b8114612c3c57600080fd5b50565b600081359050612c4e81612c28565b92915050565b6000819050919050565b612c6781612c54565b8114612c7257600080fd5b50565b600081359050612c8481612c5e565b92915050565b60008060408385031215612ca157612ca0612b31565b5b6000612caf85828601612c3f565b9250506020612cc085828601612c75565b9150509250929050565b612cd381612c54565b82525050565b6000602082019050612cee6000830184612cca565b92915050565b6000819050919050565b612d0781612cf4565b82525050565b6000602082019050612d226000830184612cfe565b92915050565b612d3181612cf4565b8114612d3c57600080fd5b50565b600081359050612d4e81612d28565b92915050565b600060208284031215612d6a57612d69612b31565b5b6000612d7884828501612d3f565b91505092915050565b600060208284031215612d9757612d96612b31565b5b6000612da584828501612c3f565b91505092915050565b600081519050919050565b600082825260208201905092915050565b6000819050602082019050919050565b612de381612c54565b82525050565b6000612df58383612dda565b60208301905092915050565b6000602082019050919050565b6000612e1982612dae565b612e238185612db9565b9350612e2e83612dca565b8060005b83811015612e5f578151612e468882612de9565b9750612e5183612e01565b925050600181019050612e32565b5085935050505092915050565b60006020820190508181036000830152612e868184612e0e565b905092915050565b60008060408385031215612ea557612ea4612b31565b5b6000612eb385828601612d3f565b9250506020612ec485828601612c3f565b9150509250929050565b600080fd5b600080fd5b600080fd5b60008083601f840112612ef357612ef2612ece565b5b8235905067ffffffffffffffff811115612f1057612f0f612ed3565b5b602083019150836001820283011115612f2c57612f2b612ed8565b5b9250929050565b60008083601f840112612f4957612f48612ece565b5b8235905067ffffffffffffffff811115612f6657612f65612ed3565b5b602083019150836020820283011115612f8257612f81612ed8565b5b9250929050565b60008060008060008060006080888a031215612fa857612fa7612b31565b5b600088013567ffffffffffffffff811115612fc657612fc5612b36565b5b612fd28a828b01612edd565b9750975050602088013567ffffffffffffffff811115612ff557612ff4612b36565b5b6130018a828b01612edd565b955095505060406130148a828b01612c75565b935050606088013567ffffffffffffffff81111561303557613034612b36565b5b6130418a828b01612f33565b925092505092959891949750929550565b60008060008060008060008060a0898b03121561307257613071612b31565b5b60006130808b828c01612c75565b985050602089013567ffffffffffffffff8111156130a1576130a0612b36565b5b6130ad8b828c01612edd565b9750975050604089013567ffffffffffffffff8111156130d0576130cf612b36565b5b6130dc8b828c01612edd565b955095505060606130ef8b828c01612c75565b935050608089013567ffffffffffffffff8111156131105761310f612b36565b5b61311c8b828c01612f33565b92509250509295985092959890939650565b60006020828403121561314457613143612b31565b5b600061315284828501612c75565b91505092915050565b6000806000806060858703121561317557613174612b31565b5b600061318387828801612c75565b945050602061319487828801612c75565b935050604085013567ffffffffffffffff8111156131b5576131b4612b36565b5b6131c187828801612edd565b925092505092959194509250565b6131d881612c16565b82525050565b60006020820190506131f360008301846131cf565b92915050565b600081519050919050565b600082825260208201905092915050565b60005b83811015613233578082015181840152602081019050613218565b60008484015250505050565b6000601f19601f8301169050919050565b600061325b826131f9565b6132658185613204565b9350613275818560208601613215565b61327e8161323f565b840191505092915050565b7f4e487b7100000000000000000000000000000000000000000000000000000000600052602160045260246000fd5b600581106132c9576132c8613289565b5b50565b60008190506132da826132b8565b919050565b60006132ea826132cc565b9050919050565b6132fa816132df565b82525050565b600061014082019050613316600083018d612cca565b613323602083018c612cca565b613330604083018b6131cf565b61333d606083018a6131cf565b61334a6080830189612cca565b61335760a0830188612cca565b81810360c08301526133698187613250565b905061337860e08301866132f1565b613386610100830185612cca565b613394610120830184612cca565b9b9a5050505050505050505050565b600381106133b057600080fd5b50565b6000813590506133c2816133a3565b92915050565b600080604083850312156133df576133de612b31565b5b60006133ed85828601612c75565b92505060206133fe858286016133b3565b9150509250929050565b6003811061341957613418613289565b5b50565b600081905061342a82613408565b919050565b600061343a8261341c565b9050919050565b61344a8161342f565b82525050565b600061010082019050613466600083018b612cca565b613473602083018a6131cf565b81810360408301526134858189613250565b905081810360608301526134998188613250565b90506134a86080830187612cca565b6134b560a0830186613441565b6134c260c0830185612cca565b6134cf60e0830184612cca565b9998505050505050505050565b7f5469746c652063616e6e6f7420626520656d7074790000000000000000000000600082015250565b6000613512601583613204565b915061351d826134dc565b602082019050919050565b6000602082019050818103600083015261354181613505565b9050919050565b7f5072696365206d7573742062652067726561746572207468616e207a65726f00600082015250565b600061357e601f83613204565b915061358982613548565b602082019050919050565b600060208201905081810360008301526135ad81613571565b9050919050565b7f4e487b7100000000000000000000000000000000000000000000000000000000600052604160045260246000fd5b7f4e487b7100000000000000000000000000000000000000000000000000000000600052602260045260246000fd5b6000600282049050600182168061362a57607f821691505b60208210810361363d5761363c6135e3565b5b50919050565b60008190508160005260206000209050919050565b60006020601f8301049050919050565b600082821b905092915050565b6000600883026136a57fffffffffffffffffffffffffffffffffffffffffffffffffffffffffffffffff82613668565b6136af8683613668565b95508019841693508086168417925050509392505050565b6000819050919050565b60006136ec6136e76136e284612c54565b6136c7565b612c54565b9050919050565b6000819050919050565b613706836136d1565b61371a613712826136f3565b848454613675565b825550505050565b600090565b61372f613722565b61373a8184846136fd565b505050565b5b8181101561375e57613753600082613727565b600181019050613740565b5050565b601f8211156137a35761377481613643565b61377d84613658565b8101602085101561378c578190505b6137a061379885613658565b83018261373f565b50505b505050565b600082821c905092915050565b60006137c6600019846008026137a8565b1980831691505092915050565b60006137df83836137b5565b9150826002028217905092915050565b6137f8826131f9565b67ffffffffffffffff811115613811576138106135b4565b5b61381b8254613612565b613826828285613762565b600060209050601f8311600181146138595760008415613847578287015190505b61385185826137d3565b8655506138b9565b601f19841661386786613643565b60005b8281101561388f5784890151825560018201915060208501945060208101905061386a565b868310156138ac57848901516138a8601f8916826137b5565b8355505b6001600288020188555050505b505050505050565b7f416363657373436f6e74726f6c3a2063616e206f6e6c792072656e6f756e636560008201527f20726f6c657320666f722073656c660000000000000000000000000000000000602082015250565b600061391d602f83613204565b9150613928826138c1565b604082019050919050565b6000602082019050818103600083015261394c81613910565b9050919050565b7f4e6f7420736572766963652070726f7669646572000000000000000000000000600082015250565b6000613989601483613204565b915061399482613953565b602082019050919050565b600060208201905081810360008301526139b88161397c565b9050919050565b7f536572766963652064656c657465640000000000000000000000000000000000600082015250565b60006139f5600f83613204565b9150613a00826139bf565b602082019050919050565b60006020820190508181036000830152613a24816139e8565b9050919050565b600082905092915050565b613a408383613a2b565b67ffffffffffffffff811115613a5957613a586135b4565b5b613a638254613612565b613a6e828285613762565b6000601f831160018114613a9d5760008415613a8b578287013590505b613a9585826137d3565b865550613afd565b601f198416613aab86613643565b60005b82811015613ad357848901358255600182019150602085019450602081019050613aae565b86831015613af05784890135613aec601f8916826137b5565b8355505b6001600288020188555050505b50505050505050565b7f4e6f7420617574686f72697a6564000000000000000000000000000000000000600082015250565b6000613b3c600e83613204565b9150613b4782613b06565b602082019050919050565b60006020820190508181036000830152613b6b81613b2f565b9050919050565b7f43616e6e6f742063616e63656c00000000000000000000000000000000000000600082015250565b6000613ba8600d83613204565b9150613bb382613b72565b602082019050919050565b60006020820190508181036000830152613bd781613b9b565b9050919050565b7f53657276696365206e6f74206163746976650000000000000000000000000000600082015250565b6000613c14601283613204565b9150613c1f82613bde565b602082019050919050565b60006020820190508181036000830152613c4381613c07565b9050919050565b7f43616e6e6f74206f72646572206f776e20736572766963650000000000000000600082015250565b6000613c80601883613204565b9150613c8b82613c4a565b602082019050919050565b60006020820190508181036000830152613caf81613c73565b9050919050565b7f486f757273206d7573742062652067726561746572207468616e207a65726f00600082015250565b6000613cec601f83613204565b9150613cf782613cb6565b602082019050919050565b60006020820190508181036000830152613d1b81613cdf565b9050919050565b7f4e487b7100000000000000000000000000000000000000000000000000000000600052601160045260246000fd5b6000613d5c82612c54565b9150613d6783612c54565b9250828202613d7581612c54565b91508282048414831517613d8c57613d8b613d22565b5b5092915050565b7f43616e6e6f742064697370757465000000000000000000000000000000000000600082015250565b6000613dc9600e83613204565b9150613dd482613d93565b602082019050919050565b60006020820190508181036000830152613df881613dbc565b9050919050565b7f46656520746f6f20686967680000000000000000000000000000000000000000600082015250565b6000613e35600c83613204565b9150613e4082613dff565b602082019050919050565b60006020820190508181036000830152613e6481613e28565b9050919050565b6000602082019050613e806000830184613441565b92915050565b7f4e6f7420636c69656e7400000000000000000000000000000000000000000000600082015250565b6000613ebc600a83613204565b9150613ec782613e86565b602082019050919050565b60006020820190508181036000830152613eeb81613eaf565b9050919050565b7f4f72646572206e6f742061636365707465640000000000000000000000000000600082015250565b6000613f28601283613204565b9150613f3382613ef2565b602082019050919050565b60006020820190508181036000830152613f5781613f1b565b9050919050565b7f46656520636f6c6c6563746f722063616e6e6f74206265207a65726f2061646460008201527f7265737300000000000000000000000000000000000000000000000000000000602082015250565b6000613fba602483613204565b9150613fc582613f5e565b604082019050919050565b60006020820190508181036000830152613fe981613fad565b9050919050565b7f4f72646572206e6f7420696e2063726561746564207374617465000000000000600082015250565b6000614026601a83613204565b915061403182613ff0565b602082019050919050565b6000602082019050818103600083015261405581614019565b9050919050565b7f5061757361626c653a2070617573656400000000000000000000000000000000600082015250565b6000614092601083613204565b915061409d8261405c565b602082019050919050565b600060208201905081810360008301526140c181614085565b9050919050565b600081905092915050565b7f416363657373436f6e74726f6c3a206163636f756e7420000000000000000000600082015250565b60006141096017836140c8565b9150614114826140d3565b601782019050919050565b600061412a826131f9565b61413481856140c8565b9350614144818560208601613215565b80840191505092915050565b7f206973206d697373696e6720726f6c6520000000000000000000000000000000600082015250565b60006141866011836140c8565b915061419182614150565b601182019050919050565b60006141a7826140fc565b91506141b3828561411f565b91506141be82614179565b91506141ca828461411f565b91508190509392505050565b600060208201905081810360008301526141f08184613250565b905092915050565b7f5061757361626c653a206e6f7420706175736564000000000000000000000000600082015250565b600061422e601483613204565b9150614239826141f8565b602082019050919050565b6000602082019050818103600083015261425d81614221565b9050919050565b600061426f82612c54565b915061427a83612c54565b925082820190508082111561429257614291613d22565b5b92915050565b7f4e487b7100000000000000000000000000000000000000000000000000000000600052603260045260246000fd5b60006142d282612c54565b9150600082036142e5576142e4613d22565b5b600182039050919050565b7f537472696e67733a20686578206c656e67746820696e73756666696369656e74600082015250565b6000614326602083613204565b9150614331826142f0565b602082019050919050565b6000602082019050818103600083015261435581614319565b905091905056fea264697066735822122091bcbc332e4e4027d072532c611b1c51889bea3f341d1cf84bc56d42d91716ba64736f6c634300081c0033",
  "linkReferences": {},
  "deployedLinkReferences": {}
}