{
  "_format": "hh-sol-artifact-1",
  "contractName": "SkillSystem",
  "sourceName": "contracts/core/SkillSystem.sol",
  "abi": [
    {
      "inputs": [],
      "stateMutability": "nonpayable",
      "type": "constructor"
    },
    {
      "anonymous": false,
      "inputs": [
        {
          "indexed": true,
          "internalType": "address",
          "name": "professional",
          "type": "address"
        },
        {
          "indexed": true,
          "internalType": "uint256",
          "name": "skillId",
          "type": "uint256"
        },
        {
          "indexed": false,
          "internalType": "uint256",
          "name": "karma",
          "type": "uint256"
        }
      ],
      "name": "KarmaUpdated",
      "type": "event"
    },
    {
      "anonymous": false,
      "inputs": [
        {
          "indexed": false,
          "internalType": "address",
          "name": "account",
          "type": "address"
        }
      ],
      "name": "Paused",
      "type": "event"
    },
    {
      "anonymous": false,
      "inputs": [
        {
          "indexed": true,
          "internalType": "bytes32",
          "name": "role",
          "type": "bytes32"
        },
        {
          "indexed": true,
          "internalType": "bytes32",
          "name": "previousAdminRole",
          "type": "bytes32"
        },
        {
          "indexed": true,
          "internalType": "bytes32",
          "name": "newAdminRole",
          "type": "bytes32"
        }
      ],
      "name": "RoleAdminChanged",
      "type": "event"
    },
    {
      "anonymous": false,
      "inputs": [
        {
          "indexed": true,
          "internalType": "bytes32",
          "name": "role",
          "type": "bytes32"
        },
        {
          "indexed": true,
          "internalType": "address",
          "name": "account",
          "type": "address"
        },
        {
          "indexed": true,
          "internalType": "address",
          "name": "sender",
          "type": "address"
        }
      ],
      "name": "RoleGranted",
      "type": "event"
    },
    {
      "anonymous": false,
      "inputs": [
        {
          "indexed": true,
          "internalType": "bytes32",
          "name": "role",
          "type": "bytes32"
        },
        {
          "indexed": true,
          "internalType": "address",
          "name": "account",
          "type": "address"
        },
        {
          "indexed": true,
          "internalType": "address",
          "name": "sender",
          "type": "address"
        }
      ],
      "name": "RoleRevoked",
      "type": "event"
    },
    {
      "anonymous": false,
      "inputs": [
        {
          "indexed": true,
          "internalType": "uint256",
          "name": "skillId",
          "type": "uint256"
        },
        {
          "indexed": false,
          "internalType": "string",
          "name": "name",
          "type": "string"
        },
        {
          "indexed": false,
          "internalType": "string",
          "name": "category",
          "type": "string"
        }
      ],
      "name": "SkillCreated",
      "type": "event"
    },
    {
      "anonymous": false,
      "inputs": [
        {
          "indexed": true,
          "internalType": "uint256",
          "name": "declaredSkillId",
          "type": "uint256"
        },
        {
          "indexed": true,
          "internalType": "address",
          "name": "professional",
          "type": "address"
        },
        {
          "indexed": false,
          "internalType": "uint256",
          "name": "skillId",
          "type": "uint256"
        },
        {
          "indexed": false,
          "internalType": "enum SkillSystem.SkillLevel",
          "name": "level",
          "type": "uint8"
        }
      ],
      "name": "SkillDeclared",
      "type": "event"
    },
    {
      "anonymous": false,
      "inputs": [
        {
          "indexed": false,
          "internalType": "address",
          "name": "account",
          "type": "address"
        }
      ],
      "name": "Unpaused",
      "type": "event"
    },
    {
      "anonymous": false,
      "inputs": [
        {
          "indexed": true,
          "internalType": "uint256",
          "name": "validationId",
          "type": "uint256"
        },
        {
          "indexed": true,
          "internalType": "uint256",
          "name": "declaredSkillId",
          "type": "uint256"
        },
        {
          "indexed": true,
          "internalType": "address",
          "name": "validator",
          "type": "address"
        }
      ],
      "name": "ValidationRequested",
      "type": "event"
    },
    {
      "anonymous": false,
      "inputs": [
        {
          "indexed": true,
          "internalType": "uint256",
          "name": "validationId",
          "type": "uint256"
        },
        {
          "indexed": false,
          "internalType": "enum SkillSystem.ValidationStatus",
          "name": "status",
          "type": "uint8"
        }
      ],
      "name": "ValidationResponded",
      "type": "event"
    },
    {
      "inputs": [],
      "name": "ADMIN_ROLE",
      "outputs": [
        {
          "internalType": "bytes32",
          "name": "",
          "type": "bytes32"
        }
      ],
      "stateMutability": "view",
      "type": "function"
    },
    {
      "inputs": [],
      "name": "DEFAULT_ADMIN_ROLE",
      "outputs": [
        {
          "internalType": "bytes32",
          "name": "",
          "type": "bytes32"
        }
      ],
      "stateMutability": "view",
      "type": "function"
    },
    {
      "inputs": [],
      "name": "KARMA_ROLE",
      "outputs": [
        {
          "internalType": "bytes32",
          "name": "",
          "type": "bytes32"
        }
      ],
      "stateMutability": "view",
      "type": "function"
    },
    {
      "inputs": [
        {
          "internalType": "string",
          "name": "name",
          "type": "string"
        },
        {
          "internalType": "string",
          "name": "category",
          "type": "string"
        }
      ],
      "name": "createSkill",
      "outputs": [],
      "stateMutability": "nonpayable",
      "type": "function"
    },
    {
      "inputs": [
        {
          "internalType": "uint256",
          "name": "skillId",
          "type": "uint256"
        },
        {
          "internalType": "enum SkillSystem.SkillLevel",
          "name": "level",
          "type": "uint8"
        }
      ],
      "name": "declareSkill",
      "outputs": [],
      "stateMutability": "nonpayable",
      "type": "function"
    },
    {
      "inputs": [
        {
          "internalType": "uint256",
          "name": "",
          "type": "uint256"
        }
      ],
      "name": "declaredSkills",
      "outputs": [
        {
          "internalType": "uint256",
          "name": "id",
          "type": "uint256"
        },
        {
          "internalType": "uint256",
          "name": "skillId",
          "type": "uint256"
        },
        {
          "internalType": "address",
          "name": "professional",
          "type": "address"
        },
        {
          "internalType": "enum SkillSystem.SkillLevel",
          "name": "declaredLevel",
          "type": "uint8"
        },
        {
          "internalType": "uint256",
          "name": "karma",
          "type": "uint256"
        },
        {
          "internalType": "uint256",
          "name": "declaredAt",
          "type": "uint256"
        }
      ],
      "stateMutability": "view",
      "type": "function"
    },
    {
      "inputs": [
        {
          "internalType": "uint256",
          "name": "declaredSkillId",
          "type": "uint256"
        },
        {
          "internalType": "uint256",
          "name": "validationId",
          "type": "uint256"
        }
      ],
      "name": "disputeValidation",
      "outputs": [],
      "stateMutability": "nonpayable",
      "type": "function"
    },
    {
      "inputs": [
        {
          "internalType": "bytes32",
          "name": "role",
          "type": "bytes32"
        }
      ],
      "name": "getRoleAdmin",
      "outputs": [
        {
          "internalType": "bytes32",
          "name": "",
          "type": "bytes32"
        }
      ],
      "stateMutability": "view",
      "type": "function"
    },
    {
      "inputs": [
        {
          "internalType": "address",
          "name": "professional",
          "type": "address"
        },
        {
          "internalType": "uint256",
          "name": "skillId",
          "type": "uint256"
        }
      ],
      "name": "getSkillKarma",
      "outputs": [
        {
          "internalType": "uint256",
          "name": "",
          "type": "uint256"
        }
      ],
      "stateMutability": "view",
      "type": "function"
    },
    {
      "inputs": [
        {
          "internalType": "bytes32",
          "name": "role",
          "type": "bytes32"
        },
        {
          "internalType": "address",
          "name": "account",
          "type": "address"
        }
      ],
      "name": "grantRole",
      "outputs": [],
      "stateMutability": "nonpayable",
      "type": "function"
    },
    {
      "inputs": [
        {
          "internalType": "bytes32",
          "name": "role",
          "type": "bytes32"
        },
        {
          "internalType": "address",
          "name": "account",
          "type": "address"
        }
      ],
      "name": "hasRole",
      "outputs": [
        {
          "internalType": "bool",
          "name": "",
          "type": "bool"
        }
      ],
      "stateMutability": "view",
      "type": "function"
    },
    {
      "inputs": [],
      "name": "pause",
      "outputs": [],
      "stateMutability": "nonpayable",
      "type": "function"
    },
    {
      "inputs": [],
      "name": "paused",
      "outputs": [
        {
          "internalType": "bool",
          "name": "",
          "type": "bool"
        }
      ],
      "stateMutability": "view",
      "type": "function"
    },
    {
      "inputs": [
        {
          "internalType": "address",
          "name": "",
          "type": "address"
        },
        {
          "internalType": "uint256",
          "name": "",
          "type": "uint256"
        }
      ],
      "name": "professionalSkills",
      "outputs": [
        {
          "internalType": "uint256",
          "name": "",
          "type": "uint256"
        }
      ],
      "stateMutability": "view",
      "type": "function"
    },
    {
      "inputs": [
        {
          "internalType": "bytes32",
          "name": "role",
          "type": "bytes32"
        },
        {
          "internalType": "address",
          "name": "account",
          "type": "address"
        }
      ],
      "name": "renounceRole",
      "outputs": [],
      "stateMutability": "nonpayable",
      "type": "function"
    },
    {
      "inputs": [
        {
          "internalType": "uint256",
          "name": "declaredSkillId",
          "type": "uint256"
        },
        {
          "internalType": "address",
          "name": "validator",
          "type": "address"
        },
        {
          "internalType": "string",
          "name": "context",
          "type": "string"
        }
      ],
      "name": "requestValidation",
      "outputs": [],
      "stateMutability": "nonpayable",
      "type": "function"
    },
    {
      "inputs": [
        {
          "internalType": "uint256",
          "name": "declaredSkillId",
          "type": "uint256"
        },
        {
          "internalType": "uint256",
          "name": "validationId",
          "type": "uint256"
        },
        {
          "internalType": "bool",
          "name": "accepted",
          "type": "bool"
        }
      ],
      "name": "resolveDispute",
      "outputs": [],
      "stateMutability": "nonpayable",
      "type": "function"
    },
    {
      "inputs": [
        {
          "internalType": "bytes32",
          "name": "role",
          "type": "bytes32"
        },
        {
          "internalType": "address",
          "name": "account",
          "type": "address"
        }
      ],
      "name": "revokeRole",
      "outputs": [],
      "stateMutability": "nonpayable",
      "type": "function"
    },
    {
      "inputs": [
        {
          "internalType": "uint256",
          "name": "",
          "type": "uint256"
        }
      ],
      "name": "skillKarma",
      "outputs": [
        {
          "internalType": "uint256",
          "name": "",
          "type": "uint256"
        }
      ],
      "stateMutability": "view",
      "type": "function"
    },
    {
      "inputs": [
        {
          "internalType": "uint256",
          "name": "",
          "type": "uint256"
        },
        {
          "internalType": "uint256",
          "name": "",
          "type": "uint256"
        }
      ],
      "name": "skillValidations",
      "outputs": [
        {
          "internalType": "uint256",
          "name": "id",
          "type": "uint256"
        },
        {
          "internalType": "uint256",
          "name": "declaredSkillId",
          "type": "uint256"
        },
        {
          "internalType": "address",
          "name": "validator",
          "type": "address"
        },
        {
          "internalType": "enum SkillSystem.SkillLevel",
          "name": "validatedLevel",
          "type": "uint8"
        },
        {
          "internalType": "string",
          "name": "context",
          "type": "string"
        },
        {
          "internalType": "enum SkillSystem.ValidationStatus",
          "name": "status",
          "type": "uint8"
        },
        {
          "internalType": "uint256",
          "name": "createdAt",
          "type": "uint256"
        },
        {
          "internalType": "uint256",
          "name": "respondedAt",
          "type": "uint256"
        }
      ],
      "stateMutability": "view",
      "type": "function"
    },
    {
      "inputs": [
        {
          "internalType": "uint256",
          "name": "",
          "type": "uint256"
        }
      ],
      "name": "skills",
      "outputs": [
        {
          "internalType": "uint256",
          "name": "id",
          "type": "uint256"
        },
        {
          "internalType": "string",
          "name": "name",
          "type": "string"
        },
        {
          "internalType": "string",
          "name": "category",
          "type": "string"
        },
        {
          "internalType": "bool",
          "name": "isActive",
          "type": "bool"
        }
      ],
      "stateMutability": "view",
      "type": "function"
    },
    {
      "inputs": [
        {
          "internalType": "bytes4",
          "name": "interfaceId",
          "type": "bytes4"
        }
      ],
      "name": "supportsInterface",
      "outputs": [
        {
          "internalType": "bool",
          "name": "",
          "type": "bool"
        }
      ],
      "stateMutability": "view",
      "type": "function"
    },
    {
      "inputs": [],
      "name": "unpause",
      "outputs": [],
      "stateMutability": "nonpayable",
      "type": "function"
    },
    {
      "inputs": [
        {
          "internalType": "uint256",
          "name": "declaredSkillId",
          "type": "uint256"
        },
        {
          "internalType": "uint256",
          "name": "validationId",
          "type": "uint256"
        },
        {
          "internalType": "enum SkillSystem.SkillLevel",
          "name": "level",
          "type": "uint8"
        }
      ],
      "name": "validateSkill",
      "outputs": [],
      "stateMutability": "nonpayable",
      "type": "function"
    }
  ],
  "bytecode": "0x608060405234801561001057600080fd5b506000600160006101000a81548160ff02191690831515021790555061003f6000801b3361007460201b60201c565b61006f7f1f4a8853fae4baa0116250328da4015ef744ff86f81340bbdcffb0cfaeaa0bd33361007460201b60201c565b6101d2565b610084828261016060201b60201c565b61015c57600160008084815260200190815260200160002060000160008373ffffffffffffffffffffffffffffffffffffffff1673ffffffffffffffffffffffffffffffffffffffff16815260200190815260200160002060006101000a81548160ff0219169083151502179055506101016101ca60201b60201c565b73ffffffffffffffffffffffffffffffffffffffff168173ffffffffffffffffffffffffffffffffffffffff16837f2f8788117e7eff1d82e926ec794901d17c78024a50270940304540a733656f0d60405160405180910390a45b5050565b600080600084815260200190815260200160002060000160008373ffffffffffffffffffffffffffffffffffffffff1673ffffffffffffffffffffffffffffffffffffffff16815260200190815260200160002060009054906101000a900460ff16905092915050565b600033905090565b61340f806101e16000396000f3fe608060405234801561001057600080fd5b50600436106101575760003560e01c80635cd7f289116100c3578063b581b1591161007c578063b581b159146103cc578063d547741f14610401578063e33c87511461041d578063e5f9f1f414610439578063e85c80a814610457578063ec491ca11461047357610157565b80635cd7f2891461030a5780636b33198f1461032657806375b238fc146103565780638456cb591461037457806391d148541461037e578063a217fddf146103ae57610157565b80632f2ff15d116101155780632f2ff15d1461025b57806336568abe1461027757806336c47f5f146102935780633f4ba83a146102af57806350d15fbe146102b95780635c975abb146102ec57610157565b80628403961461015c57806301ffc9a71461018c5780631adc3214146101bc57806320d1c4e2146101f3578063248a9ca31461020f5780632c2702621461023f575b600080fd5b61017660048036038101906101719190612130565b6104a3565b604051610183919061217f565b60405180910390f35b6101a660048036038101906101a191906121f2565b6104d4565b6040516101b3919061223a565b60405180910390f35b6101d660048036038101906101d19190612255565b61054e565b6040516101ea9897969594939291906123f3565b60405180910390f35b61020d600480360381019061020891906124dd565b610675565b005b61022960048036038101906102249190612587565b610966565b60405161023691906125c3565b60405180910390f35b61025960048036038101906102549190612255565b610985565b005b610275600480360381019061027091906125de565b610bf4565b005b610291600480360381019061028c91906125de565b610c15565b005b6102ad60048036038101906102a8919061264a565b610c98565b005b6102b7610e14565b005b6102d360048036038101906102ce919061269d565b610e49565b6040516102e394939291906126ca565b60405180910390f35b6102f4610f96565b604051610301919061223a565b60405180910390f35b610324600480360381019061031f9190612742565b610fad565b005b610340600480360381019061033b919061269d565b6111a0565b60405161034d919061217f565b60405180910390f35b61035e6111b8565b60405161036b91906125c3565b60405180910390f35b61037c6111dc565b005b610398600480360381019061039391906125de565b611211565b6040516103a5919061223a565b60405180910390f35b6103b661127b565b6040516103c391906125c3565b60405180910390f35b6103e660048036038101906103e1919061269d565b611282565b6040516103f896959493929190612795565b60405180910390f35b61041b600480360381019061041691906125de565b6112eb565b005b610437600480360381019061043291906127f6565b61130c565b005b610441611556565b60405161044e91906125c3565b60405180910390f35b610471600480360381019061046c9190612836565b61157a565b005b61048d60048036038101906104889190612130565b61171a565b60405161049a919061217f565b60405180910390f35b600660205281600052604060002081815481106104bf57600080fd5b90600052602060002001600091509150505481565b60007f7965db0b000000000000000000000000000000000000000000000000000000007bffffffffffffffffffffffffffffffffffffffffffffffffffffffff1916827bffffffffffffffffffffffffffffffffffffffffffffffffffffffff1916148061054757506105468261181d565b5b9050919050565b6007602052816000526040600020818154811061056a57600080fd5b9060005260206000209060070201600091509150508060000154908060010154908060020160009054906101000a900473ffffffffffffffffffffffffffffffffffffffff16908060020160149054906101000a900460ff16908060030180546105d3906128e6565b80601f01602080910402602001604051908101604052809291908181526020018280546105ff906128e6565b801561064c5780601f106106215761010080835404028352916020019161064c565b820191906000526020600020905b81548152906001019060200180831161062f57829003601f168201915b5050505050908060040160009054906101000a900460ff16908060050154908060060154905088565b61067d611887565b3373ffffffffffffffffffffffffffffffffffffffff166005600086815260200190815260200160002060020160009054906101000a900473ffffffffffffffffffffffffffffffffffffffff1673ffffffffffffffffffffffffffffffffffffffff1614610721576040517f08c379a000000000000000000000000000000000000000000000000000000000815260040161071890612963565b60405180910390fd5b600060076000868152602001908152602001600020805490509050600760008681526020019081526020016000206040518061010001604052808381526020018781526020018673ffffffffffffffffffffffffffffffffffffffff16815260200160006003811115610797576107966122a4565b5b815260200185858080601f016020809104026020016040519081016040528093929190818152602001838380828437600081840152601f19601f820116905080830192505050505050508152602001600060038111156107fa576107f96122a4565b5b815260200142815260200160008152509080600181540180825580915050600190039060005260206000209060070201600090919091909150600082015181600001556020820151816001015560408201518160020160006101000a81548173ffffffffffffffffffffffffffffffffffffffff021916908373ffffffffffffffffffffffffffffffffffffffff16021790555060608201518160020160146101000a81548160ff021916908360038111156108b9576108b86122a4565b5b021790555060808201518160030190816108d39190612b5e565b5060a08201518160040160006101000a81548160ff021916908360038111156108ff576108fe6122a4565b5b021790555060c0820151816005015560e0820151816006015550508373ffffffffffffffffffffffffffffffffffffffff1685827f6e135283965a163c469bd98a8fac0a1debd15673075f580920b6d3a1c1e12f4860405160405180910390a45050505050565b6000806000838152602001908152602001600020600101549050919050565b61098d611887565b60006007600084815260200190815260200160002082815481106109b4576109b3612c30565b5b9060005260206000209060070201905060006005600085815260200190815260200160002090503373ffffffffffffffffffffffffffffffffffffffff168160020160009054906101000a900473ffffffffffffffffffffffffffffffffffffffff1673ffffffffffffffffffffffffffffffffffffffff161480610a8857503373ffffffffffffffffffffffffffffffffffffffff168260020160009054906101000a900473ffffffffffffffffffffffffffffffffffffffff1673ffffffffffffffffffffffffffffffffffffffff16145b610ac7576040517f08c379a0000000000000000000000000000000000000000000000000000000008152600401610abe90612cab565b60405180910390fd5b60006003811115610adb57610ada6122a4565b5b8260040160009054906101000a900460ff166003811115610aff57610afe6122a4565b5b1480610b40575060016003811115610b1a57610b196122a4565b5b8260040160009054906101000a900460ff166003811115610b3e57610b3d6122a4565b5b145b610b7f576040517f08c379a0000000000000000000000000000000000000000000000000000000008152600401610b7690612d17565b60405180910390fd5b60028260040160006101000a81548160ff02191690836003811115610ba757610ba66122a4565b5b0217905550428260060181905550827f4affc988f6c9df73b0a8c29e3e3c66a4f4d4d56a350ecae44f9a48c54f50f90f6002604051610be69190612d37565b60405180910390a250505050565b610bfd82610966565b610c06816118d1565b610c1083836118e5565b505050565b610c1d6119c5565b73ffffffffffffffffffffffffffffffffffffffff168173ffffffffffffffffffffffffffffffffffffffff1614610c8a576040517f08c379a0000000000000000000000000000000000000000000000000000000008152600401610c8190612dc4565b60405180910390fd5b610c9482826119cd565b5050565b7fa49807205ce4d355092ef5a8a18f56e8913cf4a201fbe287825b095693c21775610cc2816118d1565b6000600760008681526020019081526020016000208481548110610ce957610ce8612c30565b5b9060005260206000209060070201905060026003811115610d0d57610d0c6122a4565b5b8160040160009054906101000a900460ff166003811115610d3157610d306122a4565b5b14610d71576040517f08c379a0000000000000000000000000000000000000000000000000000000008152600401610d6890612e30565b60405180910390fd5b82610d7d576003610d80565b60015b8160040160006101000a81548160ff02191690836003811115610da657610da56122a4565b5b02179055504281600601819055508215610dc457610dc385611aae565b5b837f4affc988f6c9df73b0a8c29e3e3c66a4f4d4d56a350ecae44f9a48c54f50f90f8260040160009054906101000a900460ff16604051610e059190612d37565b60405180910390a25050505050565b7fa49807205ce4d355092ef5a8a18f56e8913cf4a201fbe287825b095693c21775610e3e816118d1565b610e46611c72565b50565b6004602052806000526040600020600091509050806000015490806001018054610e72906128e6565b80601f0160208091040260200160405190810160405280929190818152602001828054610e9e906128e6565b8015610eeb5780601f10610ec057610100808354040283529160200191610eeb565b820191906000526020600020905b815481529060010190602001808311610ece57829003601f168201915b505050505090806002018054610f00906128e6565b80601f0160208091040260200160405190810160405280929190818152602001828054610f2c906128e6565b8015610f795780601f10610f4e57610100808354040283529160200191610f79565b820191906000526020600020905b815481529060010190602001808311610f5c57829003601f168201915b5050505050908060030160009054906101000a900460ff16905084565b6000600160009054906101000a900460ff16905090565b610fb5611887565b6000600760008581526020019081526020016000208381548110610fdc57610fdb612c30565b5b906000526020600020906007020190503373ffffffffffffffffffffffffffffffffffffffff168160020160009054906101000a900473ffffffffffffffffffffffffffffffffffffffff1673ffffffffffffffffffffffffffffffffffffffff161461107e576040517f08c379a000000000000000000000000000000000000000000000000000000000815260040161107590612e9c565b60405180910390fd5b60006003811115611092576110916122a4565b5b8160040160009054906101000a900460ff1660038111156110b6576110b56122a4565b5b146110f6576040517f08c379a00000000000000000000000000000000000000000000000000000000081526004016110ed90612f08565b60405180910390fd5b818160020160146101000a81548160ff0219169083600381111561111d5761111c6122a4565b5b021790555060018160040160006101000a81548160ff0219169083600381111561114a576111496122a4565b5b021790555042816006018190555061116184611aae565b827f4affc988f6c9df73b0a8c29e3e3c66a4f4d4d56a350ecae44f9a48c54f50f90f60016040516111929190612d37565b60405180910390a250505050565b60086020528060005260406000206000915090505481565b7fa49807205ce4d355092ef5a8a18f56e8913cf4a201fbe287825b095693c2177581565b7fa49807205ce4d355092ef5a8a18f56e8913cf4a201fbe287825b095693c21775611206816118d1565b61120e611cd5565b50565b600080600084815260200190815260200160002060000160008373ffffffffffffffffffffffffffffffffffffffff1673ffffffffffffffffffffffffffffffffffffffff16815260200190815260200160002060009054906101000a900460ff16905092915050565b6000801b81565b60056020528060005260406000206000915090508060000154908060010154908060020160009054906101000a900473ffffffffffffffffffffffffffffffffffffffff16908060020160149054906101000a900460ff16908060030154908060040154905086565b6112f482610966565b6112fd816118d1565b61130783836119cd565b505050565b611314611887565b6004600083815260200190815260200160002060030160009054906101000a900460ff16611377576040517f08c379a000000000000000000000000000000000000000000000000000000000815260040161136e90612f74565b60405180910390fd5b60006113836003611d37565b905061138f6003611d45565b6040518060c001604052808281526020018481526020013373ffffffffffffffffffffffffffffffffffffffff1681526020018360038111156113d5576113d46122a4565b5b8152602001600081526020014281525060056000838152602001908152602001600020600082015181600001556020820151816001015560408201518160020160006101000a81548173ffffffffffffffffffffffffffffffffffffffff021916908373ffffffffffffffffffffffffffffffffffffffff16021790555060608201518160020160146101000a81548160ff0219169083600381111561147e5761147d6122a4565b5b02179055506080820151816003015560a08201518160040155905050600660003373ffffffffffffffffffffffffffffffffffffffff1673ffffffffffffffffffffffffffffffffffffffff1681526020019081526020016000208190806001815401808255809150506001900390600052602060002001600090919091909150553373ffffffffffffffffffffffffffffffffffffffff16817f787c6c9d88f518e134f432890dcfb721594db45549277a5f818a4cbbee38e11d8585604051611549929190612f94565b60405180910390a3505050565b7f1f4a8853fae4baa0116250328da4015ef744ff86f81340bbdcffb0cfaeaa0bd381565b7fa49807205ce4d355092ef5a8a18f56e8913cf4a201fbe287825b095693c217756115a4816118d1565b60006115b06002611d37565b90506115bc6002611d45565b604051806080016040528082815260200187878080601f016020809104026020016040519081016040528093929190818152602001838380828437600081840152601f19601f82011690508083019250505050505050815260200185858080601f016020809104026020016040519081016040528093929190818152602001838380828437600081840152601f19601f820116905080830192505050505050508152602001600115158152506004600083815260200190815260200160002060008201518160000155602082015181600101908161169a9190612b5e565b5060408201518160020190816116b09190612b5e565b5060608201518160030160006101000a81548160ff021916908315150217905550905050807f2cb0bae600fba6d37950b87f21e82ad212d268cd4c751332251830ba47d2b92d8787878760405161170a9493929190612ff9565b60405180910390a2505050505050565b6000806000905060005b600660008673ffffffffffffffffffffffffffffffffffffffff1673ffffffffffffffffffffffffffffffffffffffff16815260200190815260200160002080549050811015611812576000600660008773ffffffffffffffffffffffffffffffffffffffff1673ffffffffffffffffffffffffffffffffffffffff16815260200190815260200160002082815481106117c1576117c0612c30565b5b90600052602060002001549050600060056000838152602001908152602001600020905085816001015403611803578060030154846118009190613063565b93505b50508080600101915050611724565b508091505092915050565b60007f01ffc9a7000000000000000000000000000000000000000000000000000000007bffffffffffffffffffffffffffffffffffffffffffffffffffffffff1916827bffffffffffffffffffffffffffffffffffffffffffffffffffffffff1916149050919050565b61188f610f96565b156118cf576040517f08c379a00000000000000000000000000000000000000000000000000000000081526004016118c6906130e3565b60405180910390fd5b565b6118e2816118dd6119c5565b611d5b565b50565b6118ef8282611211565b6119c157600160008084815260200190815260200160002060000160008373ffffffffffffffffffffffffffffffffffffffff1673ffffffffffffffffffffffffffffffffffffffff16815260200190815260200160002060006101000a81548160ff0219169083151502179055506119666119c5565b73ffffffffffffffffffffffffffffffffffffffff168173ffffffffffffffffffffffffffffffffffffffff16837f2f8788117e7eff1d82e926ec794901d17c78024a50270940304540a733656f0d60405160405180910390a45b5050565b600033905090565b6119d78282611211565b15611aaa57600080600084815260200190815260200160002060000160008373ffffffffffffffffffffffffffffffffffffffff1673ffffffffffffffffffffffffffffffffffffffff16815260200190815260200160002060006101000a81548160ff021916908315150217905550611a4f6119c5565b73ffffffffffffffffffffffffffffffffffffffff168173ffffffffffffffffffffffffffffffffffffffff16837ff6391f5c32d9c69d2a47ea670b442974b53935d1edc7fd64eb21e047a839171b60405160405180910390a45b5050565b600060056000838152602001908152602001600020905060008060005b6007600086815260200190815260200160002080549050811015611bc9576000600760008781526020019081526020016000208281548110611b1057611b0f612c30565b5b9060005260206000209060070201905060016003811115611b3457611b336122a4565b5b8160040160009054906101000a900460ff166003811115611b5857611b576122a4565b5b03611bbb57600060058260020160149054906101000a900460ff166003811115611b8557611b846122a4565b5b611b8f9190613103565b600a611b9b9190613063565b90508085611ba99190613063565b94508380611bb690613145565b945050505b508080600101915050611acb565b506000811115611c6c5781836003018190555081600860008681526020019081526020016000208190555082600101548360020160009054906101000a900473ffffffffffffffffffffffffffffffffffffffff1673ffffffffffffffffffffffffffffffffffffffff167ffd2bad45540da3a7d6889882cf24e970fe5a53d8628841be7adf7efbd358f43c84604051611c63919061217f565b60405180910390a35b50505050565b611c7a611de0565b6000600160006101000a81548160ff0219169083151502179055507f5db9ee0a495bf2e6ff9c91a7834c1ba4fdd244a5e8aa4e537bd38aeae4b073aa611cbe6119c5565b604051611ccb919061318d565b60405180910390a1565b611cdd611887565b60018060006101000a81548160ff0219169083151502179055507f62e78cea01bee320cd4e420270b5ea74000d11b0c9f74754ebdbfc544b05a258611d206119c5565b604051611d2d919061318d565b60405180910390a1565b600081600001549050919050565b6001816000016000828254019250508190555050565b611d658282611211565b611ddc57611d7281611e29565b611d808360001c6020611e56565b604051602001611d9192919061327c565b6040516020818303038152906040526040517f08c379a0000000000000000000000000000000000000000000000000000000008152600401611dd391906132b6565b60405180910390fd5b5050565b611de8610f96565b611e27576040517f08c379a0000000000000000000000000000000000000000000000000000000008152600401611e1e90613324565b60405180910390fd5b565b6060611e4f8273ffffffffffffffffffffffffffffffffffffffff16601460ff16611e56565b9050919050565b606060006002836002611e699190613103565b611e739190613063565b67ffffffffffffffff811115611e8c57611e8b612983565b5b6040519080825280601f01601f191660200182016040528015611ebe5781602001600182028036833780820191505090505b5090507f300000000000000000000000000000000000000000000000000000000000000081600081518110611ef657611ef5612c30565b5b60200101907effffffffffffffffffffffffffffffffffffffffffffffffffffffffffffff1916908160001a9053507f780000000000000000000000000000000000000000000000000000000000000081600181518110611f5a57611f59612c30565b5b60200101907effffffffffffffffffffffffffffffffffffffffffffffffffffffffffffff1916908160001a90535060006001846002611f9a9190613103565b611fa49190613063565b90505b6001811115612044577f3031323334353637383961626364656600000000000000000000000000000000600f861660108110611fe657611fe5612c30565b5b1a60f81b828281518110611ffd57611ffc612c30565b5b60200101907effffffffffffffffffffffffffffffffffffffffffffffffffffffffffffff1916908160001a905350600485901c94508061203d90613344565b9050611fa7565b5060008414612088576040517f08c379a000000000000000000000000000000000000000000000000000000000815260040161207f906133b9565b60405180910390fd5b8091505092915050565b600080fd5b600080fd5b600073ffffffffffffffffffffffffffffffffffffffff82169050919050565b60006120c78261209c565b9050919050565b6120d7816120bc565b81146120e257600080fd5b50565b6000813590506120f4816120ce565b92915050565b6000819050919050565b61210d816120fa565b811461211857600080fd5b50565b60008135905061212a81612104565b92915050565b6000806040838503121561214757612146612092565b5b6000612155858286016120e5565b92505060206121668582860161211b565b9150509250929050565b612179816120fa565b82525050565b60006020820190506121946000830184612170565b92915050565b60007fffffffff0000000000000000000000000000000000000000000000000000000082169050919050565b6121cf8161219a565b81146121da57600080fd5b50565b6000813590506121ec816121c6565b92915050565b60006020828403121561220857612207612092565b5b6000612216848285016121dd565b91505092915050565b60008115159050919050565b6122348161221f565b82525050565b600060208201905061224f600083018461222b565b92915050565b6000806040838503121561226c5761226b612092565b5b600061227a8582860161211b565b925050602061228b8582860161211b565b9150509250929050565b61229e816120bc565b82525050565b7f4e487b7100000000000000000000000000000000000000000000000000000000600052602160045260246000fd5b600481106122e4576122e36122a4565b5b50565b60008190506122f5826122d3565b919050565b6000612305826122e7565b9050919050565b612315816122fa565b82525050565b600081519050919050565b600082825260208201905092915050565b60005b8381101561235557808201518184015260208101905061233a565b60008484015250505050565b6000601f19601f8301169050919050565b600061237d8261231b565b6123878185612326565b9350612397818560208601612337565b6123a081612361565b840191505092915050565b600481106123bc576123bb6122a4565b5b50565b60008190506123cd826123ab565b919050565b60006123dd826123bf565b9050919050565b6123ed816123d2565b82525050565b600061010082019050612409600083018b612170565b612416602083018a612170565b6124236040830189612295565b612430606083018861230c565b81810360808301526124428187612372565b905061245160a08301866123e4565b61245e60c0830185612170565b61246b60e0830184612170565b9998505050505050505050565b600080fd5b600080fd5b600080fd5b60008083601f84011261249d5761249c612478565b5b8235905067ffffffffffffffff8111156124ba576124b961247d565b5b6020830191508360018202830111156124d6576124d5612482565b5b9250929050565b600080600080606085870312156124f7576124f6612092565b5b60006125058782880161211b565b9450506020612516878288016120e5565b935050604085013567ffffffffffffffff81111561253757612536612097565b5b61254387828801612487565b925092505092959194509250565b6000819050919050565b61256481612551565b811461256f57600080fd5b50565b6000813590506125818161255b565b92915050565b60006020828403121561259d5761259c612092565b5b60006125ab84828501612572565b91505092915050565b6125bd81612551565b82525050565b60006020820190506125d860008301846125b4565b92915050565b600080604083850312156125f5576125f4612092565b5b600061260385828601612572565b9250506020612614858286016120e5565b9150509250929050565b6126278161221f565b811461263257600080fd5b50565b6000813590506126448161261e565b92915050565b60008060006060848603121561266357612662612092565b5b60006126718682870161211b565b93505060206126828682870161211b565b925050604061269386828701612635565b9150509250925092565b6000602082840312156126b3576126b2612092565b5b60006126c18482850161211b565b91505092915050565b60006080820190506126df6000830187612170565b81810360208301526126f18186612372565b905081810360408301526127058185612372565b9050612714606083018461222b565b95945050505050565b6004811061272a57600080fd5b50565b60008135905061273c8161271d565b92915050565b60008060006060848603121561275b5761275a612092565b5b60006127698682870161211b565b935050602061277a8682870161211b565b925050604061278b8682870161272d565b9150509250925092565b600060c0820190506127aa6000830189612170565b6127b76020830188612170565b6127c46040830187612295565b6127d1606083018661230c565b6127de6080830185612170565b6127eb60a0830184612170565b979650505050505050565b6000806040838503121561280d5761280c612092565b5b600061281b8582860161211b565b925050602061282c8582860161272d565b9150509250929050565b600080600080604085870312156128505761284f612092565b5b600085013567ffffffffffffffff81111561286e5761286d612097565b5b61287a87828801612487565b9450945050602085013567ffffffffffffffff81111561289d5761289c612097565b5b6128a987828801612487565b925092505092959194509250565b7f4e487b7100000000000000000000000000000000000000000000000000000000600052602260045260246000fd5b600060028204905060018216806128fe57607f821691505b602082108103612911576129106128b7565b5b50919050565b7f4e6f7420736b696c6c206f776e65720000000000000000000000000000000000600082015250565b600061294d600f83612326565b915061295882612917565b602082019050919050565b6000602082019050818103600083015261297c81612940565b9050919050565b7f4e487b7100000000000000000000000000000000000000000000000000000000600052604160045260246000fd5b60008190508160005260206000209050919050565b60006020601f8301049050919050565b600082821b905092915050565b600060088302612a147fffffffffffffffffffffffffffffffffffffffffffffffffffffffffffffffff826129d7565b612a1e86836129d7565b95508019841693508086168417925050509392505050565b6000819050919050565b6000612a5b612a56612a51846120fa565b612a36565b6120fa565b9050919050565b6000819050919050565b612a7583612a40565b612a89612a8182612a62565b8484546129e4565b825550505050565b600090565b612a9e612a91565b612aa9818484612a6c565b505050565b5b81811015612acd57612ac2600082612a96565b600181019050612aaf565b5050565b601f821115612b1257612ae3816129b2565b612aec846129c7565b81016020851015612afb578190505b612b0f612b07856129c7565b830182612aae565b50505b505050565b600082821c905092915050565b6000612b3560001984600802612b17565b1980831691505092915050565b6000612b4e8383612b24565b9150826002028217905092915050565b612b678261231b565b67ffffffffffffffff811115612b8057612b7f612983565b5b612b8a82546128e6565b612b95828285612ad1565b600060209050601f831160018114612bc85760008415612bb6578287015190505b612bc08582612b42565b865550612c28565b601f198416612bd6866129b2565b60005b82811015612bfe57848901518255600182019150602085019450602081019050612bd9565b86831015612c1b5784890151612c17601f891682612b24565b8355505b6001600288020188555050505b505050505050565b7f4e487b7100000000000000000000000000000000000000000000000000000000600052603260045260246000fd5b7f4e6f7420617574686f72697a6564000000000000000000000000000000000000600082015250565b6000612c95600e83612326565b9150612ca082612c5f565b602082019050919050565b60006020820190508181036000830152612cc481612c88565b9050919050565b7f43616e6e6f742064697370757465000000000000000000000000000000000000600082015250565b6000612d01600e83612326565b9150612d0c82612ccb565b602082019050919050565b60006020820190508181036000830152612d3081612cf4565b9050919050565b6000602082019050612d4c60008301846123e4565b92915050565b7f416363657373436f6e74726f6c3a2063616e206f6e6c792072656e6f756e636560008201527f20726f6c657320666f722073656c660000000000000000000000000000000000602082015250565b6000612dae602f83612326565b9150612db982612d52565b604082019050919050565b60006020820190508181036000830152612ddd81612da1565b9050919050565b7f4e6f742064697370757465640000000000000000000000000000000000000000600082015250565b6000612e1a600c83612326565b9150612e2582612de4565b602082019050919050565b60006020820190508181036000830152612e4981612e0d565b9050919050565b7f4e6f742076616c696461746f7200000000000000000000000000000000000000600082015250565b6000612e86600d83612326565b9150612e9182612e50565b602082019050919050565b60006020820190508181036000830152612eb581612e79565b9050919050565b7f4e6f742070656e64696e67000000000000000000000000000000000000000000600082015250565b6000612ef2600b83612326565b9150612efd82612ebc565b602082019050919050565b60006020820190508181036000830152612f2181612ee5565b9050919050565b7f536b696c6c206e6f742061637469766500000000000000000000000000000000600082015250565b6000612f5e601083612326565b9150612f6982612f28565b602082019050919050565b60006020820190508181036000830152612f8d81612f51565b9050919050565b6000604082019050612fa96000830185612170565b612fb6602083018461230c565b9392505050565b82818337600083830152505050565b6000612fd88385612326565b9350612fe5838584612fbd565b612fee83612361565b840190509392505050565b60006040820190508181036000830152613014818688612fcc565b90508181036020830152613029818486612fcc565b905095945050505050565b7f4e487b7100000000000000000000000000000000000000000000000000000000600052601160045260246000fd5b600061306e826120fa565b9150613079836120fa565b925082820190508082111561309157613090613034565b5b92915050565b7f5061757361626c653a2070617573656400000000000000000000000000000000600082015250565b60006130cd601083612326565b91506130d882613097565b602082019050919050565b600060208201905081810360008301526130fc816130c0565b9050919050565b600061310e826120fa565b9150613119836120fa565b9250828202613127816120fa565b9150828204841483151761313e5761313d613034565b5b5092915050565b6000613150826120fa565b91507fffffffffffffffffffffffffffffffffffffffffffffffffffffffffffffffff820361318257613181613034565b5b600182019050919050565b60006020820190506131a26000830184612295565b92915050565b600081905092915050565b7f416363657373436f6e74726f6c3a206163636f756e7420000000000000000000600082015250565b60006131e96017836131a8565b91506131f4826131b3565b601782019050919050565b600061320a8261231b565b61321481856131a8565b9350613224818560208601612337565b80840191505092915050565b7f206973206d697373696e6720726f6c6520000000000000000000000000000000600082015250565b60006132666011836131a8565b915061327182613230565b601182019050919050565b6000613287826131dc565b915061329382856131ff565b915061329e82613259565b91506132aa82846131ff565b91508190509392505050565b600060208201905081810360008301526132d08184612372565b905092915050565b7f5061757361626c653a206e6f7420706175736564000000000000000000000000600082015250565b600061330e601483612326565b9150613319826132d8565b602082019050919050565b6000602082019050818103600083015261333d81613301565b9050919050565b600061334f826120fa565b91506000820361336257613361613034565b5b600182039050919050565b7f537472696e67733a20686578206c656e67746820696e73756666696369656e74600082015250565b60006133a3602083612326565b91506133ae8261336d565b602082019050919050565b600060208201905081810360008301526133d281613396565b905091905056fea2646970667358221220cb23c84ec80f4e5b1548018724791d2961b3fbfdf8d43fbab25cc43f03ae6de464736f6c634300081c0033",
  "linkReferences": {},
  "deployedLinkReferences": {}
}