{
  "_format": "hh-sol-artifact-1",
  "contractName": "KRMToken",
  "sourceName": "contracts/tokens/KRMToken.sol",
  "abi": [
    {
      "inputs": [
        {
          "internalType": "address",
          "name": "_treasuryWallet",
          "type": "address"
        }
      ],
      "stateMutability": "nonpayable",
      "type": "constructor"
    },
    {
      "anonymous": false,
      "inputs": [
        {
          "indexed": true,
          "internalType": "address",
          "name": "owner",
          "type": "address"
        },
        {
          "indexed": true,
          "internalType": "address",
          "name": "spender",
          "type": "address"
        },
        {
          "indexed": false,
          "internalType": "uint256",
          "name": "value",
          "type": "uint256"
        }
      ],
      "name": "Approval",
      "type": "event"
    },
    {
      "anonymous": false,
      "inputs": [
        {
          "indexed": false,
          "internalType": "address",
          "name": "account",
          "type": "address"
        }
      ],
      "name": "Paused",
      "type": "event"
    },
    {
      "anonymous": false,
      "inputs": [
        {
          "indexed": false,
          "internalType": "uint256",
          "name": "newFee",
          "type": "uint256"
        }
      ],
      "name": "ReflectionFeeUpdated",
      "type": "event"
    },
    {
      "anonymous": false,
      "inputs": [
        {
          "indexed": true,
          "internalType": "bytes32",
          "name": "role",
          "type": "bytes32"
        },
        {
          "indexed": true,
          "internalType": "bytes32",
          "name": "previousAdminRole",
          "type": "bytes32"
        },
        {
          "indexed": true,
          "internalType": "bytes32",
          "name": "newAdminRole",
          "type": "bytes32"
        }
      ],
      "name": "RoleAdminChanged",
      "type": "event"
    },
    {
      "anonymous": false,
      "inputs": [
        {
          "indexed": true,
          "internalType": "bytes32",
          "name": "role",
          "type": "bytes32"
        },
        {
          "indexed": true,
          "internalType": "address",
          "name": "account",
          "type": "address"
        },
        {
          "indexed": true,
          "internalType": "address",
          "name": "sender",
          "type": "address"
        }
      ],
      "name": "RoleGranted",
      "type": "event"
    },
    {
      "anonymous": false,
      "inputs": [
        {
          "indexed": true,
          "internalType": "bytes32",
          "name": "role",
          "type": "bytes32"
        },
        {
          "indexed": true,
          "internalType": "address",
          "name": "account",
          "type": "address"
        },
        {
          "indexed": true,
          "internalType": "address",
          "name": "sender",
          "type": "address"
        }
      ],
      "name": "RoleRevoked",
      "type": "event"
    },
    {
      "anonymous": false,
      "inputs": [
        {
          "indexed": true,
          "internalType": "address",
          "name": "from",
          "type": "address"
        },
        {
          "indexed": true,
          "internalType": "address",
          "name": "to",
          "type": "address"
        },
        {
          "indexed": false,
          "internalType": "uint256",
          "name": "value",
          "type": "uint256"
        }
      ],
      "name": "Transfer",
      "type": "event"
    },
    {
      "anonymous": false,
      "inputs": [
        {
          "indexed": false,
          "internalType": "address",
          "name": "newTreasury",
          "type": "address"
        }
      ],
      "name": "TreasuryWalletUpdated",
      "type": "event"
    },
    {
      "anonymous": false,
      "inputs": [
        {
          "indexed": false,
          "internalType": "address",
          "name": "account",
          "type": "address"
        }
      ],
      "name": "Unpaused",
      "type": "event"
    },
    {
      "inputs": [],
      "name": "DEFAULT_ADMIN_ROLE",
      "outputs": [
        {
          "internalType": "bytes32",
          "name": "",
          "type": "bytes32"
        }
      ],
      "stateMutability": "view",
      "type": "function"
    },
    {
      "inputs": [],
      "name": "MAX_SUPPLY",
      "outputs": [
        {
          "internalType": "uint256",
          "name": "",
          "type": "uint256"
        }
      ],
      "stateMutability": "view",
      "type": "function"
    },
    {
      "inputs": [],
      "name": "MINTER_ROLE",
      "outputs": [
        {
          "internalType": "bytes32",
          "name": "",
          "type": "bytes32"
        }
      ],
      "stateMutability": "view",
      "type": "function"
    },
    {
      "inputs": [],
      "name": "PAUSER_ROLE",
      "outputs": [
        {
          "internalType": "bytes32",
          "name": "",
          "type": "bytes32"
        }
      ],
      "stateMutability": "view",
      "type": "function"
    },
    {
      "inputs": [
        {
          "internalType": "address",
          "name": "owner",
          "type": "address"
        },
        {
          "internalType": "address",
          "name": "spender",
          "type": "address"
        }
      ],
      "name": "allowance",
      "outputs": [
        {
          "internalType": "uint256",
          "name": "",
          "type": "uint256"
        }
      ],
      "stateMutability": "view",
      "type": "function"
    },
    {
      "inputs": [
        {
          "internalType": "address",
          "name": "spender",
          "type": "address"
        },
        {
          "internalType": "uint256",
          "name": "amount",
          "type": "uint256"
        }
      ],
      "name": "approve",
      "outputs": [
        {
          "internalType": "bool",
          "name": "",
          "type": "bool"
        }
      ],
      "stateMutability": "nonpayable",
      "type": "function"
    },
    {
      "inputs": [
        {
          "internalType": "address",
          "name": "account",
          "type": "address"
        }
      ],
      "name": "balanceOf",
      "outputs": [
        {
          "internalType": "uint256",
          "name": "",
          "type": "uint256"
        }
      ],
      "stateMutability": "view",
      "type": "function"
    },
    {
      "inputs": [
        {
          "internalType": "uint256",
          "name": "amount",
          "type": "uint256"
        }
      ],
      "name": "burn",
      "outputs": [],
      "stateMutability": "nonpayable",
      "type": "function"
    },
    {
      "inputs": [
        {
          "internalType": "address",
          "name": "account",
          "type": "address"
        },
        {
          "internalType": "uint256",
          "name": "amount",
          "type": "uint256"
        }
      ],
      "name": "burnFrom",
      "outputs": [],
      "stateMutability": "nonpayable",
      "type": "function"
    },
    {
      "inputs": [],
      "name": "decimals",
      "outputs": [
        {
          "internalType": "uint8",
          "name": "",
          "type": "uint8"
        }
      ],
      "stateMutability": "view",
      "type": "function"
    },
    {
      "inputs": [
        {
          "internalType": "address",
          "name": "spender",
          "type": "address"
        },
        {
          "internalType": "uint256",
          "name": "subtractedValue",
          "type": "uint256"
        }
      ],
      "name": "decreaseAllowance",
      "outputs": [
        {
          "internalType": "bool",
          "name": "",
          "type": "bool"
        }
      ],
      "stateMutability": "nonpayable",
      "type": "function"
    },
    {
      "inputs": [
        {
          "internalType": "bytes32",
          "name": "role",
          "type": "bytes32"
        }
      ],
      "name": "getRoleAdmin",
      "outputs": [
        {
          "internalType": "bytes32",
          "name": "",
          "type": "bytes32"
        }
      ],
      "stateMutability": "view",
      "type": "function"
    },
    {
      "inputs": [
        {
          "internalType": "bytes32",
          "name": "role",
          "type": "bytes32"
        },
        {
          "internalType": "address",
          "name": "account",
          "type": "address"
        }
      ],
      "name": "grantRole",
      "outputs": [],
      "stateMutability": "nonpayable",
      "type": "function"
    },
    {
      "inputs": [
        {
          "internalType": "bytes32",
          "name": "role",
          "type": "bytes32"
        },
        {
          "internalType": "address",
          "name": "account",
          "type": "address"
        }
      ],
      "name": "hasRole",
      "outputs": [
        {
          "internalType": "bool",
          "name": "",
          "type": "bool"
        }
      ],
      "stateMutability": "view",
      "type": "function"
    },
    {
      "inputs": [
        {
          "internalType": "address",
          "name": "spender",
          "type": "address"
        },
        {
          "internalType": "uint256",
          "name": "addedValue",
          "type": "uint256"
        }
      ],
      "name": "increaseAllowance",
      "outputs": [
        {
          "internalType": "bool",
          "name": "",
          "type": "bool"
        }
      ],
      "stateMutability": "nonpayable",
      "type": "function"
    },
    {
      "inputs": [
        {
          "internalType": "address",
          "name": "to",
          "type": "address"
        },
        {
          "internalType": "uint256",
          "name": "amount",
          "type": "uint256"
        }
      ],
      "name": "mint",
      "outputs": [],
      "stateMutability": "nonpayable",
      "type": "function"
    },
    {
      "inputs": [],
      "name": "name",
      "outputs": [
        {
          "internalType": "string",
          "name": "",
          "type": "string"
        }
      ],
      "stateMutability": "view",
      "type": "function"
    },
    {
      "inputs": [],
      "name": "pause",
      "outputs": [],
      "stateMutability": "nonpayable",
      "type": "function"
    },
    {
      "inputs": [],
      "name": "paused",
      "outputs": [
        {
          "internalType": "bool",
          "name": "",
          "type": "bool"
        }
      ],
      "stateMutability": "view",
      "type": "function"
    },
    {
      "inputs": [],
      "name": "reflectionFee",
      "outputs": [
        {
          "internalType": "uint256",
          "name": "",
          "type": "uint256"
        }
      ],
      "stateMutability": "view",
      "type": "function"
    },
    {
      "inputs": [
        {
          "internalType": "bytes32",
          "name": "role",
          "type": "bytes32"
        },
        {
          "internalType": "address",
          "name": "account",
          "type": "address"
        }
      ],
      "name": "renounceRole",
      "outputs": [],
      "stateMutability": "nonpayable",
      "type": "function"
    },
    {
      "inputs": [
        {
          "internalType": "bytes32",
          "name": "role",
          "type": "bytes32"
        },
        {
          "internalType": "address",
          "name": "account",
          "type": "address"
        }
      ],
      "name": "revokeRole",
      "outputs": [],
      "stateMutability": "nonpayable",
      "type": "function"
    },
    {
      "inputs": [
        {
          "internalType": "bytes4",
          "name": "interfaceId",
          "type": "bytes4"
        }
      ],
      "name": "supportsInterface",
      "outputs": [
        {
          "internalType": "bool",
          "name": "",
          "type": "bool"
        }
      ],
      "stateMutability": "view",
      "type": "function"
    },
    {
      "inputs": [],
      "name": "symbol",
      "outputs": [
        {
          "internalType": "string",
          "name": "",
          "type": "string"
        }
      ],
      "stateMutability": "view",
      "type": "function"
    },
    {
      "inputs": [],
      "name": "totalSupply",
      "outputs": [
        {
          "internalType": "uint256",
          "name": "",
          "type": "uint256"
        }
      ],
      "stateMutability": "view",
      "type": "function"
    },
    {
      "inputs": [
        {
          "internalType": "address",
          "name": "to",
          "type": "address"
        },
        {
          "internalType": "uint256",
          "name": "amount",
          "type": "uint256"
        }
      ],
      "name": "transfer",
      "outputs": [
        {
          "internalType": "bool",
          "name": "",
          "type": "bool"
        }
      ],
      "stateMutability": "nonpayable",
      "type": "function"
    },
    {
      "inputs": [
        {
          "internalType": "address",
          "name": "from",
          "type": "address"
        },
        {
          "internalType": "address",
          "name": "to",
          "type": "address"
        },
        {
          "internalType": "uint256",
          "name": "amount",
          "type": "uint256"
        }
      ],
      "name": "transferFrom",
      "outputs": [
        {
          "internalType": "bool",
          "name": "",
          "type": "bool"
        }
      ],
      "stateMutability": "nonpayable",
      "type": "function"
    },
    {
      "inputs": [],
      "name": "treasuryWallet",
      "outputs": [
        {
          "internalType": "address",
          "name": "",
          "type": "address"
        }
      ],
      "stateMutability": "view",
      "type": "function"
    },
    {
      "inputs": [],
      "name": "unpause",
      "outputs": [],
      "stateMutability": "nonpayable",
      "type": "function"
    },
    {
      "inputs": [
        {
          "internalType": "uint256",
          "name": "newFee",
          "type": "uint256"
        }
      ],
      "name": "updateReflectionFee",
      "outputs": [],
      "stateMutability": "nonpayable",
      "type": "function"
    },
    {
      "inputs": [
        {
          "internalType": "address",
          "name": "newTreasury",
          "type": "address"
        }
      ],
      "name": "updateTreasuryWallet",
      "outputs": [],
      "stateMutability": "nonpayable",
      "type": "function"
    }
  ],
  "bytecode": "0x6080604052606460075534801561001557600080fd5b5060405161474538038061474583398181016040528101906100379190610a91565b6040518060400160405280600b81526020017f4b61726d6120546f6b656e0000000000000000000000000000000000000000008152506040518060400160405280600381526020017f4b524d000000000000000000000000000000000000000000000000000000000081525081600390816100b29190610d0e565b5080600490816100c29190610d0e565b5050506000600560006101000a81548160ff021916908315150217905550600073ffffffffffffffffffffffffffffffffffffffff168173ffffffffffffffffffffffffffffffffffffffff160361014f576040517f08c379a000000000000000000000000000000000000000000000000000000000815260040161014690610e3d565b60405180910390fd5b6101626000801b3361023160201b60201c565b6101927f65d7a28e3265b37a6474929f336521b332c1681b933f6cb9f3376673440d862a3361023160201b60201c565b6101c27f9f2df0fed2c77648de5860a4cc508cd0818c85b8b8a1ab4ceeef8d981c8956a63361023160201b60201c565b80600860006101000a81548173ffffffffffffffffffffffffffffffffffffffff021916908373ffffffffffffffffffffffffffffffffffffffff16021790555061022b81600a6b033b2e3c9fd0803ce80000006102209190610ebb565b61031e60201b60201c565b506112ac565b610241828261048060201b60201c565b61031a5760016006600084815260200190815260200160002060000160008373ffffffffffffffffffffffffffffffffffffffff1673ffffffffffffffffffffffffffffffffffffffff16815260200190815260200160002060006101000a81548160ff0219169083151502179055506102bf6104eb60201b60201c565b73ffffffffffffffffffffffffffffffffffffffff168173ffffffffffffffffffffffffffffffffffffffff16837f2f8788117e7eff1d82e926ec794901d17c78024a50270940304540a733656f0d60405160405180910390a45b5050565b600073ffffffffffffffffffffffffffffffffffffffff168273ffffffffffffffffffffffffffffffffffffffff160361038d576040517f08c379a000000000000000000000000000000000000000000000000000000000815260040161038490610f38565b60405180910390fd5b61039f600083836104f360201b60201c565b80600260008282546103b19190610f58565b92505081905550806000808473ffffffffffffffffffffffffffffffffffffffff1673ffffffffffffffffffffffffffffffffffffffff168152602001908152602001600020600082825401925050819055508173ffffffffffffffffffffffffffffffffffffffff16600073ffffffffffffffffffffffffffffffffffffffff167fddf252ad1be2c89b69c2b068fc378daa952ba7f163c4a11628f55a4df523b3ef836040516104629190610f9b565b60405180910390a361047c6000838361072760201b60201c565b5050565b60006006600084815260200190815260200160002060000160008373ffffffffffffffffffffffffffffffffffffffff1673ffffffffffffffffffffffffffffffffffffffff16815260200190815260200160002060009054906101000a900460ff16905092915050565b600033905090565b61050483838361072c60201b60201c565b600073ffffffffffffffffffffffffffffffffffffffff168373ffffffffffffffffffffffffffffffffffffffff161415801561056e5750600073ffffffffffffffffffffffffffffffffffffffff168273ffffffffffffffffffffffffffffffffffffffff1614155b15610722576105a37f9f2df0fed2c77648de5860a4cc508cd0818c85b8b8a1ab4ceeef8d981c8956a68461048060201b60201c565b1580156105dd57506105db7f9f2df0fed2c77648de5860a4cc508cd0818c85b8b8a1ab4ceeef8d981c8956a68361048060201b60201c565b155b1561072157600860009054906101000a900473ffffffffffffffffffffffffffffffffffffffff1673ffffffffffffffffffffffffffffffffffffffff168273ffffffffffffffffffffffffffffffffffffffff161415801561068e5750600860009054906101000a900473ffffffffffffffffffffffffffffffffffffffff1673ffffffffffffffffffffffffffffffffffffffff168373ffffffffffffffffffffffffffffffffffffffff1614155b6106cd576040517f08c379a00000000000000000000000000000000000000000000000000000000081526004016106c490611002565b60405180910390fd5b6000612710600754836106e09190611022565b6106ea9190610ebb565b905061071f84600860009054906101000a900473ffffffffffffffffffffffffffffffffffffffff168361079060201b60201c565b505b5b505050565b505050565b61073d838383610a1260201b60201c565b61074b610a1760201b60201c565b1561078b576040517f08c379a0000000000000000000000000000000000000000000000000000000008152600401610782906110d6565b60405180910390fd5b505050565b600073ffffffffffffffffffffffffffffffffffffffff168373ffffffffffffffffffffffffffffffffffffffff16036107ff576040517f08c379a00000000000000000000000000000000000000000000000000000000081526004016107f690611168565b60405180910390fd5b600073ffffffffffffffffffffffffffffffffffffffff168273ffffffffffffffffffffffffffffffffffffffff160361086e576040517f08c379a0000000000000000000000000000000000000000000000000000000008152600401610865906111fa565b60405180910390fd5b61087f8383836104f360201b60201c565b60008060008573ffffffffffffffffffffffffffffffffffffffff1673ffffffffffffffffffffffffffffffffffffffff16815260200190815260200160002054905081811015610905576040517f08c379a00000000000000000000000000000000000000000000000000000000081526004016108fc9061128c565b60405180910390fd5b8181036000808673ffffffffffffffffffffffffffffffffffffffff1673ffffffffffffffffffffffffffffffffffffffff16815260200190815260200160002081905550816000808573ffffffffffffffffffffffffffffffffffffffff1673ffffffffffffffffffffffffffffffffffffffff168152602001908152602001600020600082825401925050819055508273ffffffffffffffffffffffffffffffffffffffff168473ffffffffffffffffffffffffffffffffffffffff167fddf252ad1be2c89b69c2b068fc378daa952ba7f163c4a11628f55a4df523b3ef846040516109f39190610f9b565b60405180910390a3610a0c84848461072760201b60201c565b50505050565b505050565b6000600560009054906101000a900460ff16905090565b600080fd5b600073ffffffffffffffffffffffffffffffffffffffff82169050919050565b6000610a5e82610a33565b9050919050565b610a6e81610a53565b8114610a7957600080fd5b50565b600081519050610a8b81610a65565b92915050565b600060208284031215610aa757610aa6610a2e565b5b6000610ab584828501610a7c565b91505092915050565b600081519050919050565b7f4e487b7100000000000000000000000000000000000000000000000000000000600052604160045260246000fd5b7f4e487b7100000000000000000000000000000000000000000000000000000000600052602260045260246000fd5b60006002820490506001821680610b3f57607f821691505b602082108103610b5257610b51610af8565b5b50919050565b60008190508160005260206000209050919050565b60006020601f8301049050919050565b600082821b905092915050565b600060088302610bba7fffffffffffffffffffffffffffffffffffffffffffffffffffffffffffffffff82610b7d565b610bc48683610b7d565b95508019841693508086168417925050509392505050565b6000819050919050565b6000819050919050565b6000610c0b610c06610c0184610bdc565b610be6565b610bdc565b9050919050565b6000819050919050565b610c2583610bf0565b610c39610c3182610c12565b848454610b8a565b825550505050565b600090565b610c4e610c41565b610c59818484610c1c565b505050565b5b81811015610c7d57610c72600082610c46565b600181019050610c5f565b5050565b601f821115610cc257610c9381610b58565b610c9c84610b6d565b81016020851015610cab578190505b610cbf610cb785610b6d565b830182610c5e565b50505b505050565b600082821c905092915050565b6000610ce560001984600802610cc7565b1980831691505092915050565b6000610cfe8383610cd4565b9150826002028217905092915050565b610d1782610abe565b67ffffffffffffffff811115610d3057610d2f610ac9565b5b610d3a8254610b27565b610d45828285610c81565b600060209050601f831160018114610d785760008415610d66578287015190505b610d708582610cf2565b865550610dd8565b601f198416610d8686610b58565b60005b82811015610dae57848901518255600182019150602085019450602081019050610d89565b86831015610dcb5784890151610dc7601f891682610cd4565b8355505b6001600288020188555050505b505050505050565b600082825260208201905092915050565b7f54726561737572792063616e6e6f74206265207a65726f206164647265737300600082015250565b6000610e27601f83610de0565b9150610e3282610df1565b602082019050919050565b60006020820190508181036000830152610e5681610e1a565b9050919050565b7f4e487b7100000000000000000000000000000000000000000000000000000000600052601260045260246000fd5b7f4e487b7100000000000000000000000000000000000000000000000000000000600052601160045260246000fd5b6000610ec682610bdc565b9150610ed183610bdc565b925082610ee157610ee0610e5d565b5b828204905092915050565b7f45524332303a206d696e7420746f20746865207a65726f206164647265737300600082015250565b6000610f22601f83610de0565b9150610f2d82610eec565b602082019050919050565b60006020820190508181036000830152610f5181610f15565b9050919050565b6000610f6382610bdc565b9150610f6e83610bdc565b9250828201905080821115610f8657610f85610e8c565b5b92915050565b610f9581610bdc565b82525050565b6000602082019050610fb06000830184610f8c565b92915050565b7f4e6f207265666c656374696f6e20776974682074726561737572790000000000600082015250565b6000610fec601b83610de0565b9150610ff782610fb6565b602082019050919050565b6000602082019050818103600083015261101b81610fdf565b9050919050565b600061102d82610bdc565b915061103883610bdc565b925082820261104681610bdc565b9150828204841483151761105d5761105c610e8c565b5b5092915050565b7f45524332305061757361626c653a20746f6b656e207472616e7366657220776860008201527f696c652070617573656400000000000000000000000000000000000000000000602082015250565b60006110c0602a83610de0565b91506110cb82611064565b604082019050919050565b600060208201905081810360008301526110ef816110b3565b9050919050565b7f45524332303a207472616e736665722066726f6d20746865207a65726f20616460008201527f6472657373000000000000000000000000000000000000000000000000000000602082015250565b6000611152602583610de0565b915061115d826110f6565b604082019050919050565b6000602082019050818103600083015261118181611145565b9050919050565b7f45524332303a207472616e7366657220746f20746865207a65726f206164647260008201527f6573730000000000000000000000000000000000000000000000000000000000602082015250565b60006111e4602383610de0565b91506111ef82611188565b604082019050919050565b60006020820190508181036000830152611213816111d7565b9050919050565b7f45524332303a207472616e7366657220616d6f756e742065786365656473206260008201527f616c616e63650000000000000000000000000000000000000000000000000000602082015250565b6000611276602683610de0565b91506112818261121a565b604082019050919050565b600060208201905081810360008301526112a581611269565b9050919050565b61348a806112bb6000396000f3fe608060405234801561001057600080fd5b50600436106101e55760003560e01c80635c975abb1161010f57806395d89b41116100a2578063d539139311610071578063d539139314610580578063d547741f1461059e578063dd62ed3e146105ba578063e63ab1e9146105ea576101e5565b806395d89b41146104e4578063a217fddf14610502578063a457c2d714610520578063a9059cbb14610550576101e5565b8063809d458d116100de578063809d458d1461047057806383ad79941461048c5780638456cb59146104aa57806391d14854146104b4576101e5565b80635c975abb146103ea57806370a082311461040857806372b509281461043857806379cc679014610454576101e5565b8063313ce567116101875780633f4ba83a116101565780633f4ba83a1461038a57806340c10f191461039457806342966c68146103b05780634626402b146103cc576101e5565b8063313ce5671461030257806332cb6b0c1461032057806336568abe1461033e578063395093511461035a576101e5565b806318160ddd116101c357806318160ddd1461026857806323b872dd14610286578063248a9ca3146102b65780632f2ff15d146102e6576101e5565b806301ffc9a7146101ea57806306fdde031461021a578063095ea7b314610238575b600080fd5b61020460048036038101906101ff9190612378565b610608565b60405161021191906123c0565b60405180910390f35b610222610682565b60405161022f919061246b565b60405180910390f35b610252600480360381019061024d9190612521565b610714565b60405161025f91906123c0565b60405180910390f35b610270610737565b60405161027d9190612570565b60405180910390f35b6102a0600480360381019061029b919061258b565b610741565b6040516102ad91906123c0565b60405180910390f35b6102d060048036038101906102cb9190612614565b61092a565b6040516102dd9190612650565b60405180910390f35b61030060048036038101906102fb919061266b565b61094a565b005b61030a61096b565b60405161031791906126c7565b60405180910390f35b610328610974565b6040516103359190612570565b60405180910390f35b6103586004803603810190610353919061266b565b610984565b005b610374600480360381019061036f9190612521565b610a07565b60405161038191906123c0565b60405180910390f35b610392610a3e565b005b6103ae60048036038101906103a99190612521565b610a73565b005b6103ca60048036038101906103c591906126e2565b610b0d565b005b6103d4610b21565b6040516103e1919061271e565b60405180910390f35b6103f2610b47565b6040516103ff91906123c0565b60405180910390f35b610422600480360381019061041d9190612739565b610b5e565b60405161042f9190612570565b60405180910390f35b610452600480360381019061044d91906126e2565b610ba6565b005b61046e60048036038101906104699190612521565b610c3a565b005b61048a60048036038101906104859190612739565b610c5a565b005b610494610d52565b6040516104a19190612570565b60405180910390f35b6104b2610d58565b005b6104ce60048036038101906104c9919061266b565b610d8d565b6040516104db91906123c0565b60405180910390f35b6104ec610df8565b6040516104f9919061246b565b60405180910390f35b61050a610e8a565b6040516105179190612650565b60405180910390f35b61053a60048036038101906105359190612521565b610e91565b60405161054791906123c0565b60405180910390f35b61056a60048036038101906105659190612521565b610f08565b60405161057791906123c0565b60405180910390f35b6105886110dd565b6040516105959190612650565b60405180910390f35b6105b860048036038101906105b3919061266b565b611101565b005b6105d460048036038101906105cf9190612766565b611122565b6040516105e19190612570565b60405180910390f35b6105f26111a9565b6040516105ff9190612650565b60405180910390f35b60007f7965db0b000000000000000000000000000000000000000000000000000000007bffffffffffffffffffffffffffffffffffffffffffffffffffffffff1916827bffffffffffffffffffffffffffffffffffffffffffffffffffffffff1916148061067b575061067a826111cd565b5b9050919050565b606060038054610691906127d5565b80601f01602080910402602001604051908101604052809291908181526020018280546106bd906127d5565b801561070a5780601f106106df5761010080835404028352916020019161070a565b820191906000526020600020905b8154815290600101906020018083116106ed57829003601f168201915b5050505050905090565b60008061071f611237565b905061072c81858561123f565b600191505092915050565b6000600254905090565b600061076d7f9f2df0fed2c77648de5860a4cc508cd0818c85b8b8a1ab4ceeef8d981c8956a685610d8d565b1580156107a1575061079f7f9f2df0fed2c77648de5860a4cc508cd0818c85b8b8a1ab4ceeef8d981c8956a684610d8d565b155b1561091557600860009054906101000a900473ffffffffffffffffffffffffffffffffffffffff1673ffffffffffffffffffffffffffffffffffffffff168373ffffffffffffffffffffffffffffffffffffffff16141580156108525750600860009054906101000a900473ffffffffffffffffffffffffffffffffffffffff1673ffffffffffffffffffffffffffffffffffffffff168473ffffffffffffffffffffffffffffffffffffffff1614155b610891576040517f08c379a000000000000000000000000000000000000000000000000000000000815260040161088890612852565b60405180910390fd5b6000612710600754846108a491906128a1565b6108ae9190612912565b9050600081846108be9190612943565b90506108d2866108cc611237565b86611408565b6108ff86600860009054906101000a900473ffffffffffffffffffffffffffffffffffffffff1684611494565b61090a868683611494565b600192505050610923565b61092084848461170a565b90505b9392505050565b600060066000838152602001908152602001600020600101549050919050565b6109538261092a565b61095c81611739565b610966838361174d565b505050565b60006012905090565b6b033b2e3c9fd0803ce800000081565b61098c611237565b73ffffffffffffffffffffffffffffffffffffffff168173ffffffffffffffffffffffffffffffffffffffff16146109f9576040517f08c379a00000000000000000000000000000000000000000000000000000000081526004016109f0906129e9565b60405180910390fd5b610a03828261182e565b5050565b600080610a12611237565b9050610a33818585610a248589611122565b610a2e9190612a09565b61123f565b600191505092915050565b7f65d7a28e3265b37a6474929f336521b332c1681b933f6cb9f3376673440d862a610a6881611739565b610a70611910565b50565b7f9f2df0fed2c77648de5860a4cc508cd0818c85b8b8a1ab4ceeef8d981c8956a6610a9d81611739565b6b033b2e3c9fd0803ce800000082610ab3610737565b610abd9190612a09565b1115610afe576040517f08c379a0000000000000000000000000000000000000000000000000000000008152600401610af590612a89565b60405180910390fd5b610b088383611973565b505050565b610b1e610b18611237565b82611ac9565b50565b600860009054906101000a900473ffffffffffffffffffffffffffffffffffffffff1681565b6000600560009054906101000a900460ff16905090565b60008060008373ffffffffffffffffffffffffffffffffffffffff1673ffffffffffffffffffffffffffffffffffffffff168152602001908152602001600020549050919050565b6000801b610bb381611739565b6101f4821115610bf8576040517f08c379a0000000000000000000000000000000000000000000000000000000008152600401610bef90612af5565b60405180910390fd5b816007819055507f8518b128247bb734c31c3f85e2de792e4d3830c6d17eb5b6bf6a52dd8f19387282604051610c2e9190612570565b60405180910390a15050565b610c4c82610c46611237565b83611408565b610c568282611ac9565b5050565b6000801b610c6781611739565b600073ffffffffffffffffffffffffffffffffffffffff168273ffffffffffffffffffffffffffffffffffffffff1603610cd6576040517f08c379a0000000000000000000000000000000000000000000000000000000008152600401610ccd90612b61565b60405180910390fd5b81600860006101000a81548173ffffffffffffffffffffffffffffffffffffffff021916908373ffffffffffffffffffffffffffffffffffffffff1602179055507f97c79b3848e51f57983ac89e4403452655c8d83ceba8199011de63a74f60d1a782604051610d46919061271e565b60405180910390a15050565b60075481565b7f65d7a28e3265b37a6474929f336521b332c1681b933f6cb9f3376673440d862a610d8281611739565b610d8a611c96565b50565b60006006600084815260200190815260200160002060000160008373ffffffffffffffffffffffffffffffffffffffff1673ffffffffffffffffffffffffffffffffffffffff16815260200190815260200160002060009054906101000a900460ff16905092915050565b606060048054610e07906127d5565b80601f0160208091040260200160405190810160405280929190818152602001828054610e33906127d5565b8015610e805780601f10610e5557610100808354040283529160200191610e80565b820191906000526020600020905b815481529060010190602001808311610e6357829003601f168201915b5050505050905090565b6000801b81565b600080610e9c611237565b90506000610eaa8286611122565b905083811015610eef576040517f08c379a0000000000000000000000000000000000000000000000000000000008152600401610ee690612bf3565b60405180910390fd5b610efc828686840361123f565b60019250505092915050565b6000610f347f9f2df0fed2c77648de5860a4cc508cd0818c85b8b8a1ab4ceeef8d981c8956a633610d8d565b158015610f685750610f667f9f2df0fed2c77648de5860a4cc508cd0818c85b8b8a1ab4ceeef8d981c8956a684610d8d565b155b156110ca57600860009054906101000a900473ffffffffffffffffffffffffffffffffffffffff1673ffffffffffffffffffffffffffffffffffffffff168373ffffffffffffffffffffffffffffffffffffffff16141580156110195750600860009054906101000a900473ffffffffffffffffffffffffffffffffffffffff1673ffffffffffffffffffffffffffffffffffffffff163373ffffffffffffffffffffffffffffffffffffffff1614155b611058576040517f08c379a000000000000000000000000000000000000000000000000000000000815260040161104f90612852565b60405180910390fd5b60006127106007548461106b91906128a1565b6110759190612912565b9050600081846110859190612943565b90506110b433600860009054906101000a900473ffffffffffffffffffffffffffffffffffffffff1684611494565b6110bf338683611494565b6001925050506110d7565b6110d48383611cf9565b90505b92915050565b7f9f2df0fed2c77648de5860a4cc508cd0818c85b8b8a1ab4ceeef8d981c8956a681565b61110a8261092a565b61111381611739565b61111d838361182e565b505050565b6000600160008473ffffffffffffffffffffffffffffffffffffffff1673ffffffffffffffffffffffffffffffffffffffff16815260200190815260200160002060008373ffffffffffffffffffffffffffffffffffffffff1673ffffffffffffffffffffffffffffffffffffffff16815260200190815260200160002054905092915050565b7f65d7a28e3265b37a6474929f336521b332c1681b933f6cb9f3376673440d862a81565b60007f01ffc9a7000000000000000000000000000000000000000000000000000000007bffffffffffffffffffffffffffffffffffffffffffffffffffffffff1916827bffffffffffffffffffffffffffffffffffffffffffffffffffffffff1916149050919050565b600033905090565b600073ffffffffffffffffffffffffffffffffffffffff168373ffffffffffffffffffffffffffffffffffffffff16036112ae576040517f08c379a00000000000000000000000000000000000000000000000000000000081526004016112a590612c85565b60405180910390fd5b600073ffffffffffffffffffffffffffffffffffffffff168273ffffffffffffffffffffffffffffffffffffffff160361131d576040517f08c379a000000000000000000000000000000000000000000000000000000000815260040161131490612d17565b60405180910390fd5b80600160008573ffffffffffffffffffffffffffffffffffffffff1673ffffffffffffffffffffffffffffffffffffffff16815260200190815260200160002060008473ffffffffffffffffffffffffffffffffffffffff1673ffffffffffffffffffffffffffffffffffffffff168152602001908152602001600020819055508173ffffffffffffffffffffffffffffffffffffffff168373ffffffffffffffffffffffffffffffffffffffff167f8c5be1e5ebec7d5bd14f71427d1e84f3dd0314c0f7b2291e5b200ac8c7c3b925836040516113fb9190612570565b60405180910390a3505050565b60006114148484611122565b90507fffffffffffffffffffffffffffffffffffffffffffffffffffffffffffffffff811461148e5781811015611480576040517f08c379a000000000000000000000000000000000000000000000000000000000815260040161147790612d83565b60405180910390fd5b61148d848484840361123f565b5b50505050565b600073ffffffffffffffffffffffffffffffffffffffff168373ffffffffffffffffffffffffffffffffffffffff1603611503576040517f08c379a00000000000000000000000000000000000000000000000000000000081526004016114fa90612e15565b60405180910390fd5b600073ffffffffffffffffffffffffffffffffffffffff168273ffffffffffffffffffffffffffffffffffffffff1603611572576040517f08c379a000000000000000000000000000000000000000000000000000000000815260040161156990612ea7565b60405180910390fd5b61157d838383611d1c565b60008060008573ffffffffffffffffffffffffffffffffffffffff1673ffffffffffffffffffffffffffffffffffffffff16815260200190815260200160002054905081811015611603576040517f08c379a00000000000000000000000000000000000000000000000000000000081526004016115fa90612f39565b60405180910390fd5b8181036000808673ffffffffffffffffffffffffffffffffffffffff1673ffffffffffffffffffffffffffffffffffffffff16815260200190815260200160002081905550816000808573ffffffffffffffffffffffffffffffffffffffff1673ffffffffffffffffffffffffffffffffffffffff168152602001908152602001600020600082825401925050819055508273ffffffffffffffffffffffffffffffffffffffff168473ffffffffffffffffffffffffffffffffffffffff167fddf252ad1be2c89b69c2b068fc378daa952ba7f163c4a11628f55a4df523b3ef846040516116f19190612570565b60405180910390a3611704848484611f38565b50505050565b600080611715611237565b9050611722858285611408565b61172d858585611494565b60019150509392505050565b61174a81611745611237565b611f3d565b50565b6117578282610d8d565b61182a5760016006600084815260200190815260200160002060000160008373ffffffffffffffffffffffffffffffffffffffff1673ffffffffffffffffffffffffffffffffffffffff16815260200190815260200160002060006101000a81548160ff0219169083151502179055506117cf611237565b73ffffffffffffffffffffffffffffffffffffffff168173ffffffffffffffffffffffffffffffffffffffff16837f2f8788117e7eff1d82e926ec794901d17c78024a50270940304540a733656f0d60405160405180910390a45b5050565b6118388282610d8d565b1561190c5760006006600084815260200190815260200160002060000160008373ffffffffffffffffffffffffffffffffffffffff1673ffffffffffffffffffffffffffffffffffffffff16815260200190815260200160002060006101000a81548160ff0219169083151502179055506118b1611237565b73ffffffffffffffffffffffffffffffffffffffff168173ffffffffffffffffffffffffffffffffffffffff16837ff6391f5c32d9c69d2a47ea670b442974b53935d1edc7fd64eb21e047a839171b60405160405180910390a45b5050565b611918611fc2565b6000600560006101000a81548160ff0219169083151502179055507f5db9ee0a495bf2e6ff9c91a7834c1ba4fdd244a5e8aa4e537bd38aeae4b073aa61195c611237565b604051611969919061271e565b60405180910390a1565b600073ffffffffffffffffffffffffffffffffffffffff168273ffffffffffffffffffffffffffffffffffffffff16036119e2576040517f08c379a00000000000000000000000000000000000000000000000000000000081526004016119d990612fa5565b60405180910390fd5b6119ee60008383611d1c565b8060026000828254611a009190612a09565b92505081905550806000808473ffffffffffffffffffffffffffffffffffffffff1673ffffffffffffffffffffffffffffffffffffffff168152602001908152602001600020600082825401925050819055508173ffffffffffffffffffffffffffffffffffffffff16600073ffffffffffffffffffffffffffffffffffffffff167fddf252ad1be2c89b69c2b068fc378daa952ba7f163c4a11628f55a4df523b3ef83604051611ab19190612570565b60405180910390a3611ac560008383611f38565b5050565b600073ffffffffffffffffffffffffffffffffffffffff168273ffffffffffffffffffffffffffffffffffffffff1603611b38576040517f08c379a0000000000000000000000000000000000000000000000000000000008152600401611b2f90613037565b60405180910390fd5b611b4482600083611d1c565b60008060008473ffffffffffffffffffffffffffffffffffffffff1673ffffffffffffffffffffffffffffffffffffffff16815260200190815260200160002054905081811015611bca576040517f08c379a0000000000000000000000000000000000000000000000000000000008152600401611bc1906130c9565b60405180910390fd5b8181036000808573ffffffffffffffffffffffffffffffffffffffff1673ffffffffffffffffffffffffffffffffffffffff1681526020019081526020016000208190555081600260008282540392505081905550600073ffffffffffffffffffffffffffffffffffffffff168373ffffffffffffffffffffffffffffffffffffffff167fddf252ad1be2c89b69c2b068fc378daa952ba7f163c4a11628f55a4df523b3ef84604051611c7d9190612570565b60405180910390a3611c9183600084611f38565b505050565b611c9e61200b565b6001600560006101000a81548160ff0219169083151502179055507f62e78cea01bee320cd4e420270b5ea74000d11b0c9f74754ebdbfc544b05a258611ce2611237565b604051611cef919061271e565b60405180910390a1565b600080611d04611237565b9050611d11818585611494565b600191505092915050565b611d27838383612055565b600073ffffffffffffffffffffffffffffffffffffffff168373ffffffffffffffffffffffffffffffffffffffff1614158015611d915750600073ffffffffffffffffffffffffffffffffffffffff168273ffffffffffffffffffffffffffffffffffffffff1614155b15611f3357611dc07f9f2df0fed2c77648de5860a4cc508cd0818c85b8b8a1ab4ceeef8d981c8956a684610d8d565b158015611df45750611df27f9f2df0fed2c77648de5860a4cc508cd0818c85b8b8a1ab4ceeef8d981c8956a683610d8d565b155b15611f3257600860009054906101000a900473ffffffffffffffffffffffffffffffffffffffff1673ffffffffffffffffffffffffffffffffffffffff168273ffffffffffffffffffffffffffffffffffffffff1614158015611ea55750600860009054906101000a900473ffffffffffffffffffffffffffffffffffffffff1673ffffffffffffffffffffffffffffffffffffffff168373ffffffffffffffffffffffffffffffffffffffff1614155b611ee4576040517f08c379a0000000000000000000000000000000000000000000000000000000008152600401611edb90612852565b60405180910390fd5b600061271060075483611ef791906128a1565b611f019190612912565b9050611f3084600860009054906101000a900473ffffffffffffffffffffffffffffffffffffffff1683611494565b505b5b505050565b505050565b611f478282610d8d565b611fbe57611f54816120ad565b611f628360001c60206120da565b604051602001611f739291906131bd565b6040516020818303038152906040526040517f08c379a0000000000000000000000000000000000000000000000000000000008152600401611fb5919061246b565b60405180910390fd5b5050565b611fca610b47565b612009576040517f08c379a000000000000000000000000000000000000000000000000000000000815260040161200090613243565b60405180910390fd5b565b612013610b47565b15612053576040517f08c379a000000000000000000000000000000000000000000000000000000000815260040161204a906132af565b60405180910390fd5b565b612060838383612316565b612068610b47565b156120a8576040517f08c379a000000000000000000000000000000000000000000000000000000000815260040161209f90613341565b60405180910390fd5b505050565b60606120d38273ffffffffffffffffffffffffffffffffffffffff16601460ff166120da565b9050919050565b6060600060028360026120ed91906128a1565b6120f79190612a09565b67ffffffffffffffff8111156121105761210f613361565b5b6040519080825280601f01601f1916602001820160405280156121425781602001600182028036833780820191505090505b5090507f30000000000000000000000000000000000000000000000000000000000000008160008151811061217a57612179613390565b5b60200101907effffffffffffffffffffffffffffffffffffffffffffffffffffffffffffff1916908160001a9053507f7800000000000000000000000000000000000000000000000000000000000000816001815181106121de576121dd613390565b5b60200101907effffffffffffffffffffffffffffffffffffffffffffffffffffffffffffff1916908160001a9053506000600184600261221e91906128a1565b6122289190612a09565b90505b60018111156122c8577f3031323334353637383961626364656600000000000000000000000000000000600f86166010811061226a57612269613390565b5b1a60f81b82828151811061228157612280613390565b5b60200101907effffffffffffffffffffffffffffffffffffffffffffffffffffffffffffff1916908160001a905350600485901c9450806122c1906133bf565b905061222b565b506000841461230c576040517f08c379a000000000000000000000000000000000000000000000000000000000815260040161230390613434565b60405180910390fd5b8091505092915050565b505050565b600080fd5b60007fffffffff0000000000000000000000000000000000000000000000000000000082169050919050565b61235581612320565b811461236057600080fd5b50565b6000813590506123728161234c565b92915050565b60006020828403121561238e5761238d61231b565b5b600061239c84828501612363565b91505092915050565b60008115159050919050565b6123ba816123a5565b82525050565b60006020820190506123d560008301846123b1565b92915050565b600081519050919050565b600082825260208201905092915050565b60005b838110156124155780820151818401526020810190506123fa565b60008484015250505050565b6000601f19601f8301169050919050565b600061243d826123db565b61244781856123e6565b93506124578185602086016123f7565b61246081612421565b840191505092915050565b600060208201905081810360008301526124858184612432565b905092915050565b600073ffffffffffffffffffffffffffffffffffffffff82169050919050565b60006124b88261248d565b9050919050565b6124c8816124ad565b81146124d357600080fd5b50565b6000813590506124e5816124bf565b92915050565b6000819050919050565b6124fe816124eb565b811461250957600080fd5b50565b60008135905061251b816124f5565b92915050565b600080604083850312156125385761253761231b565b5b6000612546858286016124d6565b92505060206125578582860161250c565b9150509250929050565b61256a816124eb565b82525050565b60006020820190506125856000830184612561565b92915050565b6000806000606084860312156125a4576125a361231b565b5b60006125b2868287016124d6565b93505060206125c3868287016124d6565b92505060406125d48682870161250c565b9150509250925092565b6000819050919050565b6125f1816125de565b81146125fc57600080fd5b50565b60008135905061260e816125e8565b92915050565b60006020828403121561262a5761262961231b565b5b6000612638848285016125ff565b91505092915050565b61264a816125de565b82525050565b60006020820190506126656000830184612641565b92915050565b600080604083850312156126825761268161231b565b5b6000612690858286016125ff565b92505060206126a1858286016124d6565b9150509250929050565b600060ff82169050919050565b6126c1816126ab565b82525050565b60006020820190506126dc60008301846126b8565b92915050565b6000602082840312156126f8576126f761231b565b5b60006127068482850161250c565b91505092915050565b612718816124ad565b82525050565b6000602082019050612733600083018461270f565b92915050565b60006020828403121561274f5761274e61231b565b5b600061275d848285016124d6565b91505092915050565b6000806040838503121561277d5761277c61231b565b5b600061278b858286016124d6565b925050602061279c858286016124d6565b9150509250929050565b7f4e487b7100000000000000000000000000000000000000000000000000000000600052602260045260246000fd5b600060028204905060018216806127ed57607f821691505b602082108103612800576127ff6127a6565b5b50919050565b7f4e6f207265666c656374696f6e20776974682074726561737572790000000000600082015250565b600061283c601b836123e6565b915061284782612806565b602082019050919050565b6000602082019050818103600083015261286b8161282f565b9050919050565b7f4e487b7100000000000000000000000000000000000000000000000000000000600052601160045260246000fd5b60006128ac826124eb565b91506128b7836124eb565b92508282026128c5816124eb565b915082820484148315176128dc576128db612872565b5b5092915050565b7f4e487b7100000000000000000000000000000000000000000000000000000000600052601260045260246000fd5b600061291d826124eb565b9150612928836124eb565b925082612938576129376128e3565b5b828204905092915050565b600061294e826124eb565b9150612959836124eb565b925082820390508181111561297157612970612872565b5b92915050565b7f416363657373436f6e74726f6c3a2063616e206f6e6c792072656e6f756e636560008201527f20726f6c657320666f722073656c660000000000000000000000000000000000602082015250565b60006129d3602f836123e6565b91506129de82612977565b604082019050919050565b60006020820190508181036000830152612a02816129c6565b9050919050565b6000612a14826124eb565b9150612a1f836124eb565b9250828201905080821115612a3757612a36612872565b5b92915050565b7f45786365656473206d617820737570706c790000000000000000000000000000600082015250565b6000612a736012836123e6565b9150612a7e82612a3d565b602082019050919050565b60006020820190508181036000830152612aa281612a66565b9050919050565b7f46656520746f6f20686967680000000000000000000000000000000000000000600082015250565b6000612adf600c836123e6565b9150612aea82612aa9565b602082019050919050565b60006020820190508181036000830152612b0e81612ad2565b9050919050565b7f54726561737572792063616e6e6f74206265207a65726f206164647265737300600082015250565b6000612b4b601f836123e6565b9150612b5682612b15565b602082019050919050565b60006020820190508181036000830152612b7a81612b3e565b9050919050565b7f45524332303a2064656372656173656420616c6c6f77616e63652062656c6f7760008201527f207a65726f000000000000000000000000000000000000000000000000000000602082015250565b6000612bdd6025836123e6565b9150612be882612b81565b604082019050919050565b60006020820190508181036000830152612c0c81612bd0565b9050919050565b7f45524332303a20617070726f76652066726f6d20746865207a65726f2061646460008201527f7265737300000000000000000000000000000000000000000000000000000000602082015250565b6000612c6f6024836123e6565b9150612c7a82612c13565b604082019050919050565b60006020820190508181036000830152612c9e81612c62565b9050919050565b7f45524332303a20617070726f766520746f20746865207a65726f20616464726560008201527f7373000000000000000000000000000000000000000000000000000000000000602082015250565b6000612d016022836123e6565b9150612d0c82612ca5565b604082019050919050565b60006020820190508181036000830152612d3081612cf4565b9050919050565b7f45524332303a20696e73756666696369656e7420616c6c6f77616e6365000000600082015250565b6000612d6d601d836123e6565b9150612d7882612d37565b602082019050919050565b60006020820190508181036000830152612d9c81612d60565b9050919050565b7f45524332303a207472616e736665722066726f6d20746865207a65726f20616460008201527f6472657373000000000000000000000000000000000000000000000000000000602082015250565b6000612dff6025836123e6565b9150612e0a82612da3565b604082019050919050565b60006020820190508181036000830152612e2e81612df2565b9050919050565b7f45524332303a207472616e7366657220746f20746865207a65726f206164647260008201527f6573730000000000000000000000000000000000000000000000000000000000602082015250565b6000612e916023836123e6565b9150612e9c82612e35565b604082019050919050565b60006020820190508181036000830152612ec081612e84565b9050919050565b7f45524332303a207472616e7366657220616d6f756e742065786365656473206260008201527f616c616e63650000000000000000000000000000000000000000000000000000602082015250565b6000612f236026836123e6565b9150612f2e82612ec7565b604082019050919050565b60006020820190508181036000830152612f5281612f16565b9050919050565b7f45524332303a206d696e7420746f20746865207a65726f206164647265737300600082015250565b6000612f8f601f836123e6565b9150612f9a82612f59565b602082019050919050565b60006020820190508181036000830152612fbe81612f82565b9050919050565b7f45524332303a206275726e2066726f6d20746865207a65726f2061646472657360008201527f7300000000000000000000000000000000000000000000000000000000000000602082015250565b60006130216021836123e6565b915061302c82612fc5565b604082019050919050565b6000602082019050818103600083015261305081613014565b9050919050565b7f45524332303a206275726e20616d6f756e7420657863656564732062616c616e60008201527f6365000000000000000000000000000000000000000000000000000000000000602082015250565b60006130b36022836123e6565b91506130be82613057565b604082019050919050565b600060208201905081810360008301526130e2816130a6565b9050919050565b600081905092915050565b7f416363657373436f6e74726f6c3a206163636f756e7420000000000000000000600082015250565b600061312a6017836130e9565b9150613135826130f4565b601782019050919050565b600061314b826123db565b61315581856130e9565b93506131658185602086016123f7565b80840191505092915050565b7f206973206d697373696e6720726f6c6520000000000000000000000000000000600082015250565b60006131a76011836130e9565b91506131b282613171565b601182019050919050565b60006131c88261311d565b91506131d48285613140565b91506131df8261319a565b91506131eb8284613140565b91508190509392505050565b7f5061757361626c653a206e6f7420706175736564000000000000000000000000600082015250565b600061322d6014836123e6565b9150613238826131f7565b602082019050919050565b6000602082019050818103600083015261325c81613220565b9050919050565b7f5061757361626c653a2070617573656400000000000000000000000000000000600082015250565b60006132996010836123e6565b91506132a482613263565b602082019050919050565b600060208201905081810360008301526132c88161328c565b9050919050565b7f45524332305061757361626c653a20746f6b656e207472616e7366657220776860008201527f696c652070617573656400000000000000000000000000000000000000000000602082015250565b600061332b602a836123e6565b9150613336826132cf565b604082019050919050565b6000602082019050818103600083015261335a8161331e565b9050919050565b7f4e487b7100000000000000000000000000000000000000000000000000000000600052604160045260246000fd5b7f4e487b7100000000000000000000000000000000000000000000000000000000600052603260045260246000fd5b60006133ca826124eb565b9150600082036133dd576133dc612872565b5b600182039050919050565b7f537472696e67733a20686578206c656e67746820696e73756666696369656e74600082015250565b600061341e6020836123e6565b9150613429826133e8565b602082019050919050565b6000602082019050818103600083015261344d81613411565b905091905056fea2646970667358221220cc98e120e64d0e6afe4606793f738f2b94784b5c3d1257fa2d45610c4b50c40264736f6c634300081c0033",
  "linkReferences": {},
  "deployedLinkReferences": {}
}