{
  "_format": "hh-sol-artifact-1",
  "contractName": "TimeRegistry",
  "sourceName": "contracts/core/TimeRegistry.sol",
  "abi": [
    {
      "inputs": [],
      "stateMutability": "nonpayable",
      "type": "constructor"
    },
    {
      "anonymous": false,
      "inputs": [
        {
          "indexed": false,
          "internalType": "address",
          "name": "account",
          "type": "address"
        }
      ],
      "name": "Paused",
      "type": "event"
    },
    {
      "anonymous": false,
      "inputs": [
        {
          "indexed": true,
          "internalType": "bytes32",
          "name": "role",
          "type": "bytes32"
        },
        {
          "indexed": true,
          "internalType": "bytes32",
          "name": "previousAdminRole",
          "type": "bytes32"
        },
        {
          "indexed": true,
          "internalType": "bytes32",
          "name": "newAdminRole",
          "type": "bytes32"
        }
      ],
      "name": "RoleAdminChanged",
      "type": "event"
    },
    {
      "anonymous": false,
      "inputs": [
        {
          "indexed": true,
          "internalType": "bytes32",
          "name": "role",
          "type": "bytes32"
        },
        {
          "indexed": true,
          "internalType": "address",
          "name": "account",
          "type": "address"
        },
        {
          "indexed": true,
          "internalType": "address",
          "name": "sender",
          "type": "address"
        }
      ],
      "name": "RoleGranted",
      "type": "event"
    },
    {
      "anonymous": false,
      "inputs": [
        {
          "indexed": true,
          "internalType": "bytes32",
          "name": "role",
          "type": "bytes32"
        },
        {
          "indexed": true,
          "internalType": "address",
          "name": "account",
          "type": "address"
        },
        {
          "indexed": true,
          "internalType": "address",
          "name": "sender",
          "type": "address"
        }
      ],
      "name": "RoleRevoked",
      "type": "event"
    },
    {
      "anonymous": false,
      "inputs": [
        {
          "indexed": true,
          "internalType": "uint256",
          "name": "recordId",
          "type": "uint256"
        },
        {
          "indexed": true,
          "internalType": "address",
          "name": "employee",
          "type": "address"
        },
        {
          "indexed": true,
          "internalType": "address",
          "name": "company",
          "type": "address"
        }
      ],
      "name": "TimeRecordCreated",
      "type": "event"
    },
    {
      "anonymous": false,
      "inputs": [
        {
          "indexed": true,
          "internalType": "uint256",
          "name": "recordId",
          "type": "uint256"
        },
        {
          "indexed": true,
          "internalType": "address",
          "name": "disputer",
          "type": "address"
        }
      ],
      "name": "TimeRecordDisputed",
      "type": "event"
    },
    {
      "anonymous": false,
      "inputs": [
        {
          "indexed": true,
          "internalType": "uint256",
          "name": "recordId",
          "type": "uint256"
        },
        {
          "indexed": true,
          "internalType": "address",
          "name": "rejector",
          "type": "address"
        }
      ],
      "name": "TimeRecordRejected",
      "type": "event"
    },
    {
      "anonymous": false,
      "inputs": [
        {
          "indexed": true,
          "internalType": "uint256",
          "name": "recordId",
          "type": "uint256"
        },
        {
          "indexed": true,
          "internalType": "address",
          "name": "validator",
          "type": "address"
        }
      ],
      "name": "TimeRecordValidated",
      "type": "event"
    },
    {
      "anonymous": false,
      "inputs": [
        {
          "indexed": false,
          "internalType": "address",
          "name": "account",
          "type": "address"
        }
      ],
      "name": "Unpaused",
      "type": "event"
    },
    {
      "inputs": [],
      "name": "ADMIN_ROLE",
      "outputs": [
        {
          "internalType": "bytes32",
          "name": "",
          "type": "bytes32"
        }
      ],
      "stateMutability": "view",
      "type": "function"
    },
    {
      "inputs": [],
      "name": "DEFAULT_ADMIN_ROLE",
      "outputs": [
        {
          "internalType": "bytes32",
          "name": "",
          "type": "bytes32"
        }
      ],
      "stateMutability": "view",
      "type": "function"
    },
    {
      "inputs": [],
      "name": "KARMA_ROLE",
      "outputs": [
        {
          "internalType": "bytes32",
          "name": "",
          "type": "bytes32"
        }
      ],
      "stateMutability": "view",
      "type": "function"
    },
    {
      "inputs": [
        {
          "internalType": "address",
          "name": "",
          "type": "address"
        },
        {
          "internalType": "uint256",
          "name": "",
          "type": "uint256"
        }
      ],
      "name": "companyRecords",
      "outputs": [
        {
          "internalType": "uint256",
          "name": "",
          "type": "uint256"
        }
      ],
      "stateMutability": "view",
      "type": "function"
    },
    {
      "inputs": [
        {
          "internalType": "uint256",
          "name": "recordId",
          "type": "uint256"
        }
      ],
      "name": "disputeTimeRecord",
      "outputs": [],
      "stateMutability": "nonpayable",
      "type": "function"
    },
    {
      "inputs": [
        {
          "internalType": "address",
          "name": "",
          "type": "address"
        },
        {
          "internalType": "uint256",
          "name": "",
          "type": "uint256"
        }
      ],
      "name": "employeeRecords",
      "outputs": [
        {
          "internalType": "uint256",
          "name": "",
          "type": "uint256"
        }
      ],
      "stateMutability": "view",
      "type": "function"
    },
    {
      "inputs": [
        {
          "internalType": "address",
          "name": "company",
          "type": "address"
        }
      ],
      "name": "getCompanyRecords",
      "outputs": [
        {
          "internalType": "uint256[]",
          "name": "",
          "type": "uint256[]"
        }
      ],
      "stateMutability": "view",
      "type": "function"
    },
    {
      "inputs": [
        {
          "internalType": "address",
          "name": "employee",
          "type": "address"
        }
      ],
      "name": "getEmployeeRecords",
      "outputs": [
        {
          "internalType": "uint256[]",
          "name": "",
          "type": "uint256[]"
        }
      ],
      "stateMutability": "view",
      "type": "function"
    },
    {
      "inputs": [
        {
          "internalType": "bytes32",
          "name": "role",
          "type": "bytes32"
        }
      ],
      "name": "getRoleAdmin",
      "outputs": [
        {
          "internalType": "bytes32",
          "name": "",
          "type": "bytes32"
        }
      ],
      "stateMutability": "view",
      "type": "function"
    },
    {
      "inputs": [
        {
          "internalType": "bytes32",
          "name": "role",
          "type": "bytes32"
        },
        {
          "internalType": "address",
          "name": "account",
          "type": "address"
        }
      ],
      "name": "grantRole",
      "outputs": [],
      "stateMutability": "nonpayable",
      "type": "function"
    },
    {
      "inputs": [
        {
          "internalType": "bytes32",
          "name": "role",
          "type": "bytes32"
        },
        {
          "internalType": "address",
          "name": "account",
          "type": "address"
        }
      ],
      "name": "hasRole",
      "outputs": [
        {
          "internalType": "bool",
          "name": "",
          "type": "bool"
        }
      ],
      "stateMutability": "view",
      "type": "function"
    },
    {
      "inputs": [],
      "name": "pause",
      "outputs": [],
      "stateMutability": "nonpayable",
      "type": "function"
    },
    {
      "inputs": [],
      "name": "paused",
      "outputs": [
        {
          "internalType": "bool",
          "name": "",
          "type": "bool"
        }
      ],
      "stateMutability": "view",
      "type": "function"
    },
    {
      "inputs": [
        {
          "internalType": "address",
          "name": "company",
          "type": "address"
        },
        {
          "internalType": "uint256",
          "name": "startTime",
          "type": "uint256"
        },
        {
          "internalType": "uint256",
          "name": "endTime",
          "type": "uint256"
        },
        {
          "internalType": "string",
          "name": "description",
          "type": "string"
        },
        {
          "internalType": "uint256[]",
          "name": "skillIds",
          "type": "uint256[]"
        }
      ],
      "name": "registerTime",
      "outputs": [],
      "stateMutability": "nonpayable",
      "type": "function"
    },
    {
      "inputs": [
        {
          "internalType": "uint256",
          "name": "recordId",
          "type": "uint256"
        }
      ],
      "name": "rejectTimeRecord",
      "outputs": [],
      "stateMutability": "nonpayable",
      "type": "function"
    },
    {
      "inputs": [
        {
          "internalType": "bytes32",
          "name": "role",
          "type": "bytes32"
        },
        {
          "internalType": "address",
          "name": "account",
          "type": "address"
        }
      ],
      "name": "renounceRole",
      "outputs": [],
      "stateMutability": "nonpayable",
      "type": "function"
    },
    {
      "inputs": [
        {
          "internalType": "uint256",
          "name": "recordId",
          "type": "uint256"
        },
        {
          "internalType": "bool",
          "name": "validated",
          "type": "bool"
        }
      ],
      "name": "resolveDispute",
      "outputs": [],
      "stateMutability": "nonpayable",
      "type": "function"
    },
    {
      "inputs": [
        {
          "internalType": "bytes32",
          "name": "role",
          "type": "bytes32"
        },
        {
          "internalType": "address",
          "name": "account",
          "type": "address"
        }
      ],
      "name": "revokeRole",
      "outputs": [],
      "stateMutability": "nonpayable",
      "type": "function"
    },
    {
      "inputs": [
        {
          "internalType": "bytes4",
          "name": "interfaceId",
          "type": "bytes4"
        }
      ],
      "name": "supportsInterface",
      "outputs": [
        {
          "internalType": "bool",
          "name": "",
          "type": "bool"
        }
      ],
      "stateMutability": "view",
      "type": "function"
    },
    {
      "inputs": [
        {
          "internalType": "uint256",
          "name": "",
          "type": "uint256"
        }
      ],
      "name": "timeRecords",
      "outputs": [
        {
          "internalType": "uint256",
          "name": "id",
          "type": "uint256"
        },
        {
          "internalType": "address",
          "name": "employee",
          "type": "address"
        },
        {
          "internalType": "address",
          "name": "company",
          "type": "address"
        },
        {
          "internalType": "uint256",
          "name": "startTime",
          "type": "uint256"
        },
        {
          "internalType": "uint256",
          "name": "endTime",
          "type": "uint256"
        },
        {
          "internalType": "string",
          "name": "description",
          "type": "string"
        },
        {
          "internalType": "enum TimeRegistry.RecordStatus",
          "name": "status",
          "type": "uint8"
        },
        {
          "internalType": "uint256",
          "name": "createdAt",
          "type": "uint256"
        },
        {
          "internalType": "uint256",
          "name": "validatedAt",
          "type": "uint256"
        }
      ],
      "stateMutability": "view",
      "type": "function"
    },
    {
      "inputs": [],
      "name": "unpause",
      "outputs": [],
      "stateMutability": "nonpayable",
      "type": "function"
    },
    {
      "inputs": [
        {
          "internalType": "uint256",
          "name": "recordId",
          "type": "uint256"
        }
      ],
      "name": "validateTimeRecord",
      "outputs": [],
      "stateMutability": "nonpayable",
      "type": "function"
    }
  ],
  "bytecode": "0x608060405234801561001057600080fd5b506000600160006101000a81548160ff02191690831515021790555061003f6000801b3361007460201b60201c565b61006f7f1f4a8853fae4baa0116250328da4015ef744ff86f81340bbdcffb0cfaeaa0bd33361007460201b60201c565b6101d2565b610084828261016060201b60201c565b61015c57600160008084815260200190815260200160002060000160008373ffffffffffffffffffffffffffffffffffffffff1673ffffffffffffffffffffffffffffffffffffffff16815260200190815260200160002060006101000a81548160ff0219169083151502179055506101016101ca60201b60201c565b73ffffffffffffffffffffffffffffffffffffffff168173ffffffffffffffffffffffffffffffffffffffff16837f2f8788117e7eff1d82e926ec794901d17c78024a50270940304540a733656f0d60405160405180910390a45b5050565b600080600084815260200190815260200160002060000160008373ffffffffffffffffffffffffffffffffffffffff1673ffffffffffffffffffffffffffffffffffffffff16815260200190815260200160002060009054906101000a900460ff16905092915050565b600033905090565b612dbc806101e16000396000f3fe608060405234801561001057600080fd5b50600436106101425760003560e01c80635c975abb116100b8578063a217fddf1161007c578063a217fddf14610367578063b012c3d914610385578063d547741f146103a1578063d8db7d51146103bd578063e5f9f1f4146103ed578063f1f25bcb1461040b57610142565b80635c975abb146102b957806375b238fc146102d75780637d42675c146102f55780638456cb591461032d57806391d148541461033757610142565b806334b25ee21161010a57806334b25ee2146101fb57806336568abe146102175780633b552dd5146102335780633f4ba83a146102635780634ba526041461026d5780634cd0286c1461029d57610142565b806301ffc9a7146101475780630ce8ca7714610177578063248a9ca3146101935780632f2ff15d146101c3578063349a915e146101df575b600080fd5b610161600480360381019061015c9190611c72565b61043b565b60405161016e9190611cba565b60405180910390f35b610191600480360381019061018c9190611d0b565b6104b5565b005b6101ad60048036038101906101a89190611d6e565b61065c565b6040516101ba9190611daa565b60405180910390f35b6101dd60048036038101906101d89190611e23565b61067b565b005b6101f960048036038101906101f49190611d0b565b61069c565b005b61021560048036038101906102109190611e8f565b6108d4565b005b610231600480360381019061022c9190611e23565b610a6a565b005b61024d60048036038101906102489190611ecf565b610aed565b60405161025a9190611fba565b60405180910390f35b61026b610b84565b005b61028760048036038101906102829190611fdc565b610bb9565b604051610294919061202b565b60405180910390f35b6102b760048036038101906102b29190612101565b610bea565b005b6102c1611006565b6040516102ce9190611cba565b60405180910390f35b6102df61101d565b6040516102ec9190611daa565b60405180910390f35b61030f600480360381019061030a9190611d0b565b611041565b604051610324999897969594939291906122d3565b60405180910390f35b610335611164565b005b610351600480360381019061034c9190611e23565b611199565b60405161035e9190611cba565b60405180910390f35b61036f611203565b60405161037c9190611daa565b60405180910390f35b61039f600480360381019061039a9190611d0b565b61120a565b005b6103bb60048036038101906103b69190611e23565b6113e8565b005b6103d760048036038101906103d29190611fdc565b611409565b6040516103e4919061202b565b60405180910390f35b6103f561143a565b6040516104029190611daa565b60405180910390f35b61042560048036038101906104209190611ecf565b61145e565b6040516104329190611fba565b60405180910390f35b60007f7965db0b000000000000000000000000000000000000000000000000000000007bffffffffffffffffffffffffffffffffffffffffffffffffffffffff1916827bffffffffffffffffffffffffffffffffffffffffffffffffffffffff191614806104ae57506104ad826114f5565b5b9050919050565b6104bd61155f565b60006003600083815260200190815260200160002090503373ffffffffffffffffffffffffffffffffffffffff168160020160009054906101000a900473ffffffffffffffffffffffffffffffffffffffff1673ffffffffffffffffffffffffffffffffffffffff1614610566576040517f08c379a000000000000000000000000000000000000000000000000000000000815260040161055d906123b3565b60405180910390fd5b6000600381111561057a5761057961225c565b5b8160070160009054906101000a900460ff16600381111561059e5761059d61225c565b5b146105de576040517f08c379a00000000000000000000000000000000000000000000000000000000081526004016105d59061241f565b60405180910390fd5b60018160070160006101000a81548160ff021916908360038111156106065761060561225c565b5b02179055504281600901819055503373ffffffffffffffffffffffffffffffffffffffff16827f1ca35c2dac570c81e597f1fa47b1c1f3a7efe695a83a7fe1899719dd6fbbebd360405160405180910390a35050565b6000806000838152602001908152602001600020600101549050919050565b6106848261065c565b61068d816115a9565b61069783836115bd565b505050565b6106a461155f565b60006003600083815260200190815260200160002090503373ffffffffffffffffffffffffffffffffffffffff168160010160009054906101000a900473ffffffffffffffffffffffffffffffffffffffff1673ffffffffffffffffffffffffffffffffffffffff16148061076857503373ffffffffffffffffffffffffffffffffffffffff168160020160009054906101000a900473ffffffffffffffffffffffffffffffffffffffff1673ffffffffffffffffffffffffffffffffffffffff16145b6107a7576040517f08c379a000000000000000000000000000000000000000000000000000000000815260040161079e906123b3565b60405180910390fd5b600060038111156107bb576107ba61225c565b5b8160070160009054906101000a900460ff1660038111156107df576107de61225c565b5b14806108205750600160038111156107fa576107f961225c565b5b8160070160009054906101000a900460ff16600381111561081e5761081d61225c565b5b145b61085f576040517f08c379a00000000000000000000000000000000000000000000000000000000081526004016108569061248b565b60405180910390fd5b60028160070160006101000a81548160ff021916908360038111156108875761088661225c565b5b02179055503373ffffffffffffffffffffffffffffffffffffffff16827f5c921ac03c65a150122b6edaa2b77a9f2a162d880010ab383bf47c929bf6d15f60405160405180910390a35050565b7fa49807205ce4d355092ef5a8a18f56e8913cf4a201fbe287825b095693c217756108fe816115a9565b6000600360008581526020019081526020016000209050600260038111156109295761092861225c565b5b8160070160009054906101000a900460ff16600381111561094d5761094c61225c565b5b1461098d576040517f08c379a0000000000000000000000000000000000000000000000000000000008152600401610984906124f7565b60405180910390fd5b8261099957600361099c565b60015b8160070160006101000a81548160ff021916908360038111156109c2576109c161225c565b5b02179055508215610a1f574281600901819055503373ffffffffffffffffffffffffffffffffffffffff16847f1ca35c2dac570c81e597f1fa47b1c1f3a7efe695a83a7fe1899719dd6fbbebd360405160405180910390a3610a64565b3373ffffffffffffffffffffffffffffffffffffffff16847f56c12f7c9974ec68c9c2c043fea0a5fec61c3b118f4d3737c610314a19d648b460405160405180910390a35b50505050565b610a7261169d565b73ffffffffffffffffffffffffffffffffffffffff168173ffffffffffffffffffffffffffffffffffffffff1614610adf576040517f08c379a0000000000000000000000000000000000000000000000000000000008152600401610ad690612589565b60405180910390fd5b610ae982826116a5565b5050565b6060600560008373ffffffffffffffffffffffffffffffffffffffff1673ffffffffffffffffffffffffffffffffffffffff168152602001908152602001600020805480602002602001604051908101604052809291908181526020018280548015610b7857602002820191906000526020600020905b815481526020019060010190808311610b64575b50505050509050919050565b7fa49807205ce4d355092ef5a8a18f56e8913cf4a201fbe287825b095693c21775610bae816115a9565b610bb6611786565b50565b60046020528160005260406000208181548110610bd557600080fd5b90600052602060002001600091509150505481565b610bf261155f565b848610610c34576040517f08c379a0000000000000000000000000000000000000000000000000000000008152600401610c2b906125f5565b60405180910390fd5b60008611610c77576040517f08c379a0000000000000000000000000000000000000000000000000000000008152600401610c6e90612661565b60405180910390fd5b6000610c8360026117e9565b9050610c8f60026117f7565b6040518061014001604052808281526020013373ffffffffffffffffffffffffffffffffffffffff1681526020018973ffffffffffffffffffffffffffffffffffffffff16815260200188815260200187815260200186868080601f016020809104026020016040519081016040528093929190818152602001838380828437600081840152601f19601f820116905080830192505050505050508152602001848480806020026020016040519081016040528093929190818152602001838360200280828437600081840152601f19601f82011690508083019250505050505050815260200160006003811115610d8a57610d8961225c565b5b81526020014281526020016000815250600360008381526020019081526020016000206000820151816000015560208201518160010160006101000a81548173ffffffffffffffffffffffffffffffffffffffff021916908373ffffffffffffffffffffffffffffffffffffffff16021790555060408201518160020160006101000a81548173ffffffffffffffffffffffffffffffffffffffff021916908373ffffffffffffffffffffffffffffffffffffffff160217905550606082015181600301556080820151816004015560a0820151816005019081610e6e91906128bc565b5060c0820151816006019080519060200190610e8b929190611ba6565b5060e08201518160070160006101000a81548160ff02191690836003811115610eb757610eb661225c565b5b021790555061010082015181600801556101208201518160090155905050600460003373ffffffffffffffffffffffffffffffffffffffff1673ffffffffffffffffffffffffffffffffffffffff168152602001908152602001600020819080600181540180825580915050600190039060005260206000200160009091909190915055600560008973ffffffffffffffffffffffffffffffffffffffff1673ffffffffffffffffffffffffffffffffffffffff1681526020019081526020016000208190806001815401808255809150506001900390600052602060002001600090919091909150558773ffffffffffffffffffffffffffffffffffffffff163373ffffffffffffffffffffffffffffffffffffffff16827f3e2a6c88dae16928c51741471559281a485e725885d2aafea597127bdefe044360405160405180910390a45050505050505050565b6000600160009054906101000a900460ff16905090565b7fa49807205ce4d355092ef5a8a18f56e8913cf4a201fbe287825b095693c2177581565b60036020528060005260406000206000915090508060000154908060010160009054906101000a900473ffffffffffffffffffffffffffffffffffffffff16908060020160009054906101000a900473ffffffffffffffffffffffffffffffffffffffff16908060030154908060040154908060050180546110c2906126df565b80601f01602080910402602001604051908101604052809291908181526020018280546110ee906126df565b801561113b5780601f106111105761010080835404028352916020019161113b565b820191906000526020600020905b81548152906001019060200180831161111e57829003601f168201915b5050505050908060070160009054906101000a900460ff16908060080154908060090154905089565b7fa49807205ce4d355092ef5a8a18f56e8913cf4a201fbe287825b095693c2177561118e816115a9565b61119661180d565b50565b600080600084815260200190815260200160002060000160008373ffffffffffffffffffffffffffffffffffffffff1673ffffffffffffffffffffffffffffffffffffffff16815260200190815260200160002060009054906101000a900460ff16905092915050565b6000801b81565b61121261155f565b60006003600083815260200190815260200160002090503373ffffffffffffffffffffffffffffffffffffffff168160020160009054906101000a900473ffffffffffffffffffffffffffffffffffffffff1673ffffffffffffffffffffffffffffffffffffffff16146112bb576040517f08c379a00000000000000000000000000000000000000000000000000000000081526004016112b2906123b3565b60405180910390fd5b600060038111156112cf576112ce61225c565b5b8160070160009054906101000a900460ff1660038111156112f3576112f261225c565b5b148061133457506002600381111561130e5761130d61225c565b5b8160070160009054906101000a900460ff1660038111156113325761133161225c565b5b145b611373576040517f08c379a000000000000000000000000000000000000000000000000000000000815260040161136a906129da565b60405180910390fd5b60038160070160006101000a81548160ff0219169083600381111561139b5761139a61225c565b5b02179055503373ffffffffffffffffffffffffffffffffffffffff16827f56c12f7c9974ec68c9c2c043fea0a5fec61c3b118f4d3737c610314a19d648b460405160405180910390a35050565b6113f18261065c565b6113fa816115a9565b61140483836116a5565b505050565b6005602052816000526040600020818154811061142557600080fd5b90600052602060002001600091509150505481565b7f1f4a8853fae4baa0116250328da4015ef744ff86f81340bbdcffb0cfaeaa0bd381565b6060600460008373ffffffffffffffffffffffffffffffffffffffff1673ffffffffffffffffffffffffffffffffffffffff1681526020019081526020016000208054806020026020016040519081016040528092919081815260200182805480156114e957602002820191906000526020600020905b8154815260200190600101908083116114d5575b50505050509050919050565b60007f01ffc9a7000000000000000000000000000000000000000000000000000000007bffffffffffffffffffffffffffffffffffffffffffffffffffffffff1916827bffffffffffffffffffffffffffffffffffffffffffffffffffffffff1916149050919050565b611567611006565b156115a7576040517f08c379a000000000000000000000000000000000000000000000000000000000815260040161159e90612a46565b60405180910390fd5b565b6115ba816115b561169d565b61186f565b50565b6115c78282611199565b61169957600160008084815260200190815260200160002060000160008373ffffffffffffffffffffffffffffffffffffffff1673ffffffffffffffffffffffffffffffffffffffff16815260200190815260200160002060006101000a81548160ff02191690831515021790555061163e61169d565b73ffffffffffffffffffffffffffffffffffffffff168173ffffffffffffffffffffffffffffffffffffffff16837f2f8788117e7eff1d82e926ec794901d17c78024a50270940304540a733656f0d60405160405180910390a45b5050565b600033905090565b6116af8282611199565b1561178257600080600084815260200190815260200160002060000160008373ffffffffffffffffffffffffffffffffffffffff1673ffffffffffffffffffffffffffffffffffffffff16815260200190815260200160002060006101000a81548160ff02191690831515021790555061172761169d565b73ffffffffffffffffffffffffffffffffffffffff168173ffffffffffffffffffffffffffffffffffffffff16837ff6391f5c32d9c69d2a47ea670b442974b53935d1edc7fd64eb21e047a839171b60405160405180910390a45b5050565b61178e6118f4565b6000600160006101000a81548160ff0219169083151502179055507f5db9ee0a495bf2e6ff9c91a7834c1ba4fdd244a5e8aa4e537bd38aeae4b073aa6117d261169d565b6040516117df9190612a66565b60405180910390a1565b600081600001549050919050565b6001816000016000828254019250508190555050565b61181561155f565b60018060006101000a81548160ff0219169083151502179055507f62e78cea01bee320cd4e420270b5ea74000d11b0c9f74754ebdbfc544b05a25861185861169d565b6040516118659190612a66565b60405180910390a1565b6118798282611199565b6118f0576118868161193d565b6118948360001c602061196a565b6040516020016118a5929190612b55565b6040516020818303038152906040526040517f08c379a00000000000000000000000000000000000000000000000000000000081526004016118e79190612b8f565b60405180910390fd5b5050565b6118fc611006565b61193b576040517f08c379a000000000000000000000000000000000000000000000000000000000815260040161193290612bfd565b60405180910390fd5b565b60606119638273ffffffffffffffffffffffffffffffffffffffff16601460ff1661196a565b9050919050565b60606000600283600261197d9190612c4c565b6119879190612c8e565b67ffffffffffffffff8111156119a05761199f612681565b5b6040519080825280601f01601f1916602001820160405280156119d25781602001600182028036833780820191505090505b5090507f300000000000000000000000000000000000000000000000000000000000000081600081518110611a0a57611a09612cc2565b5b60200101907effffffffffffffffffffffffffffffffffffffffffffffffffffffffffffff1916908160001a9053507f780000000000000000000000000000000000000000000000000000000000000081600181518110611a6e57611a6d612cc2565b5b60200101907effffffffffffffffffffffffffffffffffffffffffffffffffffffffffffff1916908160001a90535060006001846002611aae9190612c4c565b611ab89190612c8e565b90505b6001811115611b58577f3031323334353637383961626364656600000000000000000000000000000000600f861660108110611afa57611af9612cc2565b5b1a60f81b828281518110611b1157611b10612cc2565b5b60200101907effffffffffffffffffffffffffffffffffffffffffffffffffffffffffffff1916908160001a905350600485901c945080611b5190612cf1565b9050611abb565b5060008414611b9c576040517f08c379a0000000000000000000000000000000000000000000000000000000008152600401611b9390612d66565b60405180910390fd5b8091505092915050565b828054828255906000526020600020908101928215611be2579160200282015b82811115611be1578251825591602001919060010190611bc6565b5b509050611bef9190611bf3565b5090565b5b80821115611c0c576000816000905550600101611bf4565b5090565b600080fd5b600080fd5b60007fffffffff0000000000000000000000000000000000000000000000000000000082169050919050565b611c4f81611c1a565b8114611c5a57600080fd5b50565b600081359050611c6c81611c46565b92915050565b600060208284031215611c8857611c87611c10565b5b6000611c9684828501611c5d565b91505092915050565b60008115159050919050565b611cb481611c9f565b82525050565b6000602082019050611ccf6000830184611cab565b92915050565b6000819050919050565b611ce881611cd5565b8114611cf357600080fd5b50565b600081359050611d0581611cdf565b92915050565b600060208284031215611d2157611d20611c10565b5b6000611d2f84828501611cf6565b91505092915050565b6000819050919050565b611d4b81611d38565b8114611d5657600080fd5b50565b600081359050611d6881611d42565b92915050565b600060208284031215611d8457611d83611c10565b5b6000611d9284828501611d59565b91505092915050565b611da481611d38565b82525050565b6000602082019050611dbf6000830184611d9b565b92915050565b600073ffffffffffffffffffffffffffffffffffffffff82169050919050565b6000611df082611dc5565b9050919050565b611e0081611de5565b8114611e0b57600080fd5b50565b600081359050611e1d81611df7565b92915050565b60008060408385031215611e3a57611e39611c10565b5b6000611e4885828601611d59565b9250506020611e5985828601611e0e565b9150509250929050565b611e6c81611c9f565b8114611e7757600080fd5b50565b600081359050611e8981611e63565b92915050565b60008060408385031215611ea657611ea5611c10565b5b6000611eb485828601611cf6565b9250506020611ec585828601611e7a565b9150509250929050565b600060208284031215611ee557611ee4611c10565b5b6000611ef384828501611e0e565b91505092915050565b600081519050919050565b600082825260208201905092915050565b6000819050602082019050919050565b611f3181611cd5565b82525050565b6000611f438383611f28565b60208301905092915050565b6000602082019050919050565b6000611f6782611efc565b611f718185611f07565b9350611f7c83611f18565b8060005b83811015611fad578151611f948882611f37565b9750611f9f83611f4f565b925050600181019050611f80565b5085935050505092915050565b60006020820190508181036000830152611fd48184611f5c565b905092915050565b60008060408385031215611ff357611ff2611c10565b5b600061200185828601611e0e565b925050602061201285828601611cf6565b9150509250929050565b61202581611cd5565b82525050565b6000602082019050612040600083018461201c565b92915050565b600080fd5b600080fd5b600080fd5b60008083601f84011261206b5761206a612046565b5b8235905067ffffffffffffffff8111156120885761208761204b565b5b6020830191508360018202830111156120a4576120a3612050565b5b9250929050565b60008083601f8401126120c1576120c0612046565b5b8235905067ffffffffffffffff8111156120de576120dd61204b565b5b6020830191508360208202830111156120fa576120f9612050565b5b9250929050565b600080600080600080600060a0888a0312156121205761211f611c10565b5b600061212e8a828b01611e0e565b975050602061213f8a828b01611cf6565b96505060406121508a828b01611cf6565b955050606088013567ffffffffffffffff81111561217157612170611c15565b5b61217d8a828b01612055565b9450945050608088013567ffffffffffffffff8111156121a05761219f611c15565b5b6121ac8a828b016120ab565b925092505092959891949750929550565b6121c681611de5565b82525050565b600081519050919050565b600082825260208201905092915050565b60005b838110156122065780820151818401526020810190506121eb565b60008484015250505050565b6000601f19601f8301169050919050565b600061222e826121cc565b61223881856121d7565b93506122488185602086016121e8565b61225181612212565b840191505092915050565b7f4e487b7100000000000000000000000000000000000000000000000000000000600052602160045260246000fd5b6004811061229c5761229b61225c565b5b50565b60008190506122ad8261228b565b919050565b60006122bd8261229f565b9050919050565b6122cd816122b2565b82525050565b6000610120820190506122e9600083018c61201c565b6122f6602083018b6121bd565b612303604083018a6121bd565b612310606083018961201c565b61231d608083018861201c565b81810360a083015261232f8187612223565b905061233e60c08301866122c4565b61234b60e083018561201c565b61235961010083018461201c565b9a9950505050505050505050565b7f4e6f7420617574686f72697a6564000000000000000000000000000000000000600082015250565b600061239d600e836121d7565b91506123a882612367565b602082019050919050565b600060208201905081810360008301526123cc81612390565b9050919050565b7f4e6f742070656e64696e67000000000000000000000000000000000000000000600082015250565b6000612409600b836121d7565b9150612414826123d3565b602082019050919050565b60006020820190508181036000830152612438816123fc565b9050919050565b7f43616e6e6f742064697370757465000000000000000000000000000000000000600082015250565b6000612475600e836121d7565b91506124808261243f565b602082019050919050565b600060208201905081810360008301526124a481612468565b9050919050565b7f4e6f742064697370757465640000000000000000000000000000000000000000600082015250565b60006124e1600c836121d7565b91506124ec826124ab565b602082019050919050565b60006020820190508181036000830152612510816124d4565b9050919050565b7f416363657373436f6e74726f6c3a2063616e206f6e6c792072656e6f756e636560008201527f20726f6c657320666f722073656c660000000000000000000000000000000000602082015250565b6000612573602f836121d7565b915061257e82612517565b604082019050919050565b600060208201905081810360008301526125a281612566565b9050919050565b7f496e76616c69642074696d652072616e67650000000000000000000000000000600082015250565b60006125df6012836121d7565b91506125ea826125a9565b602082019050919050565b6000602082019050818103600083015261260e816125d2565b9050919050565b7f496e76616c69642073746172742074696d650000000000000000000000000000600082015250565b600061264b6012836121d7565b915061265682612615565b602082019050919050565b6000602082019050818103600083015261267a8161263e565b9050919050565b7f4e487b7100000000000000000000000000000000000000000000000000000000600052604160045260246000fd5b7f4e487b7100000000000000000000000000000000000000000000000000000000600052602260045260246000fd5b600060028204905060018216806126f757607f821691505b60208210810361270a576127096126b0565b5b50919050565b60008190508160005260206000209050919050565b60006020601f8301049050919050565b600082821b905092915050565b6000600883026127727fffffffffffffffffffffffffffffffffffffffffffffffffffffffffffffffff82612735565b61277c8683612735565b95508019841693508086168417925050509392505050565b6000819050919050565b60006127b96127b46127af84611cd5565b612794565b611cd5565b9050919050565b6000819050919050565b6127d38361279e565b6127e76127df826127c0565b848454612742565b825550505050565b600090565b6127fc6127ef565b6128078184846127ca565b505050565b5b8181101561282b576128206000826127f4565b60018101905061280d565b5050565b601f8211156128705761284181612710565b61284a84612725565b81016020851015612859578190505b61286d61286585612725565b83018261280c565b50505b505050565b600082821c905092915050565b600061289360001984600802612875565b1980831691505092915050565b60006128ac8383612882565b9150826002028217905092915050565b6128c5826121cc565b67ffffffffffffffff8111156128de576128dd612681565b5b6128e882546126df565b6128f382828561282f565b600060209050601f8311600181146129265760008415612914578287015190505b61291e85826128a0565b865550612986565b601f19841661293486612710565b60005b8281101561295c57848901518255600182019150602085019450602081019050612937565b868310156129795784890151612975601f891682612882565b8355505b6001600288020188555050505b505050505050565b7f43616e6e6f742072656a65637400000000000000000000000000000000000000600082015250565b60006129c4600d836121d7565b91506129cf8261298e565b602082019050919050565b600060208201905081810360008301526129f3816129b7565b9050919050565b7f5061757361626c653a2070617573656400000000000000000000000000000000600082015250565b6000612a306010836121d7565b9150612a3b826129fa565b602082019050919050565b60006020820190508181036000830152612a5f81612a23565b9050919050565b6000602082019050612a7b60008301846121bd565b92915050565b600081905092915050565b7f416363657373436f6e74726f6c3a206163636f756e7420000000000000000000600082015250565b6000612ac2601783612a81565b9150612acd82612a8c565b601782019050919050565b6000612ae3826121cc565b612aed8185612a81565b9350612afd8185602086016121e8565b80840191505092915050565b7f206973206d697373696e6720726f6c6520000000000000000000000000000000600082015250565b6000612b3f601183612a81565b9150612b4a82612b09565b601182019050919050565b6000612b6082612ab5565b9150612b6c8285612ad8565b9150612b7782612b32565b9150612b838284612ad8565b91508190509392505050565b60006020820190508181036000830152612ba98184612223565b905092915050565b7f5061757361626c653a206e6f7420706175736564000000000000000000000000600082015250565b6000612be76014836121d7565b9150612bf282612bb1565b602082019050919050565b60006020820190508181036000830152612c1681612bda565b9050919050565b7f4e487b7100000000000000000000000000000000000000000000000000000000600052601160045260246000fd5b6000612c5782611cd5565b9150612c6283611cd5565b9250828202612c7081611cd5565b91508282048414831517612c8757612c86612c1d565b5b5092915050565b6000612c9982611cd5565b9150612ca483611cd5565b9250828201905080821115612cbc57612cbb612c1d565b5b92915050565b7f4e487b7100000000000000000000000000000000000000000000000000000000600052603260045260246000fd5b6000612cfc82611cd5565b915060008203612d0f57612d0e612c1d565b5b600182039050919050565b7f537472696e67733a20686578206c656e67746820696e73756666696369656e74600082015250565b6000612d506020836121d7565b9150612d5b82612d1a565b602082019050919050565b60006020820190508181036000830152612d7f81612d43565b905091905056fea26469706673582212209c67b12e616e6c96842e3f0f4a2455320c9b621567aead6c774d366cc1f9687f64736f6c634300081c0033",
  "linkReferences": {},
  "deployedLinkReferences": {}
}