{
  "_format": "hh-sol-artifact-1",
  "contractName": "ProfileRegistry",
  "sourceName": "contracts/core/ProfileRegistry.sol",
  "abi": [
    {
      "inputs": [],
      "stateMutability": "nonpayable",
      "type": "constructor"
    },
    {
      "anonymous": false,
      "inputs": [
        {
          "indexed": false,
          "internalType": "address",
          "name": "account",
          "type": "address"
        }
      ],
      "name": "Paused",
      "type": "event"
    },
    {
      "anonymous": false,
      "inputs": [
        {
          "indexed": true,
          "internalType": "address",
          "name": "wallet",
          "type": "address"
        },
        {
          "indexed": false,
          "internalType": "bool",
          "name": "isCompany",
          "type": "bool"
        }
      ],
      "name": "ProfileRegistered",
      "type": "event"
    },
    {
      "anonymous": false,
      "inputs": [
        {
          "indexed": true,
          "internalType": "address",
          "name": "wallet",
          "type": "address"
        }
      ],
      "name": "ProfileUpdated",
      "type": "event"
    },
    {
      "anonymous": false,
      "inputs": [
        {
          "indexed": true,
          "internalType": "address",
          "name": "wallet",
          "type": "address"
        },
        {
          "indexed": true,
          "internalType": "address",
          "name": "verifier",
          "type": "address"
        }
      ],
      "name": "ProfileVerified",
      "type": "event"
    },
    {
      "anonymous": false,
      "inputs": [
        {
          "indexed": true,
          "internalType": "bytes32",
          "name": "role",
          "type": "bytes32"
        },
        {
          "indexed": true,
          "internalType": "bytes32",
          "name": "previousAdminRole",
          "type": "bytes32"
        },
        {
          "indexed": true,
          "internalType": "bytes32",
          "name": "newAdminRole",
          "type": "bytes32"
        }
      ],
      "name": "RoleAdminChanged",
      "type": "event"
    },
    {
      "anonymous": false,
      "inputs": [
        {
          "indexed": true,
          "internalType": "bytes32",
          "name": "role",
          "type": "bytes32"
        },
        {
          "indexed": true,
          "internalType": "address",
          "name": "account",
          "type": "address"
        },
        {
          "indexed": true,
          "internalType": "address",
          "name": "sender",
          "type": "address"
        }
      ],
      "name": "RoleGranted",
      "type": "event"
    },
    {
      "anonymous": false,
      "inputs": [
        {
          "indexed": true,
          "internalType": "bytes32",
          "name": "role",
          "type": "bytes32"
        },
        {
          "indexed": true,
          "internalType": "address",
          "name": "account",
          "type": "address"
        },
        {
          "indexed": true,
          "internalType": "address",
          "name": "sender",
          "type": "address"
        }
      ],
      "name": "RoleRevoked",
      "type": "event"
    },
    {
      "anonymous": false,
      "inputs": [
        {
          "indexed": false,
          "internalType": "address",
          "name": "account",
          "type": "address"
        }
      ],
      "name": "Unpaused",
      "type": "event"
    },
    {
      "inputs": [],
      "name": "ADMIN_ROLE",
      "outputs": [
        {
          "internalType": "bytes32",
          "name": "",
          "type": "bytes32"
        }
      ],
      "stateMutability": "view",
      "type": "function"
    },
    {
      "inputs": [],
      "name": "DEFAULT_ADMIN_ROLE",
      "outputs": [
        {
          "internalType": "bytes32",
          "name": "",
          "type": "bytes32"
        }
      ],
      "stateMutability": "view",
      "type": "function"
    },
    {
      "inputs": [],
      "name": "VERIFIER_ROLE",
      "outputs": [
        {
          "internalType": "bytes32",
          "name": "",
          "type": "bytes32"
        }
      ],
      "stateMutability": "view",
      "type": "function"
    },
    {
      "inputs": [
        {
          "internalType": "address",
          "name": "wallet",
          "type": "address"
        }
      ],
      "name": "deactivateProfile",
      "outputs": [],
      "stateMutability": "nonpayable",
      "type": "function"
    },
    {
      "inputs": [
        {
          "internalType": "bytes32",
          "name": "role",
          "type": "bytes32"
        }
      ],
      "name": "getRoleAdmin",
      "outputs": [
        {
          "internalType": "bytes32",
          "name": "",
          "type": "bytes32"
        }
      ],
      "stateMutability": "view",
      "type": "function"
    },
    {
      "inputs": [
        {
          "internalType": "bytes32",
          "name": "role",
          "type": "bytes32"
        },
        {
          "internalType": "address",
          "name": "account",
          "type": "address"
        }
      ],
      "name": "grantRole",
      "outputs": [],
      "stateMutability": "nonpayable",
      "type": "function"
    },
    {
      "inputs": [
        {
          "internalType": "bytes32",
          "name": "role",
          "type": "bytes32"
        },
        {
          "internalType": "address",
          "name": "account",
          "type": "address"
        }
      ],
      "name": "hasRole",
      "outputs": [
        {
          "internalType": "bool",
          "name": "",
          "type": "bool"
        }
      ],
      "stateMutability": "view",
      "type": "function"
    },
    {
      "inputs": [],
      "name": "pause",
      "outputs": [],
      "stateMutability": "nonpayable",
      "type": "function"
    },
    {
      "inputs": [],
      "name": "paused",
      "outputs": [
        {
          "internalType": "bool",
          "name": "",
          "type": "bool"
        }
      ],
      "stateMutability": "view",
      "type": "function"
    },
    {
      "inputs": [
        {
          "internalType": "address",
          "name": "",
          "type": "address"
        }
      ],
      "name": "profiles",
      "outputs": [
        {
          "internalType": "address",
          "name": "wallet",
          "type": "address"
        },
        {
          "internalType": "bool",
          "name": "isActive",
          "type": "bool"
        },
        {
          "internalType": "bool",
          "name": "isCompany",
          "type": "bool"
        },
        {
          "internalType": "uint256",
          "name": "karma",
          "type": "uint256"
        },
        {
          "internalType": "string",
          "name": "metadataURI",
          "type": "string"
        },
        {
          "internalType": "uint256",
          "name": "createdAt",
          "type": "uint256"
        },
        {
          "internalType": "uint256",
          "name": "updatedAt",
          "type": "uint256"
        }
      ],
      "stateMutability": "view",
      "type": "function"
    },
    {
      "inputs": [
        {
          "internalType": "bool",
          "name": "isCompany",
          "type": "bool"
        },
        {
          "internalType": "string",
          "name": "metadataURI",
          "type": "string"
        }
      ],
      "name": "registerProfile",
      "outputs": [],
      "stateMutability": "nonpayable",
      "type": "function"
    },
    {
      "inputs": [
        {
          "internalType": "bytes32",
          "name": "role",
          "type": "bytes32"
        },
        {
          "internalType": "address",
          "name": "account",
          "type": "address"
        }
      ],
      "name": "renounceRole",
      "outputs": [],
      "stateMutability": "nonpayable",
      "type": "function"
    },
    {
      "inputs": [
        {
          "internalType": "bytes32",
          "name": "role",
          "type": "bytes32"
        },
        {
          "internalType": "address",
          "name": "account",
          "type": "address"
        }
      ],
      "name": "revokeRole",
      "outputs": [],
      "stateMutability": "nonpayable",
      "type": "function"
    },
    {
      "inputs": [
        {
          "internalType": "bytes4",
          "name": "interfaceId",
          "type": "bytes4"
        }
      ],
      "name": "supportsInterface",
      "outputs": [
        {
          "internalType": "bool",
          "name": "",
          "type": "bool"
        }
      ],
      "stateMutability": "view",
      "type": "function"
    },
    {
      "inputs": [],
      "name": "unpause",
      "outputs": [],
      "stateMutability": "nonpayable",
      "type": "function"
    },
    {
      "inputs": [
        {
          "internalType": "address",
          "name": "wallet",
          "type": "address"
        },
        {
          "internalType": "uint256",
          "name": "karma",
          "type": "uint256"
        }
      ],
      "name": "updateKarma",
      "outputs": [],
      "stateMutability": "nonpayable",
      "type": "function"
    },
    {
      "inputs": [
        {
          "internalType": "string",
          "name": "metadataURI",
          "type": "string"
        }
      ],
      "name": "updateProfile",
      "outputs": [],
      "stateMutability": "nonpayable",
      "type": "function"
    },
    {
      "inputs": [
        {
          "internalType": "address",
          "name": "",
          "type": "address"
        }
      ],
      "name": "verifiedProfiles",
      "outputs": [
        {
          "internalType": "bool",
          "name": "",
          "type": "bool"
        }
      ],
      "stateMutability": "view",
      "type": "function"
    },
    {
      "inputs": [
        {
          "internalType": "address",
          "name": "wallet",
          "type": "address"
        }
      ],
      "name": "verifyProfile",
      "outputs": [],
      "stateMutability": "nonpayable",
      "type": "function"
    }
  ],
  "bytecode": "0x608060405234801561001057600080fd5b506000600160006101000a81548160ff02191690831515021790555061003f6000801b3361007460201b60201c565b61006f7f0ce23c3e399818cfee81a7ab0880f714e53d7672b08df0fa62f2843416e1ea093361007460201b60201c565b6101d2565b610084828261016060201b60201c565b61015c57600160008084815260200190815260200160002060000160008373ffffffffffffffffffffffffffffffffffffffff1673ffffffffffffffffffffffffffffffffffffffff16815260200190815260200160002060006101000a81548160ff0219169083151502179055506101016101ca60201b60201c565b73ffffffffffffffffffffffffffffffffffffffff168173ffffffffffffffffffffffffffffffffffffffff16837f2f8788117e7eff1d82e926ec794901d17c78024a50270940304540a733656f0d60405160405180910390a45b5050565b600080600084815260200190815260200160002060000160008373ffffffffffffffffffffffffffffffffffffffff1673ffffffffffffffffffffffffffffffffffffffff16815260200190815260200160002060009054906101000a900460ff16905092915050565b600033905090565b612617806101e16000396000f3fe608060405234801561001057600080fd5b50600436106101205760003560e01c80638456cb59116100ad578063b710935711610071578063b7109357146102df578063bbe15627146102fb578063d547741f14610331578063dfaef6591461034d578063e7705db61461036957610120565b80638456cb591461023b57806391d1485414610245578063a217fddf14610275578063b13c3f8114610293578063b335048e146102af57610120565b80632f2ff15d116100f45780632f2ff15d146101bd57806336568abe146101d95780633f4ba83a146101f55780635c975abb146101ff57806375b238fc1461021d57610120565b80629299e31461012557806301ffc9a71461014157806308dcb92614610171578063248a9ca31461018d575b600080fd5b61013f600480360381019061013a9190611811565b610387565b005b61015b600480360381019061015691906118b6565b610538565b60405161016891906118fe565b60405180910390f35b61018b600480360381019061018691906119ad565b6105b2565b005b6101a760048036038101906101a29190611a23565b610740565b6040516101b49190611a5f565b60405180910390f35b6101d760048036038101906101d29190611a7a565b61075f565b005b6101f360048036038101906101ee9190611a7a565b610780565b005b6101fd610803565b005b610207610838565b60405161021491906118fe565b60405180910390f35b61022561084f565b6040516102329190611a5f565b60405180910390f35b610243610873565b005b61025f600480360381019061025a9190611a7a565b6108a8565b60405161026c91906118fe565b60405180910390f35b61027d610912565b60405161028a9190611a5f565b60405180910390f35b6102ad60048036038101906102a89190611ae6565b610919565b005b6102c960048036038101906102c49190611b46565b610bcd565b6040516102d691906118fe565b60405180910390f35b6102f960048036038101906102f49190611b46565b610bed565b005b61031560048036038101906103109190611b46565b610d8e565b6040516103289796959493929190611c21565b60405180910390f35b61034b60048036038101906103469190611a7a565b610e92565b005b61036760048036038101906103629190611b46565b610eb3565b005b6103716110f1565b60405161037e9190611a5f565b60405180910390f35b600073ffffffffffffffffffffffffffffffffffffffff16600260003373ffffffffffffffffffffffffffffffffffffffff1673ffffffffffffffffffffffffffffffffffffffff16815260200190815260200160002060000160009054906101000a900473ffffffffffffffffffffffffffffffffffffffff1673ffffffffffffffffffffffffffffffffffffffff1603610458576040517f08c379a000000000000000000000000000000000000000000000000000000000815260040161044f90611ce3565b60405180910390fd5b8181600260003373ffffffffffffffffffffffffffffffffffffffff1673ffffffffffffffffffffffffffffffffffffffff16815260200190815260200160002060020191826104a9929190611f49565b5042600260003373ffffffffffffffffffffffffffffffffffffffff1673ffffffffffffffffffffffffffffffffffffffff168152602001908152602001600020600401819055503373ffffffffffffffffffffffffffffffffffffffff167fbe4ec58a792f909e102ee3d745d0c3b34a4d437a54d903c4db098d31c556422f60405160405180910390a25050565b60007f7965db0b000000000000000000000000000000000000000000000000000000007bffffffffffffffffffffffffffffffffffffffffffffffffffffffff1916827bffffffffffffffffffffffffffffffffffffffffffffffffffffffff191614806105ab57506105aa82611115565b5b9050919050565b7fa49807205ce4d355092ef5a8a18f56e8913cf4a201fbe287825b095693c217756105dc8161117f565b600073ffffffffffffffffffffffffffffffffffffffff16600260008573ffffffffffffffffffffffffffffffffffffffff1673ffffffffffffffffffffffffffffffffffffffff16815260200190815260200160002060000160009054906101000a900473ffffffffffffffffffffffffffffffffffffffff1673ffffffffffffffffffffffffffffffffffffffff16036106ad576040517f08c379a00000000000000000000000000000000000000000000000000000000081526004016106a490611ce3565b60405180910390fd5b81600260008573ffffffffffffffffffffffffffffffffffffffff1673ffffffffffffffffffffffffffffffffffffffff1681526020019081526020016000206001018190555042600260008573ffffffffffffffffffffffffffffffffffffffff1673ffffffffffffffffffffffffffffffffffffffff16815260200190815260200160002060040181905550505050565b6000806000838152602001908152602001600020600101549050919050565b61076882610740565b6107718161117f565b61077b8383611193565b505050565b610788611273565b73ffffffffffffffffffffffffffffffffffffffff168173ffffffffffffffffffffffffffffffffffffffff16146107f5576040517f08c379a00000000000000000000000000000000000000000000000000000000081526004016107ec9061208b565b60405180910390fd5b6107ff828261127b565b5050565b7fa49807205ce4d355092ef5a8a18f56e8913cf4a201fbe287825b095693c2177561082d8161117f565b61083561135c565b50565b6000600160009054906101000a900460ff16905090565b7fa49807205ce4d355092ef5a8a18f56e8913cf4a201fbe287825b095693c2177581565b7fa49807205ce4d355092ef5a8a18f56e8913cf4a201fbe287825b095693c2177561089d8161117f565b6108a56113bf565b50565b600080600084815260200190815260200160002060000160008373ffffffffffffffffffffffffffffffffffffffff1673ffffffffffffffffffffffffffffffffffffffff16815260200190815260200160002060009054906101000a900460ff16905092915050565b6000801b81565b600073ffffffffffffffffffffffffffffffffffffffff16600260003373ffffffffffffffffffffffffffffffffffffffff1673ffffffffffffffffffffffffffffffffffffffff16815260200190815260200160002060000160009054906101000a900473ffffffffffffffffffffffffffffffffffffffff1673ffffffffffffffffffffffffffffffffffffffff16146109ea576040517f08c379a00000000000000000000000000000000000000000000000000000000081526004016109e1906120f7565b60405180910390fd5b6040518060e001604052803373ffffffffffffffffffffffffffffffffffffffff16815260200160011515815260200184151581526020016000815260200183838080601f016020809104026020016040519081016040528093929190818152602001838380828437600081840152601f19601f82011690508083019250505050505050815260200142815260200142815250600260003373ffffffffffffffffffffffffffffffffffffffff1673ffffffffffffffffffffffffffffffffffffffff16815260200190815260200160002060008201518160000160006101000a81548173ffffffffffffffffffffffffffffffffffffffff021916908373ffffffffffffffffffffffffffffffffffffffff16021790555060208201518160000160146101000a81548160ff02191690831515021790555060408201518160000160156101000a81548160ff021916908315150217905550606082015181600101556080820151816002019081610b629190612117565b5060a0820151816003015560c082015181600401559050503373ffffffffffffffffffffffffffffffffffffffff167f954de6c130c9d436da9511835e50dcb9a71f5ea7bab99ca28e9bf2e8e515594984604051610bc091906118fe565b60405180910390a2505050565b60036020528060005260406000206000915054906101000a900460ff1681565b7fa49807205ce4d355092ef5a8a18f56e8913cf4a201fbe287825b095693c21775610c178161117f565b600073ffffffffffffffffffffffffffffffffffffffff16600260008473ffffffffffffffffffffffffffffffffffffffff1673ffffffffffffffffffffffffffffffffffffffff16815260200190815260200160002060000160009054906101000a900473ffffffffffffffffffffffffffffffffffffffff1673ffffffffffffffffffffffffffffffffffffffff1603610ce8576040517f08c379a0000000000000000000000000000000000000000000000000000000008152600401610cdf90611ce3565b60405180910390fd5b6000600260008473ffffffffffffffffffffffffffffffffffffffff1673ffffffffffffffffffffffffffffffffffffffff16815260200190815260200160002060000160146101000a81548160ff02191690831515021790555042600260008473ffffffffffffffffffffffffffffffffffffffff1673ffffffffffffffffffffffffffffffffffffffff168152602001908152602001600020600401819055505050565b60026020528060005260406000206000915090508060000160009054906101000a900473ffffffffffffffffffffffffffffffffffffffff16908060000160149054906101000a900460ff16908060000160159054906101000a900460ff1690806001015490806002018054610e0390611d6c565b80601f0160208091040260200160405190810160405280929190818152602001828054610e2f90611d6c565b8015610e7c5780601f10610e5157610100808354040283529160200191610e7c565b820191906000526020600020905b815481529060010190602001808311610e5f57829003601f168201915b5050505050908060030154908060040154905087565b610e9b82610740565b610ea48161117f565b610eae838361127b565b505050565b7f0ce23c3e399818cfee81a7ab0880f714e53d7672b08df0fa62f2843416e1ea09610edd8161117f565b600073ffffffffffffffffffffffffffffffffffffffff16600260008473ffffffffffffffffffffffffffffffffffffffff1673ffffffffffffffffffffffffffffffffffffffff16815260200190815260200160002060000160009054906101000a900473ffffffffffffffffffffffffffffffffffffffff1673ffffffffffffffffffffffffffffffffffffffff1603610fae576040517f08c379a0000000000000000000000000000000000000000000000000000000008152600401610fa590611ce3565b60405180910390fd5b600360008373ffffffffffffffffffffffffffffffffffffffff1673ffffffffffffffffffffffffffffffffffffffff16815260200190815260200160002060009054906101000a900460ff161561103b576040517f08c379a000000000000000000000000000000000000000000000000000000000815260040161103290612235565b60405180910390fd5b6001600360008473ffffffffffffffffffffffffffffffffffffffff1673ffffffffffffffffffffffffffffffffffffffff16815260200190815260200160002060006101000a81548160ff0219169083151502179055503373ffffffffffffffffffffffffffffffffffffffff168273ffffffffffffffffffffffffffffffffffffffff167f636c0cbbe1adc75ab87f0296292c09395166cae9c790e0d4a6e8ef35e040769b60405160405180910390a35050565b7f0ce23c3e399818cfee81a7ab0880f714e53d7672b08df0fa62f2843416e1ea0981565b60007f01ffc9a7000000000000000000000000000000000000000000000000000000007bffffffffffffffffffffffffffffffffffffffffffffffffffffffff1916827bffffffffffffffffffffffffffffffffffffffffffffffffffffffff1916149050919050565b6111908161118b611273565b611421565b50565b61119d82826108a8565b61126f57600160008084815260200190815260200160002060000160008373ffffffffffffffffffffffffffffffffffffffff1673ffffffffffffffffffffffffffffffffffffffff16815260200190815260200160002060006101000a81548160ff021916908315150217905550611214611273565b73ffffffffffffffffffffffffffffffffffffffff168173ffffffffffffffffffffffffffffffffffffffff16837f2f8788117e7eff1d82e926ec794901d17c78024a50270940304540a733656f0d60405160405180910390a45b5050565b600033905090565b61128582826108a8565b1561135857600080600084815260200190815260200160002060000160008373ffffffffffffffffffffffffffffffffffffffff1673ffffffffffffffffffffffffffffffffffffffff16815260200190815260200160002060006101000a81548160ff0219169083151502179055506112fd611273565b73ffffffffffffffffffffffffffffffffffffffff168173ffffffffffffffffffffffffffffffffffffffff16837ff6391f5c32d9c69d2a47ea670b442974b53935d1edc7fd64eb21e047a839171b60405160405180910390a45b5050565b6113646114a6565b6000600160006101000a81548160ff0219169083151502179055507f5db9ee0a495bf2e6ff9c91a7834c1ba4fdd244a5e8aa4e537bd38aeae4b073aa6113a8611273565b6040516113b59190612255565b60405180910390a1565b6113c76114ef565b60018060006101000a81548160ff0219169083151502179055507f62e78cea01bee320cd4e420270b5ea74000d11b0c9f74754ebdbfc544b05a25861140a611273565b6040516114179190612255565b60405180910390a1565b61142b82826108a8565b6114a25761143881611539565b6114468360001c6020611566565b604051602001611457929190612344565b6040516020818303038152906040526040517f08c379a0000000000000000000000000000000000000000000000000000000008152600401611499919061237e565b60405180910390fd5b5050565b6114ae610838565b6114ed576040517f08c379a00000000000000000000000000000000000000000000000000000000081526004016114e4906123ec565b60405180910390fd5b565b6114f7610838565b15611537576040517f08c379a000000000000000000000000000000000000000000000000000000000815260040161152e90612458565b60405180910390fd5b565b606061155f8273ffffffffffffffffffffffffffffffffffffffff16601460ff16611566565b9050919050565b60606000600283600261157991906124a7565b61158391906124e9565b67ffffffffffffffff81111561159c5761159b611d0e565b5b6040519080825280601f01601f1916602001820160405280156115ce5781602001600182028036833780820191505090505b5090507f3000000000000000000000000000000000000000000000000000000000000000816000815181106116065761160561251d565b5b60200101907effffffffffffffffffffffffffffffffffffffffffffffffffffffffffffff1916908160001a9053507f78000000000000000000000000000000000000000000000000000000000000008160018151811061166a5761166961251d565b5b60200101907effffffffffffffffffffffffffffffffffffffffffffffffffffffffffffff1916908160001a905350600060018460026116aa91906124a7565b6116b491906124e9565b90505b6001811115611754577f3031323334353637383961626364656600000000000000000000000000000000600f8616601081106116f6576116f561251d565b5b1a60f81b82828151811061170d5761170c61251d565b5b60200101907effffffffffffffffffffffffffffffffffffffffffffffffffffffffffffff1916908160001a905350600485901c94508061174d9061254c565b90506116b7565b5060008414611798576040517f08c379a000000000000000000000000000000000000000000000000000000000815260040161178f906125c1565b60405180910390fd5b8091505092915050565b600080fd5b600080fd5b600080fd5b600080fd5b600080fd5b60008083601f8401126117d1576117d06117ac565b5b8235905067ffffffffffffffff8111156117ee576117ed6117b1565b5b60208301915083600182028301111561180a576118096117b6565b5b9250929050565b60008060208385031215611828576118276117a2565b5b600083013567ffffffffffffffff811115611846576118456117a7565b5b611852858286016117bb565b92509250509250929050565b60007fffffffff0000000000000000000000000000000000000000000000000000000082169050919050565b6118938161185e565b811461189e57600080fd5b50565b6000813590506118b08161188a565b92915050565b6000602082840312156118cc576118cb6117a2565b5b60006118da848285016118a1565b91505092915050565b60008115159050919050565b6118f8816118e3565b82525050565b600060208201905061191360008301846118ef565b92915050565b600073ffffffffffffffffffffffffffffffffffffffff82169050919050565b600061194482611919565b9050919050565b61195481611939565b811461195f57600080fd5b50565b6000813590506119718161194b565b92915050565b6000819050919050565b61198a81611977565b811461199557600080fd5b50565b6000813590506119a781611981565b92915050565b600080604083850312156119c4576119c36117a2565b5b60006119d285828601611962565b92505060206119e385828601611998565b9150509250929050565b6000819050919050565b611a00816119ed565b8114611a0b57600080fd5b50565b600081359050611a1d816119f7565b92915050565b600060208284031215611a3957611a386117a2565b5b6000611a4784828501611a0e565b91505092915050565b611a59816119ed565b82525050565b6000602082019050611a746000830184611a50565b92915050565b60008060408385031215611a9157611a906117a2565b5b6000611a9f85828601611a0e565b9250506020611ab085828601611962565b9150509250929050565b611ac3816118e3565b8114611ace57600080fd5b50565b600081359050611ae081611aba565b92915050565b600080600060408486031215611aff57611afe6117a2565b5b6000611b0d86828701611ad1565b935050602084013567ffffffffffffffff811115611b2e57611b2d6117a7565b5b611b3a868287016117bb565b92509250509250925092565b600060208284031215611b5c57611b5b6117a2565b5b6000611b6a84828501611962565b91505092915050565b611b7c81611939565b82525050565b611b8b81611977565b82525050565b600081519050919050565b600082825260208201905092915050565b60005b83811015611bcb578082015181840152602081019050611bb0565b60008484015250505050565b6000601f19601f8301169050919050565b6000611bf382611b91565b611bfd8185611b9c565b9350611c0d818560208601611bad565b611c1681611bd7565b840191505092915050565b600060e082019050611c36600083018a611b73565b611c4360208301896118ef565b611c5060408301886118ef565b611c5d6060830187611b82565b8181036080830152611c6f8186611be8565b9050611c7e60a0830185611b82565b611c8b60c0830184611b82565b98975050505050505050565b7f50726f66696c6520646f6573206e6f7420657869737400000000000000000000600082015250565b6000611ccd601683611b9c565b9150611cd882611c97565b602082019050919050565b60006020820190508181036000830152611cfc81611cc0565b9050919050565b600082905092915050565b7f4e487b7100000000000000000000000000000000000000000000000000000000600052604160045260246000fd5b7f4e487b7100000000000000000000000000000000000000000000000000000000600052602260045260246000fd5b60006002820490506001821680611d8457607f821691505b602082108103611d9757611d96611d3d565b5b50919050565b60008190508160005260206000209050919050565b60006020601f8301049050919050565b600082821b905092915050565b600060088302611dff7fffffffffffffffffffffffffffffffffffffffffffffffffffffffffffffffff82611dc2565b611e098683611dc2565b95508019841693508086168417925050509392505050565b6000819050919050565b6000611e46611e41611e3c84611977565b611e21565b611977565b9050919050565b6000819050919050565b611e6083611e2b565b611e74611e6c82611e4d565b848454611dcf565b825550505050565b600090565b611e89611e7c565b611e94818484611e57565b505050565b5b81811015611eb857611ead600082611e81565b600181019050611e9a565b5050565b601f821115611efd57611ece81611d9d565b611ed784611db2565b81016020851015611ee6578190505b611efa611ef285611db2565b830182611e99565b50505b505050565b600082821c905092915050565b6000611f2060001984600802611f02565b1980831691505092915050565b6000611f398383611f0f565b9150826002028217905092915050565b611f538383611d03565b67ffffffffffffffff811115611f6c57611f6b611d0e565b5b611f768254611d6c565b611f81828285611ebc565b6000601f831160018114611fb05760008415611f9e578287013590505b611fa88582611f2d565b865550612010565b601f198416611fbe86611d9d565b60005b82811015611fe657848901358255600182019150602085019450602081019050611fc1565b868310156120035784890135611fff601f891682611f0f565b8355505b6001600288020188555050505b50505050505050565b7f416363657373436f6e74726f6c3a2063616e206f6e6c792072656e6f756e636560008201527f20726f6c657320666f722073656c660000000000000000000000000000000000602082015250565b6000612075602f83611b9c565b915061208082612019565b604082019050919050565b600060208201905081810360008301526120a481612068565b9050919050565b7f50726f66696c6520616c72656164792065786973747300000000000000000000600082015250565b60006120e1601683611b9c565b91506120ec826120ab565b602082019050919050565b60006020820190508181036000830152612110816120d4565b9050919050565b61212082611b91565b67ffffffffffffffff81111561213957612138611d0e565b5b6121438254611d6c565b61214e828285611ebc565b600060209050601f831160018114612181576000841561216f578287015190505b6121798582611f2d565b8655506121e1565b601f19841661218f86611d9d565b60005b828110156121b757848901518255600182019150602085019450602081019050612192565b868310156121d457848901516121d0601f891682611f0f565b8355505b6001600288020188555050505b505050505050565b7f50726f66696c6520616c72656164792076657269666965640000000000000000600082015250565b600061221f601883611b9c565b915061222a826121e9565b602082019050919050565b6000602082019050818103600083015261224e81612212565b9050919050565b600060208201905061226a6000830184611b73565b92915050565b600081905092915050565b7f416363657373436f6e74726f6c3a206163636f756e7420000000000000000000600082015250565b60006122b1601783612270565b91506122bc8261227b565b601782019050919050565b60006122d282611b91565b6122dc8185612270565b93506122ec818560208601611bad565b80840191505092915050565b7f206973206d697373696e6720726f6c6520000000000000000000000000000000600082015250565b600061232e601183612270565b9150612339826122f8565b601182019050919050565b600061234f826122a4565b915061235b82856122c7565b915061236682612321565b915061237282846122c7565b91508190509392505050565b600060208201905081810360008301526123988184611be8565b905092915050565b7f5061757361626c653a206e6f7420706175736564000000000000000000000000600082015250565b60006123d6601483611b9c565b91506123e1826123a0565b602082019050919050565b60006020820190508181036000830152612405816123c9565b9050919050565b7f5061757361626c653a2070617573656400000000000000000000000000000000600082015250565b6000612442601083611b9c565b915061244d8261240c565b602082019050919050565b6000602082019050818103600083015261247181612435565b9050919050565b7f4e487b7100000000000000000000000000000000000000000000000000000000600052601160045260246000fd5b60006124b282611977565b91506124bd83611977565b92508282026124cb81611977565b915082820484148315176124e2576124e1612478565b5b5092915050565b60006124f482611977565b91506124ff83611977565b925082820190508082111561251757612516612478565b5b92915050565b7f4e487b7100000000000000000000000000000000000000000000000000000000600052603260045260246000fd5b600061255782611977565b91506000820361256a57612569612478565b5b600182039050919050565b7f537472696e67733a20686578206c656e67746820696e73756666696369656e74600082015250565b60006125ab602083611b9c565b91506125b682612575565b602082019050919050565b600060208201905081810360008301526125da8161259e565b905091905056fea2646970667358221220e0cfdd7837a3efece6f965b82040a72a763e88993b041fd5627cd3ccf2c616e764736f6c634300081c0033",
  "linkReferences": {},
  "deployedLinkReferences": {}
}