{
  "_format": "hh-sol-artifact-1",
  "contractName": "ProfileNFT",
  "sourceName": "contracts/tokens/ProfileNFT.sol",
  "abi": [
    {
      "inputs": [],
      "stateMutability": "nonpayable",
      "type": "constructor"
    },
    {
      "anonymous": false,
      "inputs": [
        {
          "indexed": true,
          "internalType": "address",
          "name": "owner",
          "type": "address"
        },
        {
          "indexed": true,
          "internalType": "address",
          "name": "approved",
          "type": "address"
        },
        {
          "indexed": true,
          "internalType": "uint256",
          "name": "tokenId",
          "type": "uint256"
        }
      ],
      "name": "Approval",
      "type": "event"
    },
    {
      "anonymous": false,
      "inputs": [
        {
          "indexed": true,
          "internalType": "address",
          "name": "owner",
          "type": "address"
        },
        {
          "indexed": true,
          "internalType": "address",
          "name": "operator",
          "type": "address"
        },
        {
          "indexed": false,
          "internalType": "bool",
          "name": "approved",
          "type": "bool"
        }
      ],
      "name": "ApprovalForAll",
      "type": "event"
    },
    {
      "anonymous": false,
      "inputs": [
        {
          "indexed": true,
          "internalType": "bytes32",
          "name": "role",
          "type": "bytes32"
        },
        {
          "indexed": true,
          "internalType": "bytes32",
          "name": "previousAdminRole",
          "type": "bytes32"
        },
        {
          "indexed": true,
          "internalType": "bytes32",
          "name": "newAdminRole",
          "type": "bytes32"
        }
      ],
      "name": "RoleAdminChanged",
      "type": "event"
    },
    {
      "anonymous": false,
      "inputs": [
        {
          "indexed": true,
          "internalType": "bytes32",
          "name": "role",
          "type": "bytes32"
        },
        {
          "indexed": true,
          "internalType": "address",
          "name": "account",
          "type": "address"
        },
        {
          "indexed": true,
          "internalType": "address",
          "name": "sender",
          "type": "address"
        }
      ],
      "name": "RoleGranted",
      "type": "event"
    },
    {
      "anonymous": false,
      "inputs": [
        {
          "indexed": true,
          "internalType": "bytes32",
          "name": "role",
          "type": "bytes32"
        },
        {
          "indexed": true,
          "internalType": "address",
          "name": "account",
          "type": "address"
        },
        {
          "indexed": true,
          "internalType": "address",
          "name": "sender",
          "type": "address"
        }
      ],
      "name": "RoleRevoked",
      "type": "event"
    },
    {
      "anonymous": false,
      "inputs": [
        {
          "indexed": true,
          "internalType": "address",
          "name": "from",
          "type": "address"
        },
        {
          "indexed": true,
          "internalType": "address",
          "name": "to",
          "type": "address"
        },
        {
          "indexed": true,
          "internalType": "uint256",
          "name": "tokenId",
          "type": "uint256"
        }
      ],
      "name": "Transfer",
      "type": "event"
    },
    {
      "inputs": [],
      "name": "DEFAULT_ADMIN_ROLE",
      "outputs": [
        {
          "internalType": "bytes32",
          "name": "",
          "type": "bytes32"
        }
      ],
      "stateMutability": "view",
      "type": "function"
    },
    {
      "inputs": [],
      "name": "MINTER_ROLE",
      "outputs": [
        {
          "internalType": "bytes32",
          "name": "",
          "type": "bytes32"
        }
      ],
      "stateMutability": "view",
      "type": "function"
    },
    {
      "inputs": [
        {
          "internalType": "address",
          "name": "to",
          "type": "address"
        },
        {
          "internalType": "uint256",
          "name": "tokenId",
          "type": "uint256"
        }
      ],
      "name": "approve",
      "outputs": [],
      "stateMutability": "nonpayable",
      "type": "function"
    },
    {
      "inputs": [
        {
          "internalType": "address",
          "name": "owner",
          "type": "address"
        }
      ],
      "name": "balanceOf",
      "outputs": [
        {
          "internalType": "uint256",
          "name": "",
          "type": "uint256"
        }
      ],
      "stateMutability": "view",
      "type": "function"
    },
    {
      "inputs": [
        {
          "internalType": "uint256",
          "name": "tokenId",
          "type": "uint256"
        }
      ],
      "name": "burn",
      "outputs": [],
      "stateMutability": "nonpayable",
      "type": "function"
    },
    {
      "inputs": [
        {
          "internalType": "uint256",
          "name": "tokenId",
          "type": "uint256"
        }
      ],
      "name": "getApproved",
      "outputs": [
        {
          "internalType": "address",
          "name": "",
          "type": "address"
        }
      ],
      "stateMutability": "view",
      "type": "function"
    },
    {
      "inputs": [
        {
          "internalType": "address",
          "name": "user",
          "type": "address"
        }
      ],
      "name": "getProfileTokenId",
      "outputs": [
        {
          "internalType": "uint256",
          "name": "",
          "type": "uint256"
        }
      ],
      "stateMutability": "view",
      "type": "function"
    },
    {
      "inputs": [
        {
          "internalType": "bytes32",
          "name": "role",
          "type": "bytes32"
        }
      ],
      "name": "getRoleAdmin",
      "outputs": [
        {
          "internalType": "bytes32",
          "name": "",
          "type": "bytes32"
        }
      ],
      "stateMutability": "view",
      "type": "function"
    },
    {
      "inputs": [
        {
          "internalType": "bytes32",
          "name": "role",
          "type": "bytes32"
        },
        {
          "internalType": "address",
          "name": "account",
          "type": "address"
        }
      ],
      "name": "grantRole",
      "outputs": [],
      "stateMutability": "nonpayable",
      "type": "function"
    },
    {
      "inputs": [
        {
          "internalType": "bytes32",
          "name": "role",
          "type": "bytes32"
        },
        {
          "internalType": "address",
          "name": "account",
          "type": "address"
        }
      ],
      "name": "hasRole",
      "outputs": [
        {
          "internalType": "bool",
          "name": "",
          "type": "bool"
        }
      ],
      "stateMutability": "view",
      "type": "function"
    },
    {
      "inputs": [
        {
          "internalType": "address",
          "name": "owner",
          "type": "address"
        },
        {
          "internalType": "address",
          "name": "operator",
          "type": "address"
        }
      ],
      "name": "isApprovedForAll",
      "outputs": [
        {
          "internalType": "bool",
          "name": "",
          "type": "bool"
        }
      ],
      "stateMutability": "view",
      "type": "function"
    },
    {
      "inputs": [],
      "name": "name",
      "outputs": [
        {
          "internalType": "string",
          "name": "",
          "type": "string"
        }
      ],
      "stateMutability": "view",
      "type": "function"
    },
    {
      "inputs": [
        {
          "internalType": "uint256",
          "name": "tokenId",
          "type": "uint256"
        }
      ],
      "name": "ownerOf",
      "outputs": [
        {
          "internalType": "address",
          "name": "",
          "type": "address"
        }
      ],
      "stateMutability": "view",
      "type": "function"
    },
    {
      "inputs": [
        {
          "internalType": "bytes32",
          "name": "role",
          "type": "bytes32"
        },
        {
          "internalType": "address",
          "name": "account",
          "type": "address"
        }
      ],
      "name": "renounceRole",
      "outputs": [],
      "stateMutability": "nonpayable",
      "type": "function"
    },
    {
      "inputs": [
        {
          "internalType": "bytes32",
          "name": "role",
          "type": "bytes32"
        },
        {
          "internalType": "address",
          "name": "account",
          "type": "address"
        }
      ],
      "name": "revokeRole",
      "outputs": [],
      "stateMutability": "nonpayable",
      "type": "function"
    },
    {
      "inputs": [
        {
          "internalType": "address",
          "name": "to",
          "type": "address"
        },
        {
          "internalType": "string",
          "name": "uri",
          "type": "string"
        }
      ],
      "name": "safeMint",
      "outputs": [],
      "stateMutability": "nonpayable",
      "type": "function"
    },
    {
      "inputs": [
        {
          "internalType": "address",
          "name": "from",
          "type": "address"
        },
        {
          "internalType": "address",
          "name": "to",
          "type": "address"
        },
        {
          "internalType": "uint256",
          "name": "tokenId",
          "type": "uint256"
        }
      ],
      "name": "safeTransferFrom",
      "outputs": [],
      "stateMutability": "nonpayable",
      "type": "function"
    },
    {
      "inputs": [
        {
          "internalType": "address",
          "name": "from",
          "type": "address"
        },
        {
          "internalType": "address",
          "name": "to",
          "type": "address"
        },
        {
          "internalType": "uint256",
          "name": "tokenId",
          "type": "uint256"
        },
        {
          "internalType": "bytes",
          "name": "data",
          "type": "bytes"
        }
      ],
      "name": "safeTransferFrom",
      "outputs": [],
      "stateMutability": "nonpayable",
      "type": "function"
    },
    {
      "inputs": [
        {
          "internalType": "address",
          "name": "operator",
          "type": "address"
        },
        {
          "internalType": "bool",
          "name": "approved",
          "type": "bool"
        }
      ],
      "name": "setApprovalForAll",
      "outputs": [],
      "stateMutability": "nonpayable",
      "type": "function"
    },
    {
      "inputs": [
        {
          "internalType": "bytes4",
          "name": "interfaceId",
          "type": "bytes4"
        }
      ],
      "name": "supportsInterface",
      "outputs": [
        {
          "internalType": "bool",
          "name": "",
          "type": "bool"
        }
      ],
      "stateMutability": "view",
      "type": "function"
    },
    {
      "inputs": [],
      "name": "symbol",
      "outputs": [
        {
          "internalType": "string",
          "name": "",
          "type": "string"
        }
      ],
      "stateMutability": "view",
      "type": "function"
    },
    {
      "inputs": [
        {
          "internalType": "uint256",
          "name": "index",
          "type": "uint256"
        }
      ],
      "name": "tokenByIndex",
      "outputs": [
        {
          "internalType": "uint256",
          "name": "",
          "type": "uint256"
        }
      ],
      "stateMutability": "view",
      "type": "function"
    },
    {
      "inputs": [
        {
          "internalType": "address",
          "name": "owner",
          "type": "address"
        },
        {
          "internalType": "uint256",
          "name": "index",
          "type": "uint256"
        }
      ],
      "name": "tokenOfOwnerByIndex",
      "outputs": [
        {
          "internalType": "uint256",
          "name": "",
          "type": "uint256"
        }
      ],
      "stateMutability": "view",
      "type": "function"
    },
    {
      "inputs": [
        {
          "internalType": "uint256",
          "name": "tokenId",
          "type": "uint256"
        }
      ],
      "name": "tokenURI",
      "outputs": [
        {
          "internalType": "string",
          "name": "",
          "type": "string"
        }
      ],
      "stateMutability": "view",
      "type": "function"
    },
    {
      "inputs": [],
      "name": "totalSupply",
      "outputs": [
        {
          "internalType": "uint256",
          "name": "",
          "type": "uint256"
        }
      ],
      "stateMutability": "view",
      "type": "function"
    },
    {
      "inputs": [
        {
          "internalType": "address",
          "name": "from",
          "type": "address"
        },
        {
          "internalType": "address",
          "name": "to",
          "type": "address"
        },
        {
          "internalType": "uint256",
          "name": "tokenId",
          "type": "uint256"
        }
      ],
      "name": "transferFrom",
      "outputs": [],
      "stateMutability": "nonpayable",
      "type": "function"
    },
    {
      "inputs": [
        {
          "internalType": "address",
          "name": "user",
          "type": "address"
        },
        {
          "internalType": "string",
          "name": "uri",
          "type": "string"
        }
      ],
      "name": "updateProfileURI",
      "outputs": [],
      "stateMutability": "nonpayable",
      "type": "function"
    },
    {
      "inputs": [
        {
          "internalType": "address",
          "name": "",
          "type": "address"
        }
      ],
      "name": "userProfiles",
      "outputs": [
        {
          "internalType": "uint256",
          "name": "",
          "type": "uint256"
        }
      ],
      "stateMutability": "view",
      "type": "function"
    }
  ],
  "bytecode": "0x608060405234801561001057600080fd5b506040518060400160405280600e81526020017f4d75737562692050726f66696c650000000000000000000000000000000000008152506040518060400160405280600881526020017f4d55535550524f46000000000000000000000000000000000000000000000000815250816000908161008c9190610497565b50806001908161009c9190610497565b5050506100b26000801b336100e760201b60201c565b6100e27f9f2df0fed2c77648de5860a4cc508cd0818c85b8b8a1ab4ceeef8d981c8956a6336100e760201b60201c565b610569565b6100f782826101d460201b60201c565b6101d05760016006600084815260200190815260200160002060000160008373ffffffffffffffffffffffffffffffffffffffff1673ffffffffffffffffffffffffffffffffffffffff16815260200190815260200160002060006101000a81548160ff02191690831515021790555061017561023f60201b60201c565b73ffffffffffffffffffffffffffffffffffffffff168173ffffffffffffffffffffffffffffffffffffffff16837f2f8788117e7eff1d82e926ec794901d17c78024a50270940304540a733656f0d60405160405180910390a45b5050565b60006006600084815260200190815260200160002060000160008373ffffffffffffffffffffffffffffffffffffffff1673ffffffffffffffffffffffffffffffffffffffff16815260200190815260200160002060009054906101000a900460ff16905092915050565b600033905090565b600081519050919050565b7f4e487b7100000000000000000000000000000000000000000000000000000000600052604160045260246000fd5b7f4e487b7100000000000000000000000000000000000000000000000000000000600052602260045260246000fd5b600060028204905060018216806102c857607f821691505b6020821081036102db576102da610281565b5b50919050565b60008190508160005260206000209050919050565b60006020601f8301049050919050565b600082821b905092915050565b6000600883026103437fffffffffffffffffffffffffffffffffffffffffffffffffffffffffffffffff82610306565b61034d8683610306565b95508019841693508086168417925050509392505050565b6000819050919050565b6000819050919050565b600061039461038f61038a84610365565b61036f565b610365565b9050919050565b6000819050919050565b6103ae83610379565b6103c26103ba8261039b565b848454610313565b825550505050565b600090565b6103d76103ca565b6103e28184846103a5565b505050565b5b81811015610406576103fb6000826103cf565b6001810190506103e8565b5050565b601f82111561044b5761041c816102e1565b610425846102f6565b81016020851015610434578190505b610448610440856102f6565b8301826103e7565b50505b505050565b600082821c905092915050565b600061046e60001984600802610450565b1980831691505092915050565b6000610487838361045d565b9150826002028217905092915050565b6104a082610247565b67ffffffffffffffff8111156104b9576104b8610252565b5b6104c382546102b0565b6104ce82828561040a565b600060209050601f83116001811461050157600084156104ef578287015190505b6104f9858261047b565b865550610561565b601f19841661050f866102e1565b60005b8281101561053757848901518255600182019150602085019450602081019050610512565b868310156105545784890151610550601f89168261045d565b8355505b6001600288020188555050505b505050505050565b61455c806105786000396000f3fe608060405234801561001057600080fd5b50600436106101c45760003560e01c80634a86ce08116100f9578063a22cb46511610097578063d204c45e11610071578063d204c45e1461054d578063d539139314610569578063d547741f14610587578063e985e9c5146105a3576101c4565b8063a22cb465146104e5578063b88d4fde14610501578063c87b56dd1461051d576101c4565b806370a08231116100d357806370a082311461044957806391d148541461047957806395d89b41146104a9578063a217fddf146104c7576101c4565b80634a86ce08146103b95780634f6ccce7146103e95780636352211e14610419576101c4565b806325630ba811610166578063332d56d711610140578063332d56d71461033557806336568abe1461036557806342842e0e1461038157806342966c681461039d576101c4565b806325630ba8146102cd5780632f2ff15d146102e95780632f745c5914610305576101c4565b8063095ea7b3116101a2578063095ea7b31461024757806318160ddd1461026357806323b872dd14610281578063248a9ca31461029d576101c4565b806301ffc9a7146101c957806306fdde03146101f9578063081812fc14610217575b600080fd5b6101e360048036038101906101de9190612ca9565b6105d3565b6040516101f09190612cf1565b60405180910390f35b6102016105e5565b60405161020e9190612d9c565b60405180910390f35b610231600480360381019061022c9190612df4565b610677565b60405161023e9190612e62565b60405180910390f35b610261600480360381019061025c9190612ea9565b6106bd565b005b61026b6107d4565b6040516102789190612ef8565b60405180910390f35b61029b60048036038101906102969190612f13565b6107e1565b005b6102b760048036038101906102b29190612f9c565b610841565b6040516102c49190612fd8565b60405180910390f35b6102e760048036038101906102e29190613128565b610861565b005b61030360048036038101906102fe9190613184565b61095b565b005b61031f600480360381019061031a9190612ea9565b61097c565b60405161032c9190612ef8565b60405180910390f35b61034f600480360381019061034a91906131c4565b610a21565b60405161035c9190612ef8565b60405180910390f35b61037f600480360381019061037a9190613184565b610a39565b005b61039b60048036038101906103969190612f13565b610abc565b005b6103b760048036038101906103b29190612df4565b610adc565b005b6103d360048036038101906103ce91906131c4565b610c39565b6040516103e09190612ef8565b60405180910390f35b61040360048036038101906103fe9190612df4565b610c82565b6040516104109190612ef8565b60405180910390f35b610433600480360381019061042e9190612df4565b610cf3565b6040516104409190612e62565b60405180910390f35b610463600480360381019061045e91906131c4565b610d79565b6040516104709190612ef8565b60405180910390f35b610493600480360381019061048e9190613184565b610e30565b6040516104a09190612cf1565b60405180910390f35b6104b1610e9b565b6040516104be9190612d9c565b60405180910390f35b6104cf610f2d565b6040516104dc9190612fd8565b60405180910390f35b6104ff60048036038101906104fa919061321d565b610f34565b005b61051b600480360381019061051691906132fe565b610f4a565b005b61053760048036038101906105329190612df4565b610fac565b6040516105449190612d9c565b60405180910390f35b61056760048036038101906105629190613128565b611099565b005b610571611256565b60405161057e9190612fd8565b60405180910390f35b6105a1600480360381019061059c9190613184565b61127a565b005b6105bd60048036038101906105b89190613381565b61129b565b6040516105ca9190612cf1565b60405180910390f35b60006105de8261132f565b9050919050565b6060600080546105f4906133f0565b80601f0160208091040260200160405190810160405280929190818152602001828054610620906133f0565b801561066d5780601f106106425761010080835404028352916020019161066d565b820191906000526020600020905b81548152906001019060200180831161065057829003601f168201915b5050505050905090565b6000610682826113a9565b6004600083815260200190815260200160002060009054906101000a900473ffffffffffffffffffffffffffffffffffffffff169050919050565b60006106c882610cf3565b90508073ffffffffffffffffffffffffffffffffffffffff168373ffffffffffffffffffffffffffffffffffffffff1603610738576040517f08c379a000000000000000000000000000000000000000000000000000000000815260040161072f90613493565b60405180910390fd5b8073ffffffffffffffffffffffffffffffffffffffff166107576113f4565b73ffffffffffffffffffffffffffffffffffffffff1614806107865750610785816107806113f4565b61129b565b5b6107c5576040517f08c379a00000000000000000000000000000000000000000000000000000000081526004016107bc90613525565b60405180910390fd5b6107cf83836113fc565b505050565b6000600980549050905090565b6107f26107ec6113f4565b826114b5565b610831576040517f08c379a0000000000000000000000000000000000000000000000000000000008152600401610828906135b7565b60405180910390fd5b61083c83838361154a565b505050565b600060066000838152602001908152602001600020600101549050919050565b7f9f2df0fed2c77648de5860a4cc508cd0818c85b8b8a1ab4ceeef8d981c8956a661088b81611843565b6000600c60008573ffffffffffffffffffffffffffffffffffffffff1673ffffffffffffffffffffffffffffffffffffffff168152602001908152602001600020540361090d576040517f08c379a000000000000000000000000000000000000000000000000000000000815260040161090490613623565b60405180910390fd5b610956600c60008573ffffffffffffffffffffffffffffffffffffffff1673ffffffffffffffffffffffffffffffffffffffff1681526020019081526020016000205483611857565b505050565b61096482610841565b61096d81611843565b61097783836118c4565b505050565b600061098783610d79565b82106109c8576040517f08c379a00000000000000000000000000000000000000000000000000000000081526004016109bf906136b5565b60405180910390fd5b600760008473ffffffffffffffffffffffffffffffffffffffff1673ffffffffffffffffffffffffffffffffffffffff168152602001908152602001600020600083815260200190815260200160002054905092915050565b600c6020528060005260406000206000915090505481565b610a416113f4565b73ffffffffffffffffffffffffffffffffffffffff168173ffffffffffffffffffffffffffffffffffffffff1614610aae576040517f08c379a0000000000000000000000000000000000000000000000000000000008152600401610aa590613747565b60405180910390fd5b610ab882826119a5565b5050565b610ad783838360405180602001604052806000815250610f4a565b505050565b610ae581611a87565b610b24576040517f08c379a0000000000000000000000000000000000000000000000000000000008152600401610b1b906137b3565b60405180910390fd5b6000610b2f82610cf3565b90506000610b3b6113f4565b90508173ffffffffffffffffffffffffffffffffffffffff168173ffffffffffffffffffffffffffffffffffffffff161480610baa57508073ffffffffffffffffffffffffffffffffffffffff16610b9284610677565b73ffffffffffffffffffffffffffffffffffffffff16145b80610bbb5750610bba828261129b565b5b80610bec5750610beb7f9f2df0fed2c77648de5860a4cc508cd0818c85b8b8a1ab4ceeef8d981c8956a682610e30565b5b610c2b576040517f08c379a0000000000000000000000000000000000000000000000000000000008152600401610c229061381f565b60405180910390fd5b610c3483611ac8565b505050565b6000600c60008373ffffffffffffffffffffffffffffffffffffffff1673ffffffffffffffffffffffffffffffffffffffff168152602001908152602001600020549050919050565b6000610c8c6107d4565b8210610ccd576040517f08c379a0000000000000000000000000000000000000000000000000000000008152600401610cc4906138b1565b60405180910390fd5b60098281548110610ce157610ce06138d1565b5b90600052602060002001549050919050565b600080610cff83611af3565b9050600073ffffffffffffffffffffffffffffffffffffffff168173ffffffffffffffffffffffffffffffffffffffff1603610d70576040517f08c379a0000000000000000000000000000000000000000000000000000000008152600401610d679061394c565b60405180910390fd5b80915050919050565b60008073ffffffffffffffffffffffffffffffffffffffff168273ffffffffffffffffffffffffffffffffffffffff1603610de9576040517f08c379a0000000000000000000000000000000000000000000000000000000008152600401610de0906139de565b60405180910390fd5b600360008373ffffffffffffffffffffffffffffffffffffffff1673ffffffffffffffffffffffffffffffffffffffff168152602001908152602001600020549050919050565b60006006600084815260200190815260200160002060000160008373ffffffffffffffffffffffffffffffffffffffff1673ffffffffffffffffffffffffffffffffffffffff16815260200190815260200160002060009054906101000a900460ff16905092915050565b606060018054610eaa906133f0565b80601f0160208091040260200160405190810160405280929190818152602001828054610ed6906133f0565b8015610f235780601f10610ef857610100808354040283529160200191610f23565b820191906000526020600020905b815481529060010190602001808311610f0657829003601f168201915b5050505050905090565b6000801b81565b610f46610f3f6113f4565b8383611b30565b5050565b610f5b610f556113f4565b836114b5565b610f9a576040517f08c379a0000000000000000000000000000000000000000000000000000000008152600401610f91906135b7565b60405180910390fd5b610fa684848484611c9c565b50505050565b6060610fb782611a87565b610ff6576040517f08c379a0000000000000000000000000000000000000000000000000000000008152600401610fed90613a70565b60405180910390fd5b600d60008381526020019081526020016000208054611014906133f0565b80601f0160208091040260200160405190810160405280929190818152602001828054611040906133f0565b801561108d5780601f106110625761010080835404028352916020019161108d565b820191906000526020600020905b81548152906001019060200180831161107057829003601f168201915b50505050509050919050565b7f9f2df0fed2c77648de5860a4cc508cd0818c85b8b8a1ab4ceeef8d981c8956a66110c381611843565b6000600c60008573ffffffffffffffffffffffffffffffffffffffff1673ffffffffffffffffffffffffffffffffffffffff16815260200190815260200160002054146111df57611152600c60008573ffffffffffffffffffffffffffffffffffffffff1673ffffffffffffffffffffffffffffffffffffffff16815260200190815260200160002054611a87565b611191576040517f08c379a000000000000000000000000000000000000000000000000000000000815260040161118890613adc565b60405180910390fd5b6111da600c60008573ffffffffffffffffffffffffffffffffffffffff1673ffffffffffffffffffffffffffffffffffffffff1681526020019081526020016000205483611857565b611251565b60006111eb600b611cf8565b90506111f7600b611d06565b6112018482611d1c565b61120b8184611857565b80600c60008673ffffffffffffffffffffffffffffffffffffffff1673ffffffffffffffffffffffffffffffffffffffff16815260200190815260200160002081905550505b505050565b7f9f2df0fed2c77648de5860a4cc508cd0818c85b8b8a1ab4ceeef8d981c8956a681565b61128382610841565b61128c81611843565b61129683836119a5565b505050565b6000600560008473ffffffffffffffffffffffffffffffffffffffff1673ffffffffffffffffffffffffffffffffffffffff16815260200190815260200160002060008373ffffffffffffffffffffffffffffffffffffffff1673ffffffffffffffffffffffffffffffffffffffff16815260200190815260200160002060009054906101000a900460ff16905092915050565b60007f780e9d63000000000000000000000000000000000000000000000000000000007bffffffffffffffffffffffffffffffffffffffffffffffffffffffff1916827bffffffffffffffffffffffffffffffffffffffffffffffffffffffff191614806113a257506113a182611d3a565b5b9050919050565b6113b281611a87565b6113f1576040517f08c379a00000000000000000000000000000000000000000000000000000000081526004016113e89061394c565b60405180910390fd5b50565b600033905090565b816004600083815260200190815260200160002060006101000a81548173ffffffffffffffffffffffffffffffffffffffff021916908373ffffffffffffffffffffffffffffffffffffffff160217905550808273ffffffffffffffffffffffffffffffffffffffff1661146f83610cf3565b73ffffffffffffffffffffffffffffffffffffffff167f8c5be1e5ebec7d5bd14f71427d1e84f3dd0314c0f7b2291e5b200ac8c7c3b92560405160405180910390a45050565b6000806114c183610cf3565b90508073ffffffffffffffffffffffffffffffffffffffff168473ffffffffffffffffffffffffffffffffffffffff1614806115035750611502818561129b565b5b8061154157508373ffffffffffffffffffffffffffffffffffffffff1661152984610677565b73ffffffffffffffffffffffffffffffffffffffff16145b91505092915050565b8273ffffffffffffffffffffffffffffffffffffffff1661156a82610cf3565b73ffffffffffffffffffffffffffffffffffffffff16146115c0576040517f08c379a00000000000000000000000000000000000000000000000000000000081526004016115b790613b6e565b60405180910390fd5b600073ffffffffffffffffffffffffffffffffffffffff168273ffffffffffffffffffffffffffffffffffffffff160361162f576040517f08c379a000000000000000000000000000000000000000000000000000000000815260040161162690613c00565b60405180910390fd5b61163c8383836001611db4565b8273ffffffffffffffffffffffffffffffffffffffff1661165c82610cf3565b73ffffffffffffffffffffffffffffffffffffffff16146116b2576040517f08c379a00000000000000000000000000000000000000000000000000000000081526004016116a990613b6e565b60405180910390fd5b6004600082815260200190815260200160002060006101000a81549073ffffffffffffffffffffffffffffffffffffffff02191690556001600360008573ffffffffffffffffffffffffffffffffffffffff1673ffffffffffffffffffffffffffffffffffffffff168152602001908152602001600020600082825403925050819055506001600360008473ffffffffffffffffffffffffffffffffffffffff1673ffffffffffffffffffffffffffffffffffffffff16815260200190815260200160002060008282540192505081905550816002600083815260200190815260200160002060006101000a81548173ffffffffffffffffffffffffffffffffffffffff021916908373ffffffffffffffffffffffffffffffffffffffff160217905550808273ffffffffffffffffffffffffffffffffffffffff168473ffffffffffffffffffffffffffffffffffffffff167fddf252ad1be2c89b69c2b068fc378daa952ba7f163c4a11628f55a4df523b3ef60405160405180910390a461183e8383836001611dc6565b505050565b6118548161184f6113f4565b611dcc565b50565b61186082611a87565b61189f576040517f08c379a000000000000000000000000000000000000000000000000000000000815260040161189690613c92565b60405180910390fd5b80600d600084815260200190815260200160002090816118bf9190613e5e565b505050565b6118ce8282610e30565b6119a15760016006600084815260200190815260200160002060000160008373ffffffffffffffffffffffffffffffffffffffff1673ffffffffffffffffffffffffffffffffffffffff16815260200190815260200160002060006101000a81548160ff0219169083151502179055506119466113f4565b73ffffffffffffffffffffffffffffffffffffffff168173ffffffffffffffffffffffffffffffffffffffff16837f2f8788117e7eff1d82e926ec794901d17c78024a50270940304540a733656f0d60405160405180910390a45b5050565b6119af8282610e30565b15611a835760006006600084815260200190815260200160002060000160008373ffffffffffffffffffffffffffffffffffffffff1673ffffffffffffffffffffffffffffffffffffffff16815260200190815260200160002060006101000a81548160ff021916908315150217905550611a286113f4565b73ffffffffffffffffffffffffffffffffffffffff168173ffffffffffffffffffffffffffffffffffffffff16837ff6391f5c32d9c69d2a47ea670b442974b53935d1edc7fd64eb21e047a839171b60405160405180910390a45b5050565b60008073ffffffffffffffffffffffffffffffffffffffff16611aa983611af3565b73ffffffffffffffffffffffffffffffffffffffff1614159050919050565b611ad181611e51565b600d60008281526020019081526020016000206000611af09190612be0565b50565b60006002600083815260200190815260200160002060009054906101000a900473ffffffffffffffffffffffffffffffffffffffff169050919050565b8173ffffffffffffffffffffffffffffffffffffffff168373ffffffffffffffffffffffffffffffffffffffff1603611b9e576040517f08c379a0000000000000000000000000000000000000000000000000000000008152600401611b9590613f7c565b60405180910390fd5b80600560008573ffffffffffffffffffffffffffffffffffffffff1673ffffffffffffffffffffffffffffffffffffffff16815260200190815260200160002060008473ffffffffffffffffffffffffffffffffffffffff1673ffffffffffffffffffffffffffffffffffffffff16815260200190815260200160002060006101000a81548160ff0219169083151502179055508173ffffffffffffffffffffffffffffffffffffffff168373ffffffffffffffffffffffffffffffffffffffff167f17307eab39ab6107e8899845ad3d59bd9653f200f220920489ca2b5937696c3183604051611c8f9190612cf1565b60405180910390a3505050565b611ca784848461154a565b611cb384848484611f9f565b611cf2576040517f08c379a0000000000000000000000000000000000000000000000000000000008152600401611ce99061400e565b60405180910390fd5b50505050565b600081600001549050919050565b6001816000016000828254019250508190555050565b611d36828260405180602001604052806000815250612126565b5050565b60007f7965db0b000000000000000000000000000000000000000000000000000000007bffffffffffffffffffffffffffffffffffffffffffffffffffffffff1916827bffffffffffffffffffffffffffffffffffffffffffffffffffffffff19161480611dad5750611dac82612181565b5b9050919050565b611dc084848484612263565b50505050565b50505050565b611dd68282610e30565b611e4d57611de3816123c1565b611df18360001c60206123ee565b604051602001611e02929190614102565b6040516020818303038152906040526040517f08c379a0000000000000000000000000000000000000000000000000000000008152600401611e449190612d9c565b60405180910390fd5b5050565b6000611e5c82610cf3565b9050611e6c816000846001611db4565b611e7582610cf3565b90506004600083815260200190815260200160002060006101000a81549073ffffffffffffffffffffffffffffffffffffffff02191690556001600360008373ffffffffffffffffffffffffffffffffffffffff1673ffffffffffffffffffffffffffffffffffffffff168152602001908152602001600020600082825403925050819055506002600083815260200190815260200160002060006101000a81549073ffffffffffffffffffffffffffffffffffffffff021916905581600073ffffffffffffffffffffffffffffffffffffffff168273ffffffffffffffffffffffffffffffffffffffff167fddf252ad1be2c89b69c2b068fc378daa952ba7f163c4a11628f55a4df523b3ef60405160405180910390a4611f9b816000846001611dc6565b5050565b6000611fc08473ffffffffffffffffffffffffffffffffffffffff1661262a565b15612119578373ffffffffffffffffffffffffffffffffffffffff1663150b7a02611fe96113f4565b8786866040518563ffffffff1660e01b815260040161200b9493929190614191565b6020604051808303816000875af192505050801561204757506040513d601f19601f8201168201806040525081019061204491906141f2565b60015b6120c9573d8060008114612077576040519150601f19603f3d011682016040523d82523d6000602084013e61207c565b606091505b5060008151036120c1576040517f08c379a00000000000000000000000000000000000000000000000000000000081526004016120b89061400e565b60405180910390fd5b805181602001fd5b63150b7a0260e01b7bffffffffffffffffffffffffffffffffffffffffffffffffffffffff1916817bffffffffffffffffffffffffffffffffffffffffffffffffffffffff19161491505061211e565b600190505b949350505050565b612130838361264d565b61213d6000848484611f9f565b61217c576040517f08c379a00000000000000000000000000000000000000000000000000000000081526004016121739061400e565b60405180910390fd5b505050565b60007f80ac58cd000000000000000000000000000000000000000000000000000000007bffffffffffffffffffffffffffffffffffffffffffffffffffffffff1916827bffffffffffffffffffffffffffffffffffffffffffffffffffffffff1916148061224c57507f5b5e139f000000000000000000000000000000000000000000000000000000007bffffffffffffffffffffffffffffffffffffffffffffffffffffffff1916827bffffffffffffffffffffffffffffffffffffffffffffffffffffffff1916145b8061225c575061225b8261286a565b5b9050919050565b61226f848484846128d4565b60018111156122b3576040517f08c379a00000000000000000000000000000000000000000000000000000000081526004016122aa90614291565b60405180910390fd5b6000829050600073ffffffffffffffffffffffffffffffffffffffff168573ffffffffffffffffffffffffffffffffffffffff16036122fa576122f5816128da565b612339565b8373ffffffffffffffffffffffffffffffffffffffff168573ffffffffffffffffffffffffffffffffffffffff1614612338576123378582612923565b5b5b600073ffffffffffffffffffffffffffffffffffffffff168473ffffffffffffffffffffffffffffffffffffffff160361237b5761237681612a90565b6123ba565b8473ffffffffffffffffffffffffffffffffffffffff168473ffffffffffffffffffffffffffffffffffffffff16146123b9576123b88482612b61565b5b5b5050505050565b60606123e78273ffffffffffffffffffffffffffffffffffffffff16601460ff166123ee565b9050919050565b60606000600283600261240191906142e0565b61240b9190614322565b67ffffffffffffffff81111561242457612423612ffd565b5b6040519080825280601f01601f1916602001820160405280156124565781602001600182028036833780820191505090505b5090507f30000000000000000000000000000000000000000000000000000000000000008160008151811061248e5761248d6138d1565b5b60200101907effffffffffffffffffffffffffffffffffffffffffffffffffffffffffffff1916908160001a9053507f7800000000000000000000000000000000000000000000000000000000000000816001815181106124f2576124f16138d1565b5b60200101907effffffffffffffffffffffffffffffffffffffffffffffffffffffffffffff1916908160001a9053506000600184600261253291906142e0565b61253c9190614322565b90505b60018111156125dc577f3031323334353637383961626364656600000000000000000000000000000000600f86166010811061257e5761257d6138d1565b5b1a60f81b828281518110612595576125946138d1565b5b60200101907effffffffffffffffffffffffffffffffffffffffffffffffffffffffffffff1916908160001a905350600485901c9450806125d590614356565b905061253f565b5060008414612620576040517f08c379a0000000000000000000000000000000000000000000000000000000008152600401612617906143cb565b60405180910390fd5b8091505092915050565b6000808273ffffffffffffffffffffffffffffffffffffffff163b119050919050565b600073ffffffffffffffffffffffffffffffffffffffff168273ffffffffffffffffffffffffffffffffffffffff16036126bc576040517f08c379a00000000000000000000000000000000000000000000000000000000081526004016126b390614437565b60405180910390fd5b6126c581611a87565b15612705576040517f08c379a00000000000000000000000000000000000000000000000000000000081526004016126fc906144a3565b60405180910390fd5b612713600083836001611db4565b61271c81611a87565b1561275c576040517f08c379a0000000000000000000000000000000000000000000000000000000008152600401612753906144a3565b60405180910390fd5b6001600360008473ffffffffffffffffffffffffffffffffffffffff1673ffffffffffffffffffffffffffffffffffffffff16815260200190815260200160002060008282540192505081905550816002600083815260200190815260200160002060006101000a81548173ffffffffffffffffffffffffffffffffffffffff021916908373ffffffffffffffffffffffffffffffffffffffff160217905550808273ffffffffffffffffffffffffffffffffffffffff16600073ffffffffffffffffffffffffffffffffffffffff167fddf252ad1be2c89b69c2b068fc378daa952ba7f163c4a11628f55a4df523b3ef60405160405180910390a4612866600083836001611dc6565b5050565b60007f01ffc9a7000000000000000000000000000000000000000000000000000000007bffffffffffffffffffffffffffffffffffffffffffffffffffffffff1916827bffffffffffffffffffffffffffffffffffffffffffffffffffffffff1916149050919050565b50505050565b600980549050600a600083815260200190815260200160002081905550600981908060018154018082558091505060019003906000526020600020016000909190919091505550565b6000600161293084610d79565b61293a91906144c3565b9050600060086000848152602001908152602001600020549050818114612a1f576000600760008673ffffffffffffffffffffffffffffffffffffffff1673ffffffffffffffffffffffffffffffffffffffff168152602001908152602001600020600084815260200190815260200160002054905080600760008773ffffffffffffffffffffffffffffffffffffffff1673ffffffffffffffffffffffffffffffffffffffff168152602001908152602001600020600084815260200190815260200160002081905550816008600083815260200190815260200160002081905550505b6008600084815260200190815260200160002060009055600760008573ffffffffffffffffffffffffffffffffffffffff1673ffffffffffffffffffffffffffffffffffffffff16815260200190815260200160002060008381526020019081526020016000206000905550505050565b60006001600980549050612aa491906144c3565b90506000600a6000848152602001908152602001600020549050600060098381548110612ad457612ad36138d1565b5b906000526020600020015490508060098381548110612af657612af56138d1565b5b906000526020600020018190555081600a600083815260200190815260200160002081905550600a6000858152602001908152602001600020600090556009805480612b4557612b446144f7565b5b6001900381819060005260206000200160009055905550505050565b6000612b6c83610d79565b905081600760008573ffffffffffffffffffffffffffffffffffffffff1673ffffffffffffffffffffffffffffffffffffffff168152602001908152602001600020600083815260200190815260200160002081905550806008600084815260200190815260200160002081905550505050565b508054612bec906133f0565b6000825580601f10612bfe5750612c1d565b601f016020900490600052602060002090810190612c1c9190612c20565b5b50565b5b80821115612c39576000816000905550600101612c21565b5090565b6000604051905090565b600080fd5b600080fd5b60007fffffffff0000000000000000000000000000000000000000000000000000000082169050919050565b612c8681612c51565b8114612c9157600080fd5b50565b600081359050612ca381612c7d565b92915050565b600060208284031215612cbf57612cbe612c47565b5b6000612ccd84828501612c94565b91505092915050565b60008115159050919050565b612ceb81612cd6565b82525050565b6000602082019050612d066000830184612ce2565b92915050565b600081519050919050565b600082825260208201905092915050565b60005b83811015612d46578082015181840152602081019050612d2b565b60008484015250505050565b6000601f19601f8301169050919050565b6000612d6e82612d0c565b612d788185612d17565b9350612d88818560208601612d28565b612d9181612d52565b840191505092915050565b60006020820190508181036000830152612db68184612d63565b905092915050565b6000819050919050565b612dd181612dbe565b8114612ddc57600080fd5b50565b600081359050612dee81612dc8565b92915050565b600060208284031215612e0a57612e09612c47565b5b6000612e1884828501612ddf565b91505092915050565b600073ffffffffffffffffffffffffffffffffffffffff82169050919050565b6000612e4c82612e21565b9050919050565b612e5c81612e41565b82525050565b6000602082019050612e776000830184612e53565b92915050565b612e8681612e41565b8114612e9157600080fd5b50565b600081359050612ea381612e7d565b92915050565b60008060408385031215612ec057612ebf612c47565b5b6000612ece85828601612e94565b9250506020612edf85828601612ddf565b9150509250929050565b612ef281612dbe565b82525050565b6000602082019050612f0d6000830184612ee9565b92915050565b600080600060608486031215612f2c57612f2b612c47565b5b6000612f3a86828701612e94565b9350506020612f4b86828701612e94565b9250506040612f5c86828701612ddf565b9150509250925092565b6000819050919050565b612f7981612f66565b8114612f8457600080fd5b50565b600081359050612f9681612f70565b92915050565b600060208284031215612fb257612fb1612c47565b5b6000612fc084828501612f87565b91505092915050565b612fd281612f66565b82525050565b6000602082019050612fed6000830184612fc9565b92915050565b600080fd5b600080fd5b7f4e487b7100000000000000000000000000000000000000000000000000000000600052604160045260246000fd5b61303582612d52565b810181811067ffffffffffffffff8211171561305457613053612ffd565b5b80604052505050565b6000613067612c3d565b9050613073828261302c565b919050565b600067ffffffffffffffff82111561309357613092612ffd565b5b61309c82612d52565b9050602081019050919050565b82818337600083830152505050565b60006130cb6130c684613078565b61305d565b9050828152602081018484840111156130e7576130e6612ff8565b5b6130f28482856130a9565b509392505050565b600082601f83011261310f5761310e612ff3565b5b813561311f8482602086016130b8565b91505092915050565b6000806040838503121561313f5761313e612c47565b5b600061314d85828601612e94565b925050602083013567ffffffffffffffff81111561316e5761316d612c4c565b5b61317a858286016130fa565b9150509250929050565b6000806040838503121561319b5761319a612c47565b5b60006131a985828601612f87565b92505060206131ba85828601612e94565b9150509250929050565b6000602082840312156131da576131d9612c47565b5b60006131e884828501612e94565b91505092915050565b6131fa81612cd6565b811461320557600080fd5b50565b600081359050613217816131f1565b92915050565b6000806040838503121561323457613233612c47565b5b600061324285828601612e94565b925050602061325385828601613208565b9150509250929050565b600067ffffffffffffffff82111561327857613277612ffd565b5b61328182612d52565b9050602081019050919050565b60006132a161329c8461325d565b61305d565b9050828152602081018484840111156132bd576132bc612ff8565b5b6132c88482856130a9565b509392505050565b600082601f8301126132e5576132e4612ff3565b5b81356132f584826020860161328e565b91505092915050565b6000806000806080858703121561331857613317612c47565b5b600061332687828801612e94565b945050602061333787828801612e94565b935050604061334887828801612ddf565b925050606085013567ffffffffffffffff81111561336957613368612c4c565b5b613375878288016132d0565b91505092959194509250565b6000806040838503121561339857613397612c47565b5b60006133a685828601612e94565b92505060206133b785828601612e94565b9150509250929050565b7f4e487b7100000000000000000000000000000000000000000000000000000000600052602260045260246000fd5b6000600282049050600182168061340857607f821691505b60208210810361341b5761341a6133c1565b5b50919050565b7f4552433732313a20617070726f76616c20746f2063757272656e74206f776e6560008201527f7200000000000000000000000000000000000000000000000000000000000000602082015250565b600061347d602183612d17565b915061348882613421565b604082019050919050565b600060208201905081810360008301526134ac81613470565b9050919050565b7f4552433732313a20617070726f76652063616c6c6572206973206e6f7420746f60008201527f6b656e206f776e6572206f7220617070726f76656420666f7220616c6c000000602082015250565b600061350f603d83612d17565b915061351a826134b3565b604082019050919050565b6000602082019050818103600083015261353e81613502565b9050919050565b7f4552433732313a2063616c6c6572206973206e6f7420746f6b656e206f776e6560008201527f72206f7220617070726f76656400000000000000000000000000000000000000602082015250565b60006135a1602d83612d17565b91506135ac82613545565b604082019050919050565b600060208201905081810360008301526135d081613594565b9050919050565b7f50726f66696c65204e465420646f6573206e6f74206578697374000000000000600082015250565b600061360d601a83612d17565b9150613618826135d7565b602082019050919050565b6000602082019050818103600083015261363c81613600565b9050919050565b7f455243373231456e756d657261626c653a206f776e657220696e646578206f7560008201527f74206f6620626f756e6473000000000000000000000000000000000000000000602082015250565b600061369f602b83612d17565b91506136aa82613643565b604082019050919050565b600060208201905081810360008301526136ce81613692565b9050919050565b7f416363657373436f6e74726f6c3a2063616e206f6e6c792072656e6f756e636560008201527f20726f6c657320666f722073656c660000000000000000000000000000000000602082015250565b6000613731602f83612d17565b915061373c826136d5565b604082019050919050565b6000602082019050818103600083015261376081613724565b9050919050565b7f546f6b656e20646f6573206e6f74206578697374000000000000000000000000600082015250565b600061379d601483612d17565b91506137a882613767565b602082019050919050565b600060208201905081810360008301526137cc81613790565b9050919050565b7f4e6f74206f776e6572206f7220617070726f766564206f72206d696e74657200600082015250565b6000613809601f83612d17565b9150613814826137d3565b602082019050919050565b60006020820190508181036000830152613838816137fc565b9050919050565b7f455243373231456e756d657261626c653a20676c6f62616c20696e646578206f60008201527f7574206f6620626f756e64730000000000000000000000000000000000000000602082015250565b600061389b602c83612d17565b91506138a68261383f565b604082019050919050565b600060208201905081810360008301526138ca8161388e565b9050919050565b7f4e487b7100000000000000000000000000000000000000000000000000000000600052603260045260246000fd5b7f4552433732313a20696e76616c696420746f6b656e2049440000000000000000600082015250565b6000613936601883612d17565b915061394182613900565b602082019050919050565b6000602082019050818103600083015261396581613929565b9050919050565b7f4552433732313a2061646472657373207a65726f206973206e6f74206120766160008201527f6c6964206f776e65720000000000000000000000000000000000000000000000602082015250565b60006139c8602983612d17565b91506139d38261396c565b604082019050919050565b600060208201905081810360008301526139f7816139bb565b9050919050565b7f4552433732314d657461646174613a2055524920717565727920666f72206e6f60008201527f6e6578697374656e7420746f6b656e0000000000000000000000000000000000602082015250565b6000613a5a602f83612d17565b9150613a65826139fe565b604082019050919050565b60006020820190508181036000830152613a8981613a4d565b9050919050565b7f546f6b656e20646f6573206e6f7420657869737420666f722075706461746500600082015250565b6000613ac6601f83612d17565b9150613ad182613a90565b602082019050919050565b60006020820190508181036000830152613af581613ab9565b9050919050565b7f4552433732313a207472616e736665722066726f6d20696e636f72726563742060008201527f6f776e6572000000000000000000000000000000000000000000000000000000602082015250565b6000613b58602583612d17565b9150613b6382613afc565b604082019050919050565b60006020820190508181036000830152613b8781613b4b565b9050919050565b7f4552433732313a207472616e7366657220746f20746865207a65726f2061646460008201527f7265737300000000000000000000000000000000000000000000000000000000602082015250565b6000613bea602483612d17565b9150613bf582613b8e565b604082019050919050565b60006020820190508181036000830152613c1981613bdd565b9050919050565b7f4552433732314d657461646174613a2055524920736574206f66206e6f6e657860008201527f697374656e7420746f6b656e0000000000000000000000000000000000000000602082015250565b6000613c7c602c83612d17565b9150613c8782613c20565b604082019050919050565b60006020820190508181036000830152613cab81613c6f565b9050919050565b60008190508160005260206000209050919050565b60006020601f8301049050919050565b600082821b905092915050565b600060088302613d147fffffffffffffffffffffffffffffffffffffffffffffffffffffffffffffffff82613cd7565b613d1e8683613cd7565b95508019841693508086168417925050509392505050565b6000819050919050565b6000613d5b613d56613d5184612dbe565b613d36565b612dbe565b9050919050565b6000819050919050565b613d7583613d40565b613d89613d8182613d62565b848454613ce4565b825550505050565b600090565b613d9e613d91565b613da9818484613d6c565b505050565b5b81811015613dcd57613dc2600082613d96565b600181019050613daf565b5050565b601f821115613e1257613de381613cb2565b613dec84613cc7565b81016020851015613dfb578190505b613e0f613e0785613cc7565b830182613dae565b50505b505050565b600082821c905092915050565b6000613e3560001984600802613e17565b1980831691505092915050565b6000613e4e8383613e24565b9150826002028217905092915050565b613e6782612d0c565b67ffffffffffffffff811115613e8057613e7f612ffd565b5b613e8a82546133f0565b613e95828285613dd1565b600060209050601f831160018114613ec85760008415613eb6578287015190505b613ec08582613e42565b865550613f28565b601f198416613ed686613cb2565b60005b82811015613efe57848901518255600182019150602085019450602081019050613ed9565b86831015613f1b5784890151613f17601f891682613e24565b8355505b6001600288020188555050505b505050505050565b7f4552433732313a20617070726f766520746f2063616c6c657200000000000000600082015250565b6000613f66601983612d17565b9150613f7182613f30565b602082019050919050565b60006020820190508181036000830152613f9581613f59565b9050919050565b7f4552433732313a207472616e7366657220746f206e6f6e20455243373231526560008201527f63656976657220696d706c656d656e7465720000000000000000000000000000602082015250565b6000613ff8603283612d17565b915061400382613f9c565b604082019050919050565b6000602082019050818103600083015261402781613feb565b9050919050565b600081905092915050565b7f416363657373436f6e74726f6c3a206163636f756e7420000000000000000000600082015250565b600061406f60178361402e565b915061407a82614039565b601782019050919050565b600061409082612d0c565b61409a818561402e565b93506140aa818560208601612d28565b80840191505092915050565b7f206973206d697373696e6720726f6c6520000000000000000000000000000000600082015250565b60006140ec60118361402e565b91506140f7826140b6565b601182019050919050565b600061410d82614062565b91506141198285614085565b9150614124826140df565b91506141308284614085565b91508190509392505050565b600081519050919050565b600082825260208201905092915050565b60006141638261413c565b61416d8185614147565b935061417d818560208601612d28565b61418681612d52565b840191505092915050565b60006080820190506141a66000830187612e53565b6141b36020830186612e53565b6141c06040830185612ee9565b81810360608301526141d28184614158565b905095945050505050565b6000815190506141ec81612c7d565b92915050565b60006020828403121561420857614207612c47565b5b6000614216848285016141dd565b91505092915050565b7f455243373231456e756d657261626c653a20636f6e736563757469766520747260008201527f616e7366657273206e6f7420737570706f727465640000000000000000000000602082015250565b600061427b603583612d17565b91506142868261421f565b604082019050919050565b600060208201905081810360008301526142aa8161426e565b9050919050565b7f4e487b7100000000000000000000000000000000000000000000000000000000600052601160045260246000fd5b60006142eb82612dbe565b91506142f683612dbe565b925082820261430481612dbe565b9150828204841483151761431b5761431a6142b1565b5b5092915050565b600061432d82612dbe565b915061433883612dbe565b92508282019050808211156143505761434f6142b1565b5b92915050565b600061436182612dbe565b915060008203614374576143736142b1565b5b600182039050919050565b7f537472696e67733a20686578206c656e67746820696e73756666696369656e74600082015250565b60006143b5602083612d17565b91506143c08261437f565b602082019050919050565b600060208201905081810360008301526143e4816143a8565b9050919050565b7f4552433732313a206d696e7420746f20746865207a65726f2061646472657373600082015250565b6000614421602083612d17565b915061442c826143eb565b602082019050919050565b6000602082019050818103600083015261445081614414565b9050919050565b7f4552433732313a20746f6b656e20616c7265616479206d696e74656400000000600082015250565b600061448d601c83612d17565b915061449882614457565b602082019050919050565b600060208201905081810360008301526144bc81614480565b9050919050565b60006144ce82612dbe565b91506144d983612dbe565b92508282039050818111156144f1576144f06142b1565b5b92915050565b7f4e487b7100000000000000000000000000000000000000000000000000000000600052603160045260246000fdfea2646970667358221220b33e6144fc1cde531c1e376482ce6d758e2f350c3bafed44804b155362d439f564736f6c634300081c0033",
  "linkReferences": {},
  "deployedLinkReferences": {}
}